{"contracts/Nero.sol":{"Nero":{"abi":[{"inputs":[{"internalType":"string","name":"name","type":"string"},{"internalType":"string","name":"symbol","type":"string"},{"internalType":"uint256","name":"supply","type":"uint256"},{"internalType":"uint256","name":"price","type":"uint256"},{"internalType":"address","name":"nero","type":"address"},{"internalType":"uint256","name":"bronzeLevel","type":"uint256"},{"internalType":"uint256","name":"silverLevel","type":"uint256"},{"internalType":"uint256","name":"goldLevel","type":"uint256"}],"stateMutability":"nonpayable","type":"constructor"},{"inputs":[],"name":"AccessControlBadConfirmation","type":"error"},{"inputs":[{"internalType":"address","name":"account","type":"address"},{"internalType":"bytes32","name":"neededRole","type":"bytes32"}],"name":"AccessControlUnauthorizedAccount","type":"error"},{"inputs":[],"name":"ApprovalCallerNotOwnerNorApproved","type":"error"},{"inputs":[],"name":"ApprovalQueryForNonexistentToken","type":"error"},{"inputs":[],"name":"BalanceQueryForZeroAddress","type":"error"},{"inputs":[],"name":"MintERC2309QuantityExceedsLimit","type":"error"},{"inputs":[],"name":"MintToZeroAddress","type":"error"},{"inputs":[],"name":"MintZeroQuantity","type":"error"},{"inputs":[],"name":"NotCompatibleWithSpotMints","type":"error"},{"inputs":[{"internalType":"address","name":"owner","type":"address"}],"name":"OwnableInvalidOwner","type":"error"},{"inputs":[{"internalType":"address","name":"account","type":"address"}],"name":"OwnableUnauthorizedAccount","type":"error"},{"inputs":[],"name":"OwnerQueryForNonexistentToken","type":"error"},{"inputs":[],"name":"OwnershipNotInitializedForExtraData","type":"error"},{"inputs":[],"name":"SequentialMintExceedsLimit","type":"error"},{"inputs":[],"name":"SequentialUpToTooSmall","type":"error"},{"inputs":[],"name":"SpotMintTokenIdTooSmall","type":"error"},{"inputs":[],"name":"TokenAlreadyExists","type":"error"},{"inputs":[],"name":"TransferCallerNotOwnerNorApproved","type":"error"},{"inputs":[],"name":"TransferFromIncorrectOwner","type":"error"},{"inputs":[],"name":"TransferToNonERC721ReceiverImplementer","type":"error"},{"inputs":[],"name":"TransferToZeroAddress","type":"error"},{"inputs":[],"name":"URIQueryForNonexistentToken","type":"error"},{"anonymous":false,"inputs":[{"indexed":true,"internalType":"address","name":"owner","type":"address"},{"indexed":true,"internalType":"address","name":"approved","type":"address"},{"indexed":true,"internalType":"uint256","name":"tokenId","type":"uint256"}],"name":"Approval","type":"event"},{"anonymous":false,"inputs":[{"indexed":true,"internalType":"address","name":"owner","type":"address"},{"indexed":true,"internalType":"address","name":"operator","type":"address"},{"indexed":false,"internalType":"bool","name":"approved","type":"bool"}],"name":"ApprovalForAll","type":"event"},{"anonymous":false,"inputs":[{"indexed":true,"internalType":"uint256","name":"fromTokenId","type":"uint256"},{"indexed":false,"internalType":"uint256","name":"toTokenId","type":"uint256"},{"indexed":true,"internalType":"address","name":"from","type":"address"},{"indexed":true,"internalType":"address","name":"to","type":"address"}],"name":"ConsecutiveTransfer","type":"event"},{"anonymous":false,"inputs":[{"indexed":true,"internalType":"address","name":"previousOwner","type":"address"},{"indexed":true,"internalType":"address","name":"newOwner","type":"address"}],"name":"OwnershipTransferred","type":"event"},{"anonymous":false,"inputs":[{"indexed":true,"internalType":"bytes32","name":"role","type":"bytes32"},{"indexed":true,"internalType":"bytes32","name":"previousAdminRole","type":"bytes32"},{"indexed":true,"internalType":"bytes32","name":"newAdminRole","type":"bytes32"}],"name":"RoleAdminChanged","type":"event"},{"anonymous":false,"inputs":[{"indexed":true,"internalType":"bytes32","name":"role","type":"bytes32"},{"indexed":true,"internalType":"address","name":"account","type":"address"},{"indexed":true,"internalType":"address","name":"sender","type":"address"}],"name":"RoleGranted","type":"event"},{"anonymous":false,"inputs":[{"indexed":true,"internalType":"bytes32","name":"role","type":"bytes32"},{"indexed":true,"internalType":"address","name":"account","type":"address"},{"indexed":true,"internalType":"address","name":"sender","type":"address"}],"name":"RoleRevoked","type":"event"},{"anonymous":false,"inputs":[{"indexed":true,"internalType":"address","name":"from","type":"address"},{"indexed":true,"internalType":"address","name":"to","type":"address"},{"indexed":true,"internalType":"uint256","name":"tokenId","type":"uint256"}],"name":"Transfer","type":"event"},{"inputs":[],"name":"DEFAULT_ADMIN_ROLE","outputs":[{"internalType":"bytes32","name":"","type":"bytes32"}],"stateMutability":"view","type":"function"},{"inputs":[],"name":"MINTER_ROLE","outputs":[{"internalType":"bytes32","name":"","type":"bytes32"}],"stateMutability":"view","type":"function"},{"inputs":[{"internalType":"address","name":"to","type":"address"},{"internalType":"uint256","name":"tokenId","type":"uint256"}],"name":"approve","outputs":[],"stateMutability":"payable","type":"function"},{"inputs":[{"internalType":"address","name":"owner","type":"address"}],"name":"balanceOf","outputs":[{"internalType":"uint256","name":"","type":"uint256"}],"stateMutability":"view","type":"function"},{"inputs":[],"name":"bronzeTierUnlock","outputs":[{"internalType":"uint256","name":"","type":"uint256"}],"stateMutability":"view","type":"function"},{"inputs":[{"internalType":"uint256","name":"tokenId","type":"uint256"}],"name":"getApproved","outputs":[{"internalType":"address","name":"","type":"address"}],"stateMutability":"view","type":"function"},{"inputs":[{"internalType":"uint256","name":"tokenId","type":"uint256"}],"name":"getDanceMove","outputs":[{"internalType":"uint256","name":"","type":"uint256"}],"stateMutability":"view","type":"function"},{"inputs":[{"internalType":"bytes32","name":"role","type":"bytes32"}],"name":"getRoleAdmin","outputs":[{"internalType":"bytes32","name":"","type":"bytes32"}],"stateMutability":"view","type":"function"},{"inputs":[],"name":"goldTierUnlock","outputs":[{"internalType":"uint256","name":"","type":"uint256"}],"stateMutability":"view","type":"function"},{"inputs":[{"internalType":"bytes32","name":"role","type":"bytes32"},{"internalType":"address","name":"account","type":"address"}],"name":"grantRole","outputs":[],"stateMutability":"nonpayable","type":"function"},{"inputs":[{"internalType":"bytes32","name":"role","type":"bytes32"},{"internalType":"address","name":"account","type":"address"}],"name":"hasRole","outputs":[{"internalType":"bool","name":"","type":"bool"}],"stateMutability":"view","type":"function"},{"inputs":[{"internalType":"address","name":"owner","type":"address"},{"internalType":"address","name":"operator","type":"address"}],"name":"isApprovedForAll","outputs":[{"internalType":"bool","name":"","type":"bool"}],"stateMutability":"view","type":"function"},{"inputs":[],"name":"lock","outputs":[],"stateMutability":"nonpayable","type":"function"},{"inputs":[],"name":"locked","outputs":[{"internalType":"bool","name":"","type":"bool"}],"stateMutability":"view","type":"function"},{"inputs":[],"name":"lockedBackgroundURI","outputs":[{"internalType":"string","name":"","type":"string"}],"stateMutability":"view","type":"function"},{"inputs":[],"name":"lockedGlbURI","outputs":[{"internalType":"string","name":"","type":"string"}],"stateMutability":"view","type":"function"},{"inputs":[],"name":"maxSupply","outputs":[{"internalType":"uint256","name":"","type":"uint256"}],"stateMutability":"view","type":"function"},{"inputs":[],"name":"metadataURI","outputs":[{"internalType":"string","name":"","type":"string"}],"stateMutability":"view","type":"function"},{"inputs":[{"internalType":"uint256","name":"quantity","type":"uint256"}],"name":"mint","outputs":[],"stateMutability":"payable","type":"function"},{"inputs":[],"name":"name","outputs":[{"internalType":"string","name":"","type":"string"}],"stateMutability":"view","type":"function"},{"inputs":[],"name":"owner","outputs":[{"internalType":"address","name":"","type":"address"}],"stateMutability":"view","type":"function"},{"inputs":[{"internalType":"uint256","name":"tokenId","type":"uint256"}],"name":"ownerOf","outputs":[{"internalType":"address","name":"","type":"address"}],"stateMutability":"view","type":"function"},{"inputs":[],"name":"pricePerTokenMint","outputs":[{"internalType":"uint256","name":"","type":"uint256"}],"stateMutability":"view","type":"function"},{"inputs":[],"name":"privateKnowledgeLink","outputs":[{"internalType":"string","name":"","type":"string"}],"stateMutability":"view","type":"function"},{"inputs":[],"name":"publicKnowledgeLink","outputs":[{"internalType":"string","name":"","type":"string"}],"stateMutability":"view","type":"function"},{"inputs":[],"name":"renounceOwnership","outputs":[],"stateMutability":"nonpayable","type":"function"},{"inputs":[{"internalType":"bytes32","name":"role","type":"bytes32"},{"internalType":"address","name":"callerConfirmation","type":"address"}],"name":"renounceRole","outputs":[],"stateMutability":"nonpayable","type":"function"},{"inputs":[{"internalType":"bytes32","name":"role","type":"bytes32"},{"internalType":"address","name":"account","type":"address"}],"name":"revokeRole","outputs":[],"stateMutability":"nonpayable","type":"function"},{"inputs":[{"internalType":"address","name":"from","type":"address"},{"internalType":"address","name":"to","type":"address"},{"internalType":"uint256","name":"tokenId","type":"uint256"}],"name":"safeTransferFrom","outputs":[],"stateMutability":"payable","type":"function"},{"inputs":[{"internalType":"address","name":"from","type":"address"},{"internalType":"address","name":"to","type":"address"},{"internalType":"uint256","name":"tokenId","type":"uint256"},{"internalType":"bytes","name":"_data","type":"bytes"}],"name":"safeTransferFrom","outputs":[],"stateMutability":"payable","type":"function"},{"inputs":[{"internalType":"uint256","name":"","type":"uint256"}],"name":"scoreboard","outputs":[{"internalType":"uint256","name":"","type":"uint256"}],"stateMutability":"view","type":"function"},{"inputs":[{"internalType":"address","name":"operator","type":"address"},{"internalType":"bool","name":"approved","type":"bool"}],"name":"setApprovalForAll","outputs":[],"stateMutability":"nonpayable","type":"function"},{"inputs":[],"name":"silverTierUnlock","outputs":[{"internalType":"uint256","name":"","type":"uint256"}],"stateMutability":"view","type":"function"},{"inputs":[{"internalType":"bytes4","name":"interfaceId","type":"bytes4"}],"name":"supportsInterface","outputs":[{"internalType":"bool","name":"","type":"bool"}],"stateMutability":"view","type":"function"},{"inputs":[],"name":"symbol","outputs":[{"internalType":"string","name":"","type":"string"}],"stateMutability":"view","type":"function"},{"inputs":[{"internalType":"uint256","name":"tokenId","type":"uint256"}],"name":"tokenURI","outputs":[{"internalType":"string","name":"","type":"string"}],"stateMutability":"view","type":"function"},{"inputs":[],"name":"tokenURILink","outputs":[{"internalType":"string","name":"","type":"string"}],"stateMutability":"view","type":"function"},{"inputs":[],"name":"totalSupply","outputs":[{"internalType":"uint256","name":"result","type":"uint256"}],"stateMutability":"view","type":"function"},{"inputs":[{"internalType":"address","name":"from","type":"address"},{"internalType":"address","name":"to","type":"address"},{"internalType":"uint256","name":"tokenId","type":"uint256"}],"name":"transferFrom","outputs":[],"stateMutability":"payable","type":"function"},{"inputs":[{"internalType":"address","name":"newOwner","type":"address"}],"name":"transferOwnership","outputs":[],"stateMutability":"nonpayable","type":"function"},{"inputs":[],"name":"unlockedBackgroundURI","outputs":[{"internalType":"string","name":"","type":"string"}],"stateMutability":"view","type":"function"},{"inputs":[],"name":"unlockedGlbURI","outputs":[{"internalType":"string","name":"","type":"string"}],"stateMutability":"view","type":"function"},{"inputs":[{"internalType":"string","name":"_lockedBackgroundURI","type":"string"}],"name":"updateLockedBackground","outputs":[],"stateMutability":"nonpayable","type":"function"},{"inputs":[{"internalType":"string","name":"_lockedGlbURI","type":"string"}],"name":"updateLockedGlb","outputs":[],"stateMutability":"nonpayable","type":"function"},{"inputs":[{"internalType":"string","name":"_unlockedGlbURI","type":"string"},{"internalType":"string","name":"_unlockedBackgroundURI","type":"string"},{"internalType":"string","name":"_lockedGlbURI","type":"string"},{"internalType":"string","name":"_lockedBackgroundURI","type":"string"},{"internalType":"string","name":"_publicKnowlegeURI","type":"string"},{"internalType":"string","name":"_privateKnowledgeURI","type":"string"},{"internalType":"string","name":"_metadataURI","type":"string"}],"name":"updateMetadata","outputs":[],"stateMutability":"nonpayable","type":"function"},{"inputs":[{"internalType":"uint256","name":"nftId","type":"uint256"},{"internalType":"uint256","name":"total","type":"uint256"}],"name":"updateScoreboard","outputs":[],"stateMutability":"nonpayable","type":"function"},{"inputs":[{"internalType":"string","name":"_unlockedBackgroundURI","type":"string"}],"name":"updateUnlockedBackground","outputs":[],"stateMutability":"nonpayable","type":"function"},{"inputs":[{"internalType":"string","name":"_unlockedGlbURI","type":"string"}],"name":"updateUnlockedGlb","outputs":[],"stateMutability":"nonpayable","type":"function"}],"evm":{"bytecode":{"linkReferences":{},"object":"60806040526000600c60006101000a81548160ff021916908315150217905550600a601755606460185560c86019553480156200003b57600080fd5b5060405162004951380380620049518339818101604052810190620000619190620006d0565b338888816002908162000075919062000a18565b50806003908162000087919062000a18565b50620000986200022960201b60201c565b600081905550620000ae6200022960201b60201c565b620000be6200022e60201b60201c565b1015620000de57620000dd63fed8210f60e01b6200025660201b60201c565b5b5050600073ffffffffffffffffffffffffffffffffffffffff168173ffffffffffffffffffffffffffffffffffffffff1603620001555760006040517f1e4fbdf70000000000000000000000000000000000000000000000000000000081526004016200014c919062000b10565b60405180910390fd5b62000166816200026060201b60201c565b5085600d81905550620001a07ff99f54ba88613d946bdc79767a2d779e0d744d1b5b02b85576a5b76d8e372355856200032660201b60201c565b5084601681905550600083118015620001b857508282115b8015620001c457508181115b62000206576040517f08c379a0000000000000000000000000000000000000000000000000000000008152600401620001fd9062000b8e565b60405180910390fd5b826017819055508160188190555080601981905550505050505050505062000bb0565b600090565b60007fffffffffffffffffffffffffffffffffffffffffffffffffffffffffffffffff905090565b8060005260046000fd5b6000600960009054906101000a900473ffffffffffffffffffffffffffffffffffffffff16905081600960006101000a81548173ffffffffffffffffffffffffffffffffffffffff021916908373ffffffffffffffffffffffffffffffffffffffff1602179055508173ffffffffffffffffffffffffffffffffffffffff168173ffffffffffffffffffffffffffffffffffffffff167f8be0079c531659141344cd1fd0a4f28419497f9722a3daafe3b4186f6b6457e060405160405180910390a35050565b60006200033a83836200042a60201b60201c565b6200041f576001600a600085815260200190815260200160002060000160008473ffffffffffffffffffffffffffffffffffffffff1673ffffffffffffffffffffffffffffffffffffffff16815260200190815260200160002060006101000a81548160ff021916908315150217905550620003bb6200049560201b60201c565b73ffffffffffffffffffffffffffffffffffffffff168273ffffffffffffffffffffffffffffffffffffffff16847f2f8788117e7eff1d82e926ec794901d17c78024a50270940304540a733656f0d60405160405180910390a46001905062000424565b600090505b92915050565b6000600a600084815260200190815260200160002060000160008373ffffffffffffffffffffffffffffffffffffffff1673ffffffffffffffffffffffffffffffffffffffff16815260200190815260200160002060009054906101000a900460ff16905092915050565b600033905090565b6000604051905090565b600080fd5b600080fd5b600080fd5b600080fd5b6000601f19601f8301169050919050565b7f4e487b7100000000000000000000000000000000000000000000000000000000600052604160045260246000fd5b6200050682620004bb565b810181811067ffffffffffffffff82111715620005285762000527620004cc565b5b80604052505050565b60006200053d6200049d565b90506200054b8282620004fb565b919050565b600067ffffffffffffffff8211156200056e576200056d620004cc565b5b6200057982620004bb565b9050602081019050919050565b60005b83811015620005a657808201518184015260208101905062000589565b60008484015250505050565b6000620005c9620005c38462000550565b62000531565b905082815260208101848484011115620005e857620005e7620004b6565b5b620005f584828562000586565b509392505050565b600082601f830112620006155762000614620004b1565b5b815162000627848260208601620005b2565b91505092915050565b6000819050919050565b620006458162000630565b81146200065157600080fd5b50565b60008151905062000665816200063a565b92915050565b600073ffffffffffffffffffffffffffffffffffffffff82169050919050565b600062000698826200066b565b9050919050565b620006aa816200068b565b8114620006b657600080fd5b50565b600081519050620006ca816200069f565b92915050565b600080600080600080600080610100898b031215620006f457620006f3620004a7565b5b600089015167ffffffffffffffff811115620007155762000714620004ac565b5b620007238b828c01620005fd565b985050602089015167ffffffffffffffff811115620007475762000746620004ac565b5b620007558b828c01620005fd565b9750506040620007688b828c0162000654565b96505060606200077b8b828c0162000654565b95505060806200078e8b828c01620006b9565b94505060a0620007a18b828c0162000654565b93505060c0620007b48b828c0162000654565b92505060e0620007c78b828c0162000654565b9150509295985092959890939650565b600081519050919050565b7f4e487b7100000000000000000000000000000000000000000000000000000000600052602260045260246000fd5b600060028204905060018216806200082a57607f821691505b60208210810362000840576200083f620007e2565b5b50919050565b60008190508160005260206000209050919050565b60006020601f8301049050919050565b600082821b905092915050565b600060088302620008aa7fffffffffffffffffffffffffffffffffffffffffffffffffffffffffffffffff826200086b565b620008b686836200086b565b95508019841693508086168417925050509392505050565b6000819050919050565b6000620008f9620008f3620008ed8462000630565b620008ce565b62000630565b9050919050565b6000819050919050565b6200091583620008d8565b6200092d620009248262000900565b84845462000878565b825550505050565b600090565b6200094462000935565b620009518184846200090a565b505050565b5b8181101562000979576200096d6000826200093a565b60018101905062000957565b5050565b601f821115620009c857620009928162000846565b6200099d846200085b565b81016020851015620009ad578190505b620009c5620009bc856200085b565b83018262000956565b50505b505050565b600082821c905092915050565b6000620009ed60001984600802620009cd565b1980831691505092915050565b600062000a088383620009da565b9150826002028217905092915050565b62000a2382620007d7565b67ffffffffffffffff81111562000a3f5762000a3e620004cc565b5b62000a4b825462000811565b62000a588282856200097d565b600060209050601f83116001811462000a90576000841562000a7b578287015190505b62000a878582620009fa565b86555062000af7565b601f19841662000aa08662000846565b60005b8281101562000aca5784890151825560018201915060208501945060208101905062000aa3565b8683101562000aea578489015162000ae6601f891682620009da565b8355505b6001600288020188555050505b505050505050565b62000b0a816200068b565b82525050565b600060208201905062000b27600083018462000aff565b92915050565b600082825260208201905092915050565b7f696e76616c6964206c6576656c20636f6e66696775726174696f6e0000000000600082015250565b600062000b76601b8362000b2d565b915062000b838262000b3e565b602082019050919050565b6000602082019050818103600083015262000ba98162000b67565b9050919050565b613d918062000bc06000396000f3fe6080604052600436106102935760003560e01c80638d9480aa1161015a578063c87b56dd116100c1578063d75ffdcf1161007a578063d75ffdcf146109c3578063e985e9c514610a00578063f2ba4fe314610a3d578063f2fde38b14610a68578063f83d08ba14610a91578063fcccc0b614610aa857610293565b8063c87b56dd146108b3578063cf309012146108f0578063d186f26f1461091b578063d539139314610944578063d547741f1461096f578063d5abeb011461099857610293565b8063a0e301ea11610113578063a0e301ea146107c2578063a217fddf146107ed578063a22cb46514610818578063a8ab7e5714610841578063add4c1d91461086c578063b88d4fde1461089757610293565b80638d9480aa146106c15780638da5cb5b146106ea5780638e63aa0c1461071557806391d148541461073e57806395d89b411461077b578063a0712d68146107a657610293565b806334b72f22116101fe5780634ecfcebb116101b75780634ecfcebb146105b15780636352211e146105da57806370a0823114610617578063715018a6146106545780637dfce4ba1461066b5780638c17bb9f1461069657610293565b806334b72f22146104b057806335213f4f146104db57806336568abe146105045780633d2a9b861461052d57806342842e0e14610558578063484413651461057457610293565b806318160ddd1161025057806318160ddd146103af5780631971f69b146103da57806323b872dd14610403578063248a9ca31461041f578063286c1d301461045c5780632f2ff15d1461048757610293565b806301ffc9a71461029857806303ee438c146102d557806306fdde0314610300578063081812fc1461032b578063095ea7b31461036857806312b0e45514610384575b600080fd5b3480156102a457600080fd5b506102bf60048036038101906102ba9190612ba7565b610ad3565b6040516102cc9190612bef565b60405180910390f35b3480156102e157600080fd5b506102ea610ae5565b6040516102f79190612c9a565b60405180910390f35b34801561030c57600080fd5b50610315610b73565b6040516103229190612c9a565b60405180910390f35b34801561033757600080fd5b50610352600480360381019061034d9190612cf2565b610c05565b60405161035f9190612d60565b60405180910390f35b610382600480360381019061037d9190612da7565b610c63565b005b34801561039057600080fd5b50610399610c73565b6040516103a69190612c9a565b60405180910390f35b3480156103bb57600080fd5b506103c4610d01565b6040516103d19190612df6565b60405180910390f35b3480156103e657600080fd5b5061040160048036038101906103fc9190612f46565b610d4e565b005b61041d60048036038101906104189190612f8f565b610db9565b005b34801561042b57600080fd5b5061044660048036038101906104419190613018565b61107a565b6040516104539190613054565b60405180910390f35b34801561046857600080fd5b5061047161109a565b60405161047e9190612c9a565b60405180910390f35b34801561049357600080fd5b506104ae60048036038101906104a9919061306f565b611128565b005b3480156104bc57600080fd5b506104c561114a565b6040516104d29190612c9a565b60405180910390f35b3480156104e757600080fd5b5061050260048036038101906104fd9190612f46565b6111d8565b005b34801561051057600080fd5b5061052b6004803603810190610526919061306f565b611243565b005b34801561053957600080fd5b506105426112be565b60405161054f9190612c9a565b60405180910390f35b610572600480360381019061056d9190612f8f565b61134c565b005b34801561058057600080fd5b5061059b60048036038101906105969190612cf2565b61136c565b6040516105a89190612df6565b60405180910390f35b3480156105bd57600080fd5b506105d860048036038101906105d391906130af565b611432565b005b3480156105e657600080fd5b5061060160048036038101906105fc9190612cf2565b611516565b60405161060e9190612d60565b60405180910390f35b34801561062357600080fd5b5061063e600480360381019061063991906130ef565b611528565b60405161064b9190612df6565b60405180910390f35b34801561066057600080fd5b506106696115bf565b005b34801561067757600080fd5b506106806115d3565b60405161068d9190612df6565b60405180910390f35b3480156106a257600080fd5b506106ab6115d9565b6040516106b89190612c9a565b60405180910390f35b3480156106cd57600080fd5b506106e860048036038101906106e39190612f46565b611667565b005b3480156106f657600080fd5b506106ff6116d2565b60405161070c9190612d60565b60405180910390f35b34801561072157600080fd5b5061073c60048036038101906107379190612f46565b6116fc565b005b34801561074a57600080fd5b506107656004803603810190610760919061306f565b611767565b6040516107729190612bef565b60405180910390f35b34801561078757600080fd5b506107906117d2565b60405161079d9190612c9a565b60405180910390f35b6107c060048036038101906107bb9190612cf2565b611864565b005b3480156107ce57600080fd5b506107d761197e565b6040516107e49190612df6565b60405180910390f35b3480156107f957600080fd5b50610802611984565b60405161080f9190613054565b60405180910390f35b34801561082457600080fd5b5061083f600480360381019061083a9190613148565b61198b565b005b34801561084d57600080fd5b50610856611a96565b6040516108639190612df6565b60405180910390f35b34801561087857600080fd5b50610881611a9c565b60405161088e9190612c9a565b60405180910390f35b6108b160048036038101906108ac9190613229565b611b2a565b005b3480156108bf57600080fd5b506108da60048036038101906108d59190612cf2565b611b7c565b6040516108e79190612c9a565b60405180910390f35b3480156108fc57600080fd5b50610905611bf0565b6040516109129190612bef565b60405180910390f35b34801561092757600080fd5b50610942600480360381019061093d91906132ac565b611c03565b005b34801561095057600080fd5b50610959611cdc565b6040516109669190613054565b60405180910390f35b34801561097b57600080fd5b506109966004803603810190610991919061306f565b611d00565b005b3480156109a457600080fd5b506109ad611d22565b6040516109ba9190612df6565b60405180910390f35b3480156109cf57600080fd5b506109ea60048036038101906109e59190612cf2565b611d28565b6040516109f79190612df6565b60405180910390f35b348015610a0c57600080fd5b50610a276004803603810190610a229190613412565b611d40565b604051610a349190612bef565b60405180910390f35b348015610a4957600080fd5b50610a52611dd4565b604051610a5f9190612df6565b60405180910390f35b348015610a7457600080fd5b50610a8f6004803603810190610a8a91906130ef565b611dda565b005b348015610a9d57600080fd5b50610aa6611e60565b005b348015610ab457600080fd5b50610abd611ed5565b604051610aca9190612c9a565b60405180910390f35b6000610ade82611f63565b9050919050565b60158054610af290613481565b80601f0160208091040260200160405190810160405280929190818152602001828054610b1e90613481565b8015610b6b5780601f10610b4057610100808354040283529160200191610b6b565b820191906000526020600020905b815481529060010190602001808311610b4e57829003601f168201915b505050505081565b606060028054610b8290613481565b80601f0160208091040260200160405190810160405280929190818152602001828054610bae90613481565b8015610bfb5780601f10610bd057610100808354040283529160200191610bfb565b820191906000526020600020905b815481529060010190602001808311610bde57829003601f168201915b5050505050905090565b6000610c1082611fdd565b610c2557610c2463cf4700e460e01b612089565b5b6006600083815260200190815260200160002060000160009054906101000a900473ffffffffffffffffffffffffffffffffffffffff169050919050565b610c6f82826001612093565b5050565b60128054610c8090613481565b80601f0160208091040260200160405190810160405280929190818152602001828054610cac90613481565b8015610cf95780601f10610cce57610100808354040283529160200191610cf9565b820191906000526020600020905b815481529060010190602001808311610cdc57829003601f168201915b505050505081565b6000610d0b6121c2565b600154600054030390507fffffffffffffffffffffffffffffffffffffffffffffffffffffffffffffffff610d3e6121c7565b14610d4b57600854810190505b90565b610d566121ef565b600c60009054906101000a900460ff1615610da6576040517f08c379a0000000000000000000000000000000000000000000000000000000008152600401610d9d906134fe565b60405180910390fd5b80600e9081610db591906136ca565b5050565b6000610dc482612276565b905073ffffffffffffffffffffffffffffffffffffffff8473ffffffffffffffffffffffffffffffffffffffff161693508373ffffffffffffffffffffffffffffffffffffffff168173ffffffffffffffffffffffffffffffffffffffff1614610e3957610e3863a114810060e01b612089565b5b600080610e458461238f565b91509150610e5b8187610e566123b6565b6123be565b610e8657610e7086610e6b6123b6565b611d40565b610e8557610e846359c896be60e01b612089565b5b5b610e938686866001612402565b8015610e9e57600082555b600560008773ffffffffffffffffffffffffffffffffffffffff1673ffffffffffffffffffffffffffffffffffffffff168152602001908152602001600020600081546001900391905081905550600560008673ffffffffffffffffffffffffffffffffffffffff1673ffffffffffffffffffffffffffffffffffffffff1681526020019081526020016000206000815460010191905081905550610f6c85610f48888887612408565b7c020000000000000000000000000000000000000000000000000000000017612430565b600460008681526020019081526020016000208190555060007c0200000000000000000000000000000000000000000000000000000000841603610ff25760006001850190506000600460008381526020019081526020016000205403610ff0576000548114610fef578360046000838152602001908152602001600020819055505b5b505b600073ffffffffffffffffffffffffffffffffffffffff8673ffffffffffffffffffffffffffffffffffffffff161690508481887fddf252ad1be2c89b69c2b068fc378daa952ba7f163c4a11628f55a4df523b3ef600080a4600081036110645761106363ea553b3460e01b612089565b5b611071878787600161245b565b50505050505050565b6000600a6000838152602001908152602001600020600101549050919050565b601180546110a790613481565b80601f01602080910402602001604051908101604052809291908181526020018280546110d390613481565b80156111205780601f106110f557610100808354040283529160200191611120565b820191906000526020600020905b81548152906001019060200180831161110357829003601f168201915b505050505081565b6111318261107a565b61113a81612461565b6111448383612475565b50505050565b6014805461115790613481565b80601f016020809104026020016040519081016040528092919081815260200182805461118390613481565b80156111d05780601f106111a5576101008083540402835291602001916111d0565b820191906000526020600020905b8154815290600101906020018083116111b357829003601f168201915b505050505081565b6111e06121ef565b600c60009054906101000a900460ff1615611230576040517f08c379a0000000000000000000000000000000000000000000000000000000008152600401611227906134fe565b60405180910390fd5b806011908161123f91906136ca565b5050565b61124b612567565b73ffffffffffffffffffffffffffffffffffffffff168173ffffffffffffffffffffffffffffffffffffffff16146112af576040517f6697b23200000000000000000000000000000000000000000000000000000000815260040160405180910390fd5b6112b9828261256f565b505050565b600f80546112cb90613481565b80601f01602080910402602001604051908101604052809291908181526020018280546112f790613481565b80156113445780601f1061131957610100808354040283529160200191611344565b820191906000526020600020905b81548152906001019060200180831161132757829003601f168201915b505050505081565b61136783838360405180602001604052806000815250611b2a565b505050565b600061137782611fdd565b6113b6576040517f08c379a00000000000000000000000000000000000000000000000000000000081526004016113ad906137e8565b60405180910390fd5b601754600b60008481526020019081526020016000205410156113dc576000905061142d565b601854600b6000848152602001908152602001600020541015611402576001905061142d565b601954600b6000848152602001908152602001600020541015611428576002905061142d565b600390505b919050565b7ff99f54ba88613d946bdc79767a2d779e0d744d1b5b02b85576a5b76d8e37235561145c81612461565b81600b600085815260200190815260200160002054106114b1576040517f08c379a00000000000000000000000000000000000000000000000000000000081526004016114a89061387a565b60405180910390fd5b6114ba83611fdd565b6114f9576040517f08c379a00000000000000000000000000000000000000000000000000000000081526004016114f0906138e6565b60405180910390fd5b81600b600085815260200190815260200160002081905550505050565b600061152182612276565b9050919050565b60008073ffffffffffffffffffffffffffffffffffffffff168273ffffffffffffffffffffffffffffffffffffffff160361156e5761156d638f4eb60460e01b612089565b5b67ffffffffffffffff600560008473ffffffffffffffffffffffffffffffffffffffff1673ffffffffffffffffffffffffffffffffffffffff16815260200190815260200160002054169050919050565b6115c76121ef565b6115d16000612662565b565b60175481565b601380546115e690613481565b80601f016020809104026020016040519081016040528092919081815260200182805461161290613481565b801561165f5780601f106116345761010080835404028352916020019161165f565b820191906000526020600020905b81548152906001019060200180831161164257829003601f168201915b505050505081565b61166f6121ef565b600c60009054906101000a900460ff16156116bf576040517f08c379a00000000000000000000000000000000000000000000000000000000081526004016116b6906134fe565b60405180910390fd5b80601090816116ce91906136ca565b5050565b6000600960009054906101000a900473ffffffffffffffffffffffffffffffffffffffff16905090565b6117046121ef565b600c60009054906101000a900460ff1615611754576040517f08c379a000000000000000000000000000000000000000000000000000000000815260040161174b906134fe565b60405180910390fd5b80600f908161176391906136ca565b5050565b6000600a600084815260200190815260200160002060000160008373ffffffffffffffffffffffffffffffffffffffff1673ffffffffffffffffffffffffffffffffffffffff16815260200190815260200160002060009054906101000a900460ff16905092915050565b6060600380546117e190613481565b80601f016020809104026020016040519081016040528092919081815260200182805461180d90613481565b801561185a5780601f1061182f5761010080835404028352916020019161185a565b820191906000526020600020905b81548152906001019060200180831161183d57829003601f168201915b5050505050905090565b600d5461186f612728565b10801561187e57506000600d54115b6118bd576040517f08c379a00000000000000000000000000000000000000000000000000000000081526004016118b490613952565b60405180910390fd5b600d54816118c9612728565b6118d391906139a1565b111580156118e357506000600d54115b611922576040517f08c379a000000000000000000000000000000000000000000000000000000000815260040161191990613a21565b60405180910390fd5b806016546119309190613a41565b3414611971576040517f08c379a000000000000000000000000000000000000000000000000000000000815260040161196890613af5565b60405180910390fd5b61197b3382612771565b50565b60185481565b6000801b81565b80600760006119986123b6565b73ffffffffffffffffffffffffffffffffffffffff1673ffffffffffffffffffffffffffffffffffffffff16815260200190815260200160002060008473ffffffffffffffffffffffffffffffffffffffff1673ffffffffffffffffffffffffffffffffffffffff16815260200190815260200160002060006101000a81548160ff0219169083151502179055508173ffffffffffffffffffffffffffffffffffffffff16611a456123b6565b73ffffffffffffffffffffffffffffffffffffffff167f17307eab39ab6107e8899845ad3d59bd9653f200f220920489ca2b5937696c3183604051611a8a9190612bef565b60405180910390a35050565b60195481565b60108054611aa990613481565b80601f0160208091040260200160405190810160405280929190818152602001828054611ad590613481565b8015611b225780601f10611af757610100808354040283529160200191611b22565b820191906000526020600020905b815481529060010190602001808311611b0557829003601f168201915b505050505081565b611b35848484610db9565b60008373ffffffffffffffffffffffffffffffffffffffff163b14611b7657611b60848484846128f7565b611b7557611b7463d1a57ed660e01b612089565b5b5b50505050565b6060611b8782611fdd565b611b9c57611b9b63a14c4b5060e01b612089565b5b600060158054611bab90613481565b905003611bc75760405180602001604052806000815250611be9565b6015604051602001611bd99190613ba3565b6040516020818303038152906040525b9050919050565b600c60009054906101000a900460ff1681565b611c0b6121ef565b600c60009054906101000a900460ff1615611c5b576040517f08c379a0000000000000000000000000000000000000000000000000000000008152600401611c52906134fe565b60405180910390fd5b8360119081611c6a91906136ca565b508460109081611c7a91906136ca565b5085600f9081611c8a91906136ca565b5086600e9081611c9a91906136ca565b508260139081611caa91906136ca565b508160149081611cba91906136ca565b508060159081611cca91906136ca565b50611cd3611e60565b50505050505050565b7ff99f54ba88613d946bdc79767a2d779e0d744d1b5b02b85576a5b76d8e37235581565b611d098261107a565b611d1281612461565b611d1c838361256f565b50505050565b600d5481565b600b6020528060005260406000206000915090505481565b6000600760008473ffffffffffffffffffffffffffffffffffffffff1673ffffffffffffffffffffffffffffffffffffffff16815260200190815260200160002060008373ffffffffffffffffffffffffffffffffffffffff1673ffffffffffffffffffffffffffffffffffffffff16815260200190815260200160002060009054906101000a900460ff16905092915050565b60165481565b611de26121ef565b600073ffffffffffffffffffffffffffffffffffffffff168173ffffffffffffffffffffffffffffffffffffffff1603611e545760006040517f1e4fbdf7000000000000000000000000000000000000000000000000000000008152600401611e4b9190612d60565b60405180910390fd5b611e5d81612662565b50565b611e686121ef565b600c60009054906101000a900460ff1615611eb8576040517f08c379a0000000000000000000000000000000000000000000000000000000008152600401611eaf90613c06565b60405180910390fd5b6001600c60006101000a81548160ff021916908315150217905550565b600e8054611ee290613481565b80601f0160208091040260200160405190810160405280929190818152602001828054611f0e90613481565b8015611f5b5780601f10611f3057610100808354040283529160200191611f5b565b820191906000526020600020905b815481529060010190602001808311611f3e57829003601f168201915b505050505081565b60007f7965db0b000000000000000000000000000000000000000000000000000000007bffffffffffffffffffffffffffffffffffffffffffffffffffffffff1916827bffffffffffffffffffffffffffffffffffffffffffffffffffffffff19161480611fd65750611fd582612a26565b5b9050919050565b600081611fe86121c2565b1161208357611ff56121c7565b82111561201f576120186004600084815260200190815260200160002054612a90565b9050612084565b6000548210156120825760005b600060046000858152602001908152602001600020549150810361205b578261205490613c26565b925061202c565b60007c01000000000000000000000000000000000000000000000000000000008216149150505b5b5b919050565b8060005260046000fd5b600061209e83611516565b90508180156120e057508073ffffffffffffffffffffffffffffffffffffffff166120c76123b6565b73ffffffffffffffffffffffffffffffffffffffff1614155b1561210c576120f6816120f16123b6565b611d40565b61210b5761210a63cfb3b94260e01b612089565b5b5b836006600085815260200190815260200160002060000160006101000a81548173ffffffffffffffffffffffffffffffffffffffff021916908373ffffffffffffffffffffffffffffffffffffffff160217905550828473ffffffffffffffffffffffffffffffffffffffff168273ffffffffffffffffffffffffffffffffffffffff167f8c5be1e5ebec7d5bd14f71427d1e84f3dd0314c0f7b2291e5b200ac8c7c3b92560405160405180910390a450505050565b600090565b60007fffffffffffffffffffffffffffffffffffffffffffffffffffffffffffffffff905090565b6121f7612567565b73ffffffffffffffffffffffffffffffffffffffff166122156116d2565b73ffffffffffffffffffffffffffffffffffffffff161461227457612238612567565b6040517f118cdaa700000000000000000000000000000000000000000000000000000000815260040161226b9190612d60565b60405180910390fd5b565b6000816122816121c2565b1161237957600460008381526020019081526020016000205490506122a46121c7565b8211156122c9576122b481612a90565b61238a576122c863df2d9b4260e01b612089565b5b600081036123505760005482106122eb576122ea63df2d9b4260e01b612089565b5b5b6004600083600190039350838152602001908152602001600020549050600081031561234b5760007c01000000000000000000000000000000000000000000000000000000008216031561238a5761234a63df2d9b4260e01b612089565b5b6122ec565b60007c01000000000000000000000000000000000000000000000000000000008216031561238a575b61238963df2d9b4260e01b612089565b5b919050565b60008060006006600085815260200190815260200160002090508092508254915050915091565b600033905090565b600073ffffffffffffffffffffffffffffffffffffffff8316925073ffffffffffffffffffffffffffffffffffffffff821691508382148383141790509392505050565b50505050565b60008060e883901c905060e861241f868684612ad1565b62ffffff16901b9150509392505050565b600073ffffffffffffffffffffffffffffffffffffffff83169250814260a01b178317905092915050565b50505050565b6124728161246d612567565b612ada565b50565b60006124818383611767565b61255c576001600a600085815260200190815260200160002060000160008473ffffffffffffffffffffffffffffffffffffffff1673ffffffffffffffffffffffffffffffffffffffff16815260200190815260200160002060006101000a81548160ff0219169083151502179055506124f9612567565b73ffffffffffffffffffffffffffffffffffffffff168273ffffffffffffffffffffffffffffffffffffffff16847f2f8788117e7eff1d82e926ec794901d17c78024a50270940304540a733656f0d60405160405180910390a460019050612561565b600090505b92915050565b600033905090565b600061257b8383611767565b15612657576000600a600085815260200190815260200160002060000160008473ffffffffffffffffffffffffffffffffffffffff1673ffffffffffffffffffffffffffffffffffffffff16815260200190815260200160002060006101000a81548160ff0219169083151502179055506125f4612567565b73ffffffffffffffffffffffffffffffffffffffff168273ffffffffffffffffffffffffffffffffffffffff16847ff6391f5c32d9c69d2a47ea670b442974b53935d1edc7fd64eb21e047a839171b60405160405180910390a46001905061265c565b600090505b92915050565b6000600960009054906101000a900473ffffffffffffffffffffffffffffffffffffffff16905081600960006101000a81548173ffffffffffffffffffffffffffffffffffffffff021916908373ffffffffffffffffffffffffffffffffffffffff1602179055508173ffffffffffffffffffffffffffffffffffffffff168173ffffffffffffffffffffffffffffffffffffffff167f8be0079c531659141344cd1fd0a4f28419497f9722a3daafe3b4186f6b6457e060405160405180910390a35050565b60006127326121c2565b6000540390507fffffffffffffffffffffffffffffffffffffffffffffffffffffffffffffffff6127616121c7565b1461276e57600854810190505b90565b600080549050600082036127905761278f63b562e8dd60e01b612089565b5b61279d6000848385612402565b6127bd836127ae6000866000612408565b6127b785612b2b565b17612430565b6004600083815260200190815260200160002081905550600160406001901b178202600560008573ffffffffffffffffffffffffffffffffffffffff1673ffffffffffffffffffffffffffffffffffffffff16815260200190815260200160002060008282540192505081905550600073ffffffffffffffffffffffffffffffffffffffff8473ffffffffffffffffffffffffffffffffffffffff161690506000810361287557612874632e07630060e01b612089565b5b6000838301905060008390506128896121c7565b6001830311156128a4576128a36381647e3a60e01b612089565b5b5b808360007fddf252ad1be2c89b69c2b068fc378daa952ba7f163c4a11628f55a4df523b3ef600080a48181600101915081036128a557816000819055505050506128f2600084838561245b565b505050565b60008373ffffffffffffffffffffffffffffffffffffffff1663150b7a0261291d6123b6565b8786866040518563ffffffff1660e01b815260040161293f9493929190613ca4565b6020604051808303816000875af192505050801561297b57506040513d601f19601f820116820180604052508101906129789190613d05565b60015b6129d3573d80600081146129ab576040519150601f19603f3d011682016040523d82523d6000602084013e6129b0565b606091505b5060008151036129cb576129ca63d1a57ed660e01b612089565b5b805181602001fd5b63150b7a0260e01b7bffffffffffffffffffffffffffffffffffffffffffffffffffffffff1916817bffffffffffffffffffffffffffffffffffffffffffffffffffffffff191614915050949350505050565b60007f01ffc9a7000000000000000000000000000000000000000000000000000000007bffffffffffffffffffffffffffffffffffffffffffffffffffffffff1916827bffffffffffffffffffffffffffffffffffffffffffffffffffffffff1916149050919050565b60007c0100000000000000000000000000000000000000000000000000000000821673ffffffffffffffffffffffffffffffffffffffff8316119050919050565b60009392505050565b612ae48282611767565b612b275780826040517fe2517d3f000000000000000000000000000000000000000000000000000000008152600401612b1e929190613d32565b60405180910390fd5b5050565b60006001821460e11b9050919050565b6000604051905090565b600080fd5b600080fd5b60007fffffffff0000000000000000000000000000000000000000000000000000000082169050919050565b612b8481612b4f565b8114612b8f57600080fd5b50565b600081359050612ba181612b7b565b92915050565b600060208284031215612bbd57612bbc612b45565b5b6000612bcb84828501612b92565b91505092915050565b60008115159050919050565b612be981612bd4565b82525050565b6000602082019050612c046000830184612be0565b92915050565b600081519050919050565b600082825260208201905092915050565b60005b83811015612c44578082015181840152602081019050612c29565b60008484015250505050565b6000601f19601f8301169050919050565b6000612c6c82612c0a565b612c768185612c15565b9350612c86818560208601612c26565b612c8f81612c50565b840191505092915050565b60006020820190508181036000830152612cb48184612c61565b905092915050565b6000819050919050565b612ccf81612cbc565b8114612cda57600080fd5b50565b600081359050612cec81612cc6565b92915050565b600060208284031215612d0857612d07612b45565b5b6000612d1684828501612cdd565b91505092915050565b600073ffffffffffffffffffffffffffffffffffffffff82169050919050565b6000612d4a82612d1f565b9050919050565b612d5a81612d3f565b82525050565b6000602082019050612d756000830184612d51565b92915050565b612d8481612d3f565b8114612d8f57600080fd5b50565b600081359050612da181612d7b565b92915050565b60008060408385031215612dbe57612dbd612b45565b5b6000612dcc85828601612d92565b9250506020612ddd85828601612cdd565b9150509250929050565b612df081612cbc565b82525050565b6000602082019050612e0b6000830184612de7565b92915050565b600080fd5b600080fd5b7f4e487b7100000000000000000000000000000000000000000000000000000000600052604160045260246000fd5b612e5382612c50565b810181811067ffffffffffffffff82111715612e7257612e71612e1b565b5b80604052505050565b6000612e85612b3b565b9050612e918282612e4a565b919050565b600067ffffffffffffffff821115612eb157612eb0612e1b565b5b612eba82612c50565b9050602081019050919050565b82818337600083830152505050565b6000612ee9612ee484612e96565b612e7b565b905082815260208101848484011115612f0557612f04612e16565b5b612f10848285612ec7565b509392505050565b600082601f830112612f2d57612f2c612e11565b5b8135612f3d848260208601612ed6565b91505092915050565b600060208284031215612f5c57612f5b612b45565b5b600082013567ffffffffffffffff811115612f7a57612f79612b4a565b5b612f8684828501612f18565b91505092915050565b600080600060608486031215612fa857612fa7612b45565b5b6000612fb686828701612d92565b9350506020612fc786828701612d92565b9250506040612fd886828701612cdd565b9150509250925092565b6000819050919050565b612ff581612fe2565b811461300057600080fd5b50565b60008135905061301281612fec565b92915050565b60006020828403121561302e5761302d612b45565b5b600061303c84828501613003565b91505092915050565b61304e81612fe2565b82525050565b60006020820190506130696000830184613045565b92915050565b6000806040838503121561308657613085612b45565b5b600061309485828601613003565b92505060206130a585828601612d92565b9150509250929050565b600080604083850312156130c6576130c5612b45565b5b60006130d485828601612cdd565b92505060206130e585828601612cdd565b9150509250929050565b60006020828403121561310557613104612b45565b5b600061311384828501612d92565b91505092915050565b61312581612bd4565b811461313057600080fd5b50565b6000813590506131428161311c565b92915050565b6000806040838503121561315f5761315e612b45565b5b600061316d85828601612d92565b925050602061317e85828601613133565b9150509250929050565b600067ffffffffffffffff8211156131a3576131a2612e1b565b5b6131ac82612c50565b9050602081019050919050565b60006131cc6131c784613188565b612e7b565b9050828152602081018484840111156131e8576131e7612e16565b5b6131f3848285612ec7565b509392505050565b600082601f8301126132105761320f612e11565b5b81356132208482602086016131b9565b91505092915050565b6000806000806080858703121561324357613242612b45565b5b600061325187828801612d92565b945050602061326287828801612d92565b935050604061327387828801612cdd565b925050606085013567ffffffffffffffff81111561329457613293612b4a565b5b6132a0878288016131fb565b91505092959194509250565b600080600080600080600060e0888a0312156132cb576132ca612b45565b5b600088013567ffffffffffffffff8111156132e9576132e8612b4a565b5b6132f58a828b01612f18565b975050602088013567ffffffffffffffff81111561331657613315612b4a565b5b6133228a828b01612f18565b965050604088013567ffffffffffffffff81111561334357613342612b4a565b5b61334f8a828b01612f18565b955050606088013567ffffffffffffffff8111156133705761336f612b4a565b5b61337c8a828b01612f18565b945050608088013567ffffffffffffffff81111561339d5761339c612b4a565b5b6133a98a828b01612f18565b93505060a088013567ffffffffffffffff8111156133ca576133c9612b4a565b5b6133d68a828b01612f18565b92505060c088013567ffffffffffffffff8111156133f7576133f6612b4a565b5b6134038a828b01612f18565b91505092959891949750929550565b6000806040838503121561342957613428612b45565b5b600061343785828601612d92565b925050602061344885828601612d92565b9150509250929050565b7f4e487b7100000000000000000000000000000000000000000000000000000000600052602260045260246000fd5b6000600282049050600182168061349957607f821691505b6020821081036134ac576134ab613452565b5b50919050565b7f6e667420616c7265616479206c6f636b65640000000000000000000000000000600082015250565b60006134e8601283612c15565b91506134f3826134b2565b602082019050919050565b60006020820190508181036000830152613517816134db565b9050919050565b60008190508160005260206000209050919050565b60006020601f8301049050919050565b600082821b905092915050565b6000600883026135807fffffffffffffffffffffffffffffffffffffffffffffffffffffffffffffffff82613543565b61358a8683613543565b95508019841693508086168417925050509392505050565b6000819050919050565b60006135c76135c26135bd84612cbc565b6135a2565b612cbc565b9050919050565b6000819050919050565b6135e1836135ac565b6135f56135ed826135ce565b848454613550565b825550505050565b600090565b61360a6135fd565b6136158184846135d8565b505050565b5b818110156136395761362e600082613602565b60018101905061361b565b5050565b601f82111561367e5761364f8161351e565b61365884613533565b81016020851015613667578190505b61367b61367385613533565b83018261361a565b50505b505050565b600082821c905092915050565b60006136a160001984600802613683565b1980831691505092915050565b60006136ba8383613690565b9150826002028217905092915050565b6136d382612c0a565b67ffffffffffffffff8111156136ec576136eb612e1b565b5b6136f68254613481565b61370182828561363d565b600060209050601f8311600181146137345760008415613722578287015190505b61372c85826136ae565b865550613794565b601f1984166137428661351e565b60005b8281101561376a57848901518255600182019150602085019450602081019050613745565b868310156137875784890151613783601f891682613690565b8355505b6001600288020188555050505b505050505050565b7f746f6b656e20646f6573206e6f74206578697374000000000000000000000000600082015250565b60006137d2601483612c15565b91506137dd8261379c565b602082019050919050565b60006020820190508181036000830152613801816137c5565b9050919050565b7f63616e6e6f7420726564756365207468652073636f7265626f617264206d757360008201527f742062652062696767657220746f74616c000000000000000000000000000000602082015250565b6000613864603183612c15565b915061386f82613808565b604082019050919050565b6000602082019050818103600083015261389381613857565b9050919050565b7f6e6674206e6f7420657869737473000000000000000000000000000000000000600082015250565b60006138d0600e83612c15565b91506138db8261389a565b602082019050919050565b600060208201905081810360008301526138ff816138c3565b9050919050565b7f6e6f206d6f726520746f6b656e7320746f206d696e7400000000000000000000600082015250565b600061393c601683612c15565b915061394782613906565b602082019050919050565b6000602082019050818103600083015261396b8161392f565b9050919050565b7f4e487b7100000000000000000000000000000000000000000000000000000000600052601160045260246000fd5b60006139ac82612cbc565b91506139b783612cbc565b92508282019050808211156139cf576139ce613972565b5b92915050565b7f63616e6e6f74206d696e74206d6f7265207468616e206d617820737570706c79600082015250565b6000613a0b602083612c15565b9150613a16826139d5565b602082019050919050565b60006020820190508181036000830152613a3a816139fe565b9050919050565b6000613a4c82612cbc565b9150613a5783612cbc565b9250828202613a6581612cbc565b91508282048414831517613a7c57613a7b613972565b5b5092915050565b7f706c656173652070617920726571756972656420616d6f756e7420746f206d6960008201527f6e74000000000000000000000000000000000000000000000000000000000000602082015250565b6000613adf602283612c15565b9150613aea82613a83565b604082019050919050565b60006020820190508181036000830152613b0e81613ad2565b9050919050565b600081905092915050565b60008154613b2d81613481565b613b378186613b15565b94506001821660008114613b525760018114613b6757613b9a565b60ff1983168652811515820286019350613b9a565b613b708561351e565b60005b83811015613b9257815481890152600182019150602081019050613b73565b838801955050505b50505092915050565b6000613baf8284613b20565b915081905092915050565b7f616c7265616479206c6f636b6564000000000000000000000000000000000000600082015250565b6000613bf0600e83612c15565b9150613bfb82613bba565b602082019050919050565b60006020820190508181036000830152613c1f81613be3565b9050919050565b6000613c3182612cbc565b915060008203613c4457613c43613972565b5b600182039050919050565b600081519050919050565b600082825260208201905092915050565b6000613c7682613c4f565b613c808185613c5a565b9350613c90818560208601612c26565b613c9981612c50565b840191505092915050565b6000608082019050613cb96000830187612d51565b613cc66020830186612d51565b613cd36040830185612de7565b8181036060830152613ce58184613c6b565b905095945050505050565b600081519050613cff81612b7b565b92915050565b600060208284031215613d1b57613d1a612b45565b5b6000613d2984828501613cf0565b91505092915050565b6000604082019050613d476000830185612d51565b613d546020830184613045565b939250505056fea2646970667358221220b40ae9336cf379a4c55860e200fadf0d6ba7df945c738a8e2e10ea998c5a0a8f64736f6c63430008180033","opcodes":"PUSH1 0x80 PUSH1 0x40 MSTORE PUSH1 0x0 PUSH1 0xC PUSH1 0x0 PUSH2 0x100 EXP DUP2 SLOAD DUP2 PUSH1 0xFF MUL NOT AND SWAP1 DUP4 ISZERO ISZERO MUL OR SWAP1 SSTORE POP PUSH1 0xA PUSH1 0x17 SSTORE PUSH1 0x64 PUSH1 0x18 SSTORE PUSH1 0xC8 PUSH1 0x19 SSTORE CALLVALUE DUP1 ISZERO PUSH3 0x3B JUMPI PUSH1 0x0 DUP1 REVERT JUMPDEST POP PUSH1 0x40 MLOAD PUSH3 0x4951 CODESIZE SUB DUP1 PUSH3 0x4951 DUP4 CODECOPY DUP2 DUP2 ADD PUSH1 0x40 MSTORE DUP2 ADD SWAP1 PUSH3 0x61 SWAP2 SWAP1 PUSH3 0x6D0 JUMP JUMPDEST CALLER DUP9 DUP9 DUP2 PUSH1 0x2 SWAP1 DUP2 PUSH3 0x75 SWAP2 SWAP1 PUSH3 0xA18 JUMP JUMPDEST POP DUP1 PUSH1 0x3 SWAP1 DUP2 PUSH3 0x87 SWAP2 SWAP1 PUSH3 0xA18 JUMP JUMPDEST POP PUSH3 0x98 PUSH3 0x229 PUSH1 0x20 SHL PUSH1 0x20 SHR JUMP JUMPDEST PUSH1 0x0 DUP2 SWAP1 SSTORE POP PUSH3 0xAE PUSH3 0x229 PUSH1 0x20 SHL PUSH1 0x20 SHR JUMP JUMPDEST PUSH3 0xBE PUSH3 0x22E PUSH1 0x20 SHL PUSH1 0x20 SHR JUMP JUMPDEST LT ISZERO PUSH3 0xDE JUMPI PUSH3 0xDD PUSH4 0xFED8210F PUSH1 0xE0 SHL PUSH3 0x256 PUSH1 0x20 SHL PUSH1 0x20 SHR JUMP JUMPDEST JUMPDEST POP POP PUSH1 0x0 PUSH20 0xFFFFFFFFFFFFFFFFFFFFFFFFFFFFFFFFFFFFFFFF AND DUP2 PUSH20 0xFFFFFFFFFFFFFFFFFFFFFFFFFFFFFFFFFFFFFFFF AND SUB PUSH3 0x155 JUMPI PUSH1 0x0 PUSH1 0x40 MLOAD PUSH32 0x1E4FBDF700000000000000000000000000000000000000000000000000000000 DUP2 MSTORE PUSH1 0x4 ADD PUSH3 0x14C SWAP2 SWAP1 PUSH3 0xB10 JUMP JUMPDEST PUSH1 0x40 MLOAD DUP1 SWAP2 SUB SWAP1 REVERT JUMPDEST PUSH3 0x166 DUP2 PUSH3 0x260 PUSH1 0x20 SHL PUSH1 0x20 SHR JUMP JUMPDEST POP DUP6 PUSH1 0xD DUP2 SWAP1 SSTORE POP PUSH3 0x1A0 PUSH32 0xF99F54BA88613D946BDC79767A2D779E0D744D1B5B02B85576A5B76D8E372355 DUP6 PUSH3 0x326 PUSH1 0x20 SHL PUSH1 0x20 SHR JUMP JUMPDEST POP DUP5 PUSH1 0x16 DUP2 SWAP1 SSTORE POP PUSH1 0x0 DUP4 GT DUP1 ISZERO PUSH3 0x1B8 JUMPI POP DUP3 DUP3 GT JUMPDEST DUP1 ISZERO PUSH3 0x1C4 JUMPI POP DUP2 DUP2 GT JUMPDEST PUSH3 0x206 JUMPI PUSH1 0x40 MLOAD PUSH32 0x8C379A000000000000000000000000000000000000000000000000000000000 DUP2 MSTORE PUSH1 0x4 ADD PUSH3 0x1FD SWAP1 PUSH3 0xB8E JUMP JUMPDEST PUSH1 0x40 MLOAD DUP1 SWAP2 SUB SWAP1 REVERT JUMPDEST DUP3 PUSH1 0x17 DUP2 SWAP1 SSTORE POP DUP2 PUSH1 0x18 DUP2 SWAP1 SSTORE POP DUP1 PUSH1 0x19 DUP2 SWAP1 SSTORE POP POP POP POP POP POP POP POP POP PUSH3 0xBB0 JUMP JUMPDEST PUSH1 0x0 SWAP1 JUMP JUMPDEST PUSH1 0x0 PUSH32 0xFFFFFFFFFFFFFFFFFFFFFFFFFFFFFFFFFFFFFFFFFFFFFFFFFFFFFFFFFFFFFFFF SWAP1 POP SWAP1 JUMP JUMPDEST DUP1 PUSH1 0x0 MSTORE PUSH1 0x4 PUSH1 0x0 REVERT JUMPDEST PUSH1 0x0 PUSH1 0x9 PUSH1 0x0 SWAP1 SLOAD SWAP1 PUSH2 0x100 EXP SWAP1 DIV PUSH20 0xFFFFFFFFFFFFFFFFFFFFFFFFFFFFFFFFFFFFFFFF AND SWAP1 POP DUP2 PUSH1 0x9 PUSH1 0x0 PUSH2 0x100 EXP DUP2 SLOAD DUP2 PUSH20 0xFFFFFFFFFFFFFFFFFFFFFFFFFFFFFFFFFFFFFFFF MUL NOT AND SWAP1 DUP4 PUSH20 0xFFFFFFFFFFFFFFFFFFFFFFFFFFFFFFFFFFFFFFFF AND MUL OR SWAP1 SSTORE POP DUP2 PUSH20 0xFFFFFFFFFFFFFFFFFFFFFFFFFFFFFFFFFFFFFFFF AND DUP2 PUSH20 0xFFFFFFFFFFFFFFFFFFFFFFFFFFFFFFFFFFFFFFFF AND PUSH32 0x8BE0079C531659141344CD1FD0A4F28419497F9722A3DAAFE3B4186F6B6457E0 PUSH1 0x40 MLOAD PUSH1 0x40 MLOAD DUP1 SWAP2 SUB SWAP1 LOG3 POP POP JUMP JUMPDEST PUSH1 0x0 PUSH3 0x33A DUP4 DUP4 PUSH3 0x42A PUSH1 0x20 SHL PUSH1 0x20 SHR JUMP JUMPDEST PUSH3 0x41F JUMPI PUSH1 0x1 PUSH1 0xA PUSH1 0x0 DUP6 DUP2 MSTORE PUSH1 0x20 ADD SWAP1 DUP2 MSTORE PUSH1 0x20 ADD PUSH1 0x0 KECCAK256 PUSH1 0x0 ADD PUSH1 0x0 DUP5 PUSH20 0xFFFFFFFFFFFFFFFFFFFFFFFFFFFFFFFFFFFFFFFF AND PUSH20 0xFFFFFFFFFFFFFFFFFFFFFFFFFFFFFFFFFFFFFFFF AND DUP2 MSTORE PUSH1 0x20 ADD SWAP1 DUP2 MSTORE PUSH1 0x20 ADD PUSH1 0x0 KECCAK256 PUSH1 0x0 PUSH2 0x100 EXP DUP2 SLOAD DUP2 PUSH1 0xFF MUL NOT AND SWAP1 DUP4 ISZERO ISZERO MUL OR SWAP1 SSTORE POP PUSH3 0x3BB PUSH3 0x495 PUSH1 0x20 SHL PUSH1 0x20 SHR JUMP JUMPDEST PUSH20 0xFFFFFFFFFFFFFFFFFFFFFFFFFFFFFFFFFFFFFFFF AND DUP3 PUSH20 0xFFFFFFFFFFFFFFFFFFFFFFFFFFFFFFFFFFFFFFFF AND DUP5 PUSH32 0x2F8788117E7EFF1D82E926EC794901D17C78024A50270940304540A733656F0D PUSH1 0x40 MLOAD PUSH1 0x40 MLOAD DUP1 SWAP2 SUB SWAP1 LOG4 PUSH1 0x1 SWAP1 POP PUSH3 0x424 JUMP JUMPDEST PUSH1 0x0 SWAP1 POP JUMPDEST SWAP3 SWAP2 POP POP JUMP JUMPDEST PUSH1 0x0 PUSH1 0xA PUSH1 0x0 DUP5 DUP2 MSTORE PUSH1 0x20 ADD SWAP1 DUP2 MSTORE PUSH1 0x20 ADD PUSH1 0x0 KECCAK256 PUSH1 0x0 ADD PUSH1 0x0 DUP4 PUSH20 0xFFFFFFFFFFFFFFFFFFFFFFFFFFFFFFFFFFFFFFFF AND PUSH20 0xFFFFFFFFFFFFFFFFFFFFFFFFFFFFFFFFFFFFFFFF AND DUP2 MSTORE PUSH1 0x20 ADD SWAP1 DUP2 MSTORE PUSH1 0x20 ADD PUSH1 0x0 KECCAK256 PUSH1 0x0 SWAP1 SLOAD SWAP1 PUSH2 0x100 EXP SWAP1 DIV PUSH1 0xFF AND SWAP1 POP SWAP3 SWAP2 POP POP JUMP JUMPDEST PUSH1 0x0 CALLER SWAP1 POP SWAP1 JUMP JUMPDEST PUSH1 0x0 PUSH1 0x40 MLOAD SWAP1 POP SWAP1 JUMP JUMPDEST PUSH1 0x0 DUP1 REVERT JUMPDEST PUSH1 0x0 DUP1 REVERT JUMPDEST PUSH1 0x0 DUP1 REVERT JUMPDEST PUSH1 0x0 DUP1 REVERT JUMPDEST PUSH1 0x0 PUSH1 0x1F NOT PUSH1 0x1F DUP4 ADD AND SWAP1 POP SWAP2 SWAP1 POP JUMP JUMPDEST PUSH32 0x4E487B7100000000000000000000000000000000000000000000000000000000 PUSH1 0x0 MSTORE PUSH1 0x41 PUSH1 0x4 MSTORE PUSH1 0x24 PUSH1 0x0 REVERT JUMPDEST PUSH3 0x506 DUP3 PUSH3 0x4BB JUMP JUMPDEST DUP2 ADD DUP2 DUP2 LT PUSH8 0xFFFFFFFFFFFFFFFF DUP3 GT OR ISZERO PUSH3 0x528 JUMPI PUSH3 0x527 PUSH3 0x4CC JUMP JUMPDEST JUMPDEST DUP1 PUSH1 0x40 MSTORE POP POP POP JUMP JUMPDEST PUSH1 0x0 PUSH3 0x53D PUSH3 0x49D JUMP JUMPDEST SWAP1 POP PUSH3 0x54B DUP3 DUP3 PUSH3 0x4FB JUMP JUMPDEST SWAP2 SWAP1 POP JUMP JUMPDEST PUSH1 0x0 PUSH8 0xFFFFFFFFFFFFFFFF DUP3 GT ISZERO PUSH3 0x56E JUMPI PUSH3 0x56D PUSH3 0x4CC JUMP JUMPDEST JUMPDEST PUSH3 0x579 DUP3 PUSH3 0x4BB JUMP JUMPDEST SWAP1 POP PUSH1 0x20 DUP2 ADD SWAP1 POP SWAP2 SWAP1 POP JUMP JUMPDEST PUSH1 0x0 JUMPDEST DUP4 DUP2 LT ISZERO PUSH3 0x5A6 JUMPI DUP1 DUP3 ADD MLOAD DUP2 DUP5 ADD MSTORE PUSH1 0x20 DUP2 ADD SWAP1 POP PUSH3 0x589 JUMP JUMPDEST PUSH1 0x0 DUP5 DUP5 ADD MSTORE POP POP POP POP JUMP JUMPDEST PUSH1 0x0 PUSH3 0x5C9 PUSH3 0x5C3 DUP5 PUSH3 0x550 JUMP JUMPDEST PUSH3 0x531 JUMP JUMPDEST SWAP1 POP DUP3 DUP2 MSTORE PUSH1 0x20 DUP2 ADD DUP5 DUP5 DUP5 ADD GT ISZERO PUSH3 0x5E8 JUMPI PUSH3 0x5E7 PUSH3 0x4B6 JUMP JUMPDEST JUMPDEST PUSH3 0x5F5 DUP5 DUP3 DUP6 PUSH3 0x586 JUMP JUMPDEST POP SWAP4 SWAP3 POP POP POP JUMP JUMPDEST PUSH1 0x0 DUP3 PUSH1 0x1F DUP4 ADD SLT PUSH3 0x615 JUMPI PUSH3 0x614 PUSH3 0x4B1 JUMP JUMPDEST JUMPDEST DUP2 MLOAD PUSH3 0x627 DUP5 DUP3 PUSH1 0x20 DUP7 ADD PUSH3 0x5B2 JUMP JUMPDEST SWAP2 POP POP SWAP3 SWAP2 POP POP JUMP JUMPDEST PUSH1 0x0 DUP2 SWAP1 POP SWAP2 SWAP1 POP JUMP JUMPDEST PUSH3 0x645 DUP2 PUSH3 0x630 JUMP JUMPDEST DUP2 EQ PUSH3 0x651 JUMPI PUSH1 0x0 DUP1 REVERT JUMPDEST POP JUMP JUMPDEST PUSH1 0x0 DUP2 MLOAD SWAP1 POP PUSH3 0x665 DUP2 PUSH3 0x63A JUMP JUMPDEST SWAP3 SWAP2 POP POP JUMP JUMPDEST PUSH1 0x0 PUSH20 0xFFFFFFFFFFFFFFFFFFFFFFFFFFFFFFFFFFFFFFFF DUP3 AND SWAP1 POP SWAP2 SWAP1 POP JUMP JUMPDEST PUSH1 0x0 PUSH3 0x698 DUP3 PUSH3 0x66B JUMP JUMPDEST SWAP1 POP SWAP2 SWAP1 POP JUMP JUMPDEST PUSH3 0x6AA DUP2 PUSH3 0x68B JUMP JUMPDEST DUP2 EQ PUSH3 0x6B6 JUMPI PUSH1 0x0 DUP1 REVERT JUMPDEST POP JUMP JUMPDEST PUSH1 0x0 DUP2 MLOAD SWAP1 POP PUSH3 0x6CA DUP2 PUSH3 0x69F JUMP JUMPDEST SWAP3 SWAP2 POP POP JUMP JUMPDEST PUSH1 0x0 DUP1 PUSH1 0x0 DUP1 PUSH1 0x0 DUP1 PUSH1 0x0 DUP1 PUSH2 0x100 DUP10 DUP12 SUB SLT ISZERO PUSH3 0x6F4 JUMPI PUSH3 0x6F3 PUSH3 0x4A7 JUMP JUMPDEST JUMPDEST PUSH1 0x0 DUP10 ADD MLOAD PUSH8 0xFFFFFFFFFFFFFFFF DUP2 GT ISZERO PUSH3 0x715 JUMPI PUSH3 0x714 PUSH3 0x4AC JUMP JUMPDEST JUMPDEST PUSH3 0x723 DUP12 DUP3 DUP13 ADD PUSH3 0x5FD JUMP JUMPDEST SWAP9 POP POP PUSH1 0x20 DUP10 ADD MLOAD PUSH8 0xFFFFFFFFFFFFFFFF DUP2 GT ISZERO PUSH3 0x747 JUMPI PUSH3 0x746 PUSH3 0x4AC JUMP JUMPDEST JUMPDEST PUSH3 0x755 DUP12 DUP3 DUP13 ADD PUSH3 0x5FD JUMP JUMPDEST SWAP8 POP POP PUSH1 0x40 PUSH3 0x768 DUP12 DUP3 DUP13 ADD PUSH3 0x654 JUMP JUMPDEST SWAP7 POP POP PUSH1 0x60 PUSH3 0x77B DUP12 DUP3 DUP13 ADD PUSH3 0x654 JUMP JUMPDEST SWAP6 POP POP PUSH1 0x80 PUSH3 0x78E DUP12 DUP3 DUP13 ADD PUSH3 0x6B9 JUMP JUMPDEST SWAP5 POP POP PUSH1 0xA0 PUSH3 0x7A1 DUP12 DUP3 DUP13 ADD PUSH3 0x654 JUMP JUMPDEST SWAP4 POP POP PUSH1 0xC0 PUSH3 0x7B4 DUP12 DUP3 DUP13 ADD PUSH3 0x654 JUMP JUMPDEST SWAP3 POP POP PUSH1 0xE0 PUSH3 0x7C7 DUP12 DUP3 DUP13 ADD PUSH3 0x654 JUMP JUMPDEST SWAP2 POP POP SWAP3 SWAP6 SWAP9 POP SWAP3 SWAP6 SWAP9 SWAP1 SWAP4 SWAP7 POP JUMP JUMPDEST PUSH1 0x0 DUP2 MLOAD SWAP1 POP SWAP2 SWAP1 POP JUMP JUMPDEST PUSH32 0x4E487B7100000000000000000000000000000000000000000000000000000000 PUSH1 0x0 MSTORE PUSH1 0x22 PUSH1 0x4 MSTORE PUSH1 0x24 PUSH1 0x0 REVERT JUMPDEST PUSH1 0x0 PUSH1 0x2 DUP3 DIV SWAP1 POP PUSH1 0x1 DUP3 AND DUP1 PUSH3 0x82A JUMPI PUSH1 0x7F DUP3 AND SWAP2 POP JUMPDEST PUSH1 0x20 DUP3 LT DUP2 SUB PUSH3 0x840 JUMPI PUSH3 0x83F PUSH3 0x7E2 JUMP JUMPDEST JUMPDEST POP SWAP2 SWAP1 POP JUMP JUMPDEST PUSH1 0x0 DUP2 SWAP1 POP DUP2 PUSH1 0x0 MSTORE PUSH1 0x20 PUSH1 0x0 KECCAK256 SWAP1 POP SWAP2 SWAP1 POP JUMP JUMPDEST PUSH1 0x0 PUSH1 0x20 PUSH1 0x1F DUP4 ADD DIV SWAP1 POP SWAP2 SWAP1 POP JUMP JUMPDEST PUSH1 0x0 DUP3 DUP3 SHL SWAP1 POP SWAP3 SWAP2 POP POP JUMP JUMPDEST PUSH1 0x0 PUSH1 0x8 DUP4 MUL PUSH3 0x8AA PUSH32 0xFFFFFFFFFFFFFFFFFFFFFFFFFFFFFFFFFFFFFFFFFFFFFFFFFFFFFFFFFFFFFFFF DUP3 PUSH3 0x86B JUMP JUMPDEST PUSH3 0x8B6 DUP7 DUP4 PUSH3 0x86B JUMP JUMPDEST SWAP6 POP DUP1 NOT DUP5 AND SWAP4 POP DUP1 DUP7 AND DUP5 OR SWAP3 POP POP POP SWAP4 SWAP3 POP POP POP JUMP JUMPDEST PUSH1 0x0 DUP2 SWAP1 POP SWAP2 SWAP1 POP JUMP JUMPDEST PUSH1 0x0 PUSH3 0x8F9 PUSH3 0x8F3 PUSH3 0x8ED DUP5 PUSH3 0x630 JUMP JUMPDEST PUSH3 0x8CE JUMP JUMPDEST PUSH3 0x630 JUMP JUMPDEST SWAP1 POP SWAP2 SWAP1 POP JUMP JUMPDEST PUSH1 0x0 DUP2 SWAP1 POP SWAP2 SWAP1 POP JUMP JUMPDEST PUSH3 0x915 DUP4 PUSH3 0x8D8 JUMP JUMPDEST PUSH3 0x92D PUSH3 0x924 DUP3 PUSH3 0x900 JUMP JUMPDEST DUP5 DUP5 SLOAD PUSH3 0x878 JUMP JUMPDEST DUP3 SSTORE POP POP POP POP JUMP JUMPDEST PUSH1 0x0 SWAP1 JUMP JUMPDEST PUSH3 0x944 PUSH3 0x935 JUMP JUMPDEST PUSH3 0x951 DUP2 DUP5 DUP5 PUSH3 0x90A JUMP JUMPDEST POP POP POP JUMP JUMPDEST JUMPDEST DUP2 DUP2 LT ISZERO PUSH3 0x979 JUMPI PUSH3 0x96D PUSH1 0x0 DUP3 PUSH3 0x93A JUMP JUMPDEST PUSH1 0x1 DUP2 ADD SWAP1 POP PUSH3 0x957 JUMP JUMPDEST POP POP JUMP JUMPDEST PUSH1 0x1F DUP3 GT ISZERO PUSH3 0x9C8 JUMPI PUSH3 0x992 DUP2 PUSH3 0x846 JUMP JUMPDEST PUSH3 0x99D DUP5 PUSH3 0x85B JUMP JUMPDEST DUP2 ADD PUSH1 0x20 DUP6 LT ISZERO PUSH3 0x9AD JUMPI DUP2 SWAP1 POP JUMPDEST PUSH3 0x9C5 PUSH3 0x9BC DUP6 PUSH3 0x85B JUMP JUMPDEST DUP4 ADD DUP3 PUSH3 0x956 JUMP JUMPDEST POP POP JUMPDEST POP POP POP JUMP JUMPDEST PUSH1 0x0 DUP3 DUP3 SHR SWAP1 POP SWAP3 SWAP2 POP POP JUMP JUMPDEST PUSH1 0x0 PUSH3 0x9ED PUSH1 0x0 NOT DUP5 PUSH1 0x8 MUL PUSH3 0x9CD JUMP JUMPDEST NOT DUP1 DUP4 AND SWAP2 POP POP SWAP3 SWAP2 POP POP JUMP JUMPDEST PUSH1 0x0 PUSH3 0xA08 DUP4 DUP4 PUSH3 0x9DA JUMP JUMPDEST SWAP2 POP DUP3 PUSH1 0x2 MUL DUP3 OR SWAP1 POP SWAP3 SWAP2 POP POP JUMP JUMPDEST PUSH3 0xA23 DUP3 PUSH3 0x7D7 JUMP JUMPDEST PUSH8 0xFFFFFFFFFFFFFFFF DUP2 GT ISZERO PUSH3 0xA3F JUMPI PUSH3 0xA3E PUSH3 0x4CC JUMP JUMPDEST JUMPDEST PUSH3 0xA4B DUP3 SLOAD PUSH3 0x811 JUMP JUMPDEST PUSH3 0xA58 DUP3 DUP3 DUP6 PUSH3 0x97D JUMP JUMPDEST PUSH1 0x0 PUSH1 0x20 SWAP1 POP PUSH1 0x1F DUP4 GT PUSH1 0x1 DUP2 EQ PUSH3 0xA90 JUMPI PUSH1 0x0 DUP5 ISZERO PUSH3 0xA7B JUMPI DUP3 DUP8 ADD MLOAD SWAP1 POP JUMPDEST PUSH3 0xA87 DUP6 DUP3 PUSH3 0x9FA JUMP JUMPDEST DUP7 SSTORE POP PUSH3 0xAF7 JUMP JUMPDEST PUSH1 0x1F NOT DUP5 AND PUSH3 0xAA0 DUP7 PUSH3 0x846 JUMP JUMPDEST PUSH1 0x0 JUMPDEST DUP3 DUP2 LT ISZERO PUSH3 0xACA JUMPI DUP5 DUP10 ADD MLOAD DUP3 SSTORE PUSH1 0x1 DUP3 ADD SWAP2 POP PUSH1 0x20 DUP6 ADD SWAP5 POP PUSH1 0x20 DUP2 ADD SWAP1 POP PUSH3 0xAA3 JUMP JUMPDEST DUP7 DUP4 LT ISZERO PUSH3 0xAEA JUMPI DUP5 DUP10 ADD MLOAD PUSH3 0xAE6 PUSH1 0x1F DUP10 AND DUP3 PUSH3 0x9DA JUMP JUMPDEST DUP4 SSTORE POP JUMPDEST PUSH1 0x1 PUSH1 0x2 DUP9 MUL ADD DUP9 SSTORE POP POP POP JUMPDEST POP POP POP POP POP POP JUMP JUMPDEST PUSH3 0xB0A DUP2 PUSH3 0x68B JUMP JUMPDEST DUP3 MSTORE POP POP JUMP JUMPDEST PUSH1 0x0 PUSH1 0x20 DUP3 ADD SWAP1 POP PUSH3 0xB27 PUSH1 0x0 DUP4 ADD DUP5 PUSH3 0xAFF JUMP JUMPDEST SWAP3 SWAP2 POP POP JUMP JUMPDEST PUSH1 0x0 DUP3 DUP3 MSTORE PUSH1 0x20 DUP3 ADD SWAP1 POP SWAP3 SWAP2 POP POP JUMP JUMPDEST PUSH32 0x696E76616C6964206C6576656C20636F6E66696775726174696F6E0000000000 PUSH1 0x0 DUP3 ADD MSTORE POP JUMP JUMPDEST PUSH1 0x0 PUSH3 0xB76 PUSH1 0x1B DUP4 PUSH3 0xB2D JUMP JUMPDEST SWAP2 POP PUSH3 0xB83 DUP3 PUSH3 0xB3E JUMP JUMPDEST PUSH1 0x20 DUP3 ADD SWAP1 POP SWAP2 SWAP1 POP JUMP JUMPDEST PUSH1 0x0 PUSH1 0x20 DUP3 ADD SWAP1 POP DUP2 DUP2 SUB PUSH1 0x0 DUP4 ADD MSTORE PUSH3 0xBA9 DUP2 PUSH3 0xB67 JUMP JUMPDEST SWAP1 POP SWAP2 SWAP1 POP JUMP JUMPDEST PUSH2 0x3D91 DUP1 PUSH3 0xBC0 PUSH1 0x0 CODECOPY PUSH1 0x0 RETURN INVALID PUSH1 0x80 PUSH1 0x40 MSTORE PUSH1 0x4 CALLDATASIZE LT PUSH2 0x293 JUMPI PUSH1 0x0 CALLDATALOAD PUSH1 0xE0 SHR DUP1 PUSH4 0x8D9480AA GT PUSH2 0x15A JUMPI DUP1 PUSH4 0xC87B56DD GT PUSH2 0xC1 JUMPI DUP1 PUSH4 0xD75FFDCF GT PUSH2 0x7A JUMPI DUP1 PUSH4 0xD75FFDCF EQ PUSH2 0x9C3 JUMPI DUP1 PUSH4 0xE985E9C5 EQ PUSH2 0xA00 JUMPI DUP1 PUSH4 0xF2BA4FE3 EQ PUSH2 0xA3D JUMPI DUP1 PUSH4 0xF2FDE38B EQ PUSH2 0xA68 JUMPI DUP1 PUSH4 0xF83D08BA EQ PUSH2 0xA91 JUMPI DUP1 PUSH4 0xFCCCC0B6 EQ PUSH2 0xAA8 JUMPI PUSH2 0x293 JUMP JUMPDEST DUP1 PUSH4 0xC87B56DD EQ PUSH2 0x8B3 JUMPI DUP1 PUSH4 0xCF309012 EQ PUSH2 0x8F0 JUMPI DUP1 PUSH4 0xD186F26F EQ PUSH2 0x91B JUMPI DUP1 PUSH4 0xD5391393 EQ PUSH2 0x944 JUMPI DUP1 PUSH4 0xD547741F EQ PUSH2 0x96F JUMPI DUP1 PUSH4 0xD5ABEB01 EQ PUSH2 0x998 JUMPI PUSH2 0x293 JUMP JUMPDEST DUP1 PUSH4 0xA0E301EA GT PUSH2 0x113 JUMPI DUP1 PUSH4 0xA0E301EA EQ PUSH2 0x7C2 JUMPI DUP1 PUSH4 0xA217FDDF EQ PUSH2 0x7ED JUMPI DUP1 PUSH4 0xA22CB465 EQ PUSH2 0x818 JUMPI DUP1 PUSH4 0xA8AB7E57 EQ PUSH2 0x841 JUMPI DUP1 PUSH4 0xADD4C1D9 EQ PUSH2 0x86C JUMPI DUP1 PUSH4 0xB88D4FDE EQ PUSH2 0x897 JUMPI PUSH2 0x293 JUMP JUMPDEST DUP1 PUSH4 0x8D9480AA EQ PUSH2 0x6C1 JUMPI DUP1 PUSH4 0x8DA5CB5B EQ PUSH2 0x6EA JUMPI DUP1 PUSH4 0x8E63AA0C EQ PUSH2 0x715 JUMPI DUP1 PUSH4 0x91D14854 EQ PUSH2 0x73E JUMPI DUP1 PUSH4 0x95D89B41 EQ PUSH2 0x77B JUMPI DUP1 PUSH4 0xA0712D68 EQ PUSH2 0x7A6 JUMPI PUSH2 0x293 JUMP JUMPDEST DUP1 PUSH4 0x34B72F22 GT PUSH2 0x1FE JUMPI DUP1 PUSH4 0x4ECFCEBB GT PUSH2 0x1B7 JUMPI DUP1 PUSH4 0x4ECFCEBB EQ PUSH2 0x5B1 JUMPI DUP1 PUSH4 0x6352211E EQ PUSH2 0x5DA JUMPI DUP1 PUSH4 0x70A08231 EQ PUSH2 0x617 JUMPI DUP1 PUSH4 0x715018A6 EQ PUSH2 0x654 JUMPI DUP1 PUSH4 0x7DFCE4BA EQ PUSH2 0x66B JUMPI DUP1 PUSH4 0x8C17BB9F EQ PUSH2 0x696 JUMPI PUSH2 0x293 JUMP JUMPDEST DUP1 PUSH4 0x34B72F22 EQ PUSH2 0x4B0 JUMPI DUP1 PUSH4 0x35213F4F EQ PUSH2 0x4DB JUMPI DUP1 PUSH4 0x36568ABE EQ PUSH2 0x504 JUMPI DUP1 PUSH4 0x3D2A9B86 EQ PUSH2 0x52D JUMPI DUP1 PUSH4 0x42842E0E EQ PUSH2 0x558 JUMPI DUP1 PUSH4 0x48441365 EQ PUSH2 0x574 JUMPI PUSH2 0x293 JUMP JUMPDEST DUP1 PUSH4 0x18160DDD GT PUSH2 0x250 JUMPI DUP1 PUSH4 0x18160DDD EQ PUSH2 0x3AF JUMPI DUP1 PUSH4 0x1971F69B EQ PUSH2 0x3DA JUMPI DUP1 PUSH4 0x23B872DD EQ PUSH2 0x403 JUMPI DUP1 PUSH4 0x248A9CA3 EQ PUSH2 0x41F JUMPI DUP1 PUSH4 0x286C1D30 EQ PUSH2 0x45C JUMPI DUP1 PUSH4 0x2F2FF15D EQ PUSH2 0x487 JUMPI PUSH2 0x293 JUMP JUMPDEST DUP1 PUSH4 0x1FFC9A7 EQ PUSH2 0x298 JUMPI DUP1 PUSH4 0x3EE438C EQ PUSH2 0x2D5 JUMPI DUP1 PUSH4 0x6FDDE03 EQ PUSH2 0x300 JUMPI DUP1 PUSH4 0x81812FC EQ PUSH2 0x32B JUMPI DUP1 PUSH4 0x95EA7B3 EQ PUSH2 0x368 JUMPI DUP1 PUSH4 0x12B0E455 EQ PUSH2 0x384 JUMPI JUMPDEST PUSH1 0x0 DUP1 REVERT JUMPDEST CALLVALUE DUP1 ISZERO PUSH2 0x2A4 JUMPI PUSH1 0x0 DUP1 REVERT JUMPDEST POP PUSH2 0x2BF PUSH1 0x4 DUP1 CALLDATASIZE SUB DUP2 ADD SWAP1 PUSH2 0x2BA SWAP2 SWAP1 PUSH2 0x2BA7 JUMP JUMPDEST PUSH2 0xAD3 JUMP JUMPDEST PUSH1 0x40 MLOAD PUSH2 0x2CC SWAP2 SWAP1 PUSH2 0x2BEF JUMP JUMPDEST PUSH1 0x40 MLOAD DUP1 SWAP2 SUB SWAP1 RETURN JUMPDEST CALLVALUE DUP1 ISZERO PUSH2 0x2E1 JUMPI PUSH1 0x0 DUP1 REVERT JUMPDEST POP PUSH2 0x2EA PUSH2 0xAE5 JUMP JUMPDEST PUSH1 0x40 MLOAD PUSH2 0x2F7 SWAP2 SWAP1 PUSH2 0x2C9A JUMP JUMPDEST PUSH1 0x40 MLOAD DUP1 SWAP2 SUB SWAP1 RETURN JUMPDEST CALLVALUE DUP1 ISZERO PUSH2 0x30C JUMPI PUSH1 0x0 DUP1 REVERT JUMPDEST POP PUSH2 0x315 PUSH2 0xB73 JUMP JUMPDEST PUSH1 0x40 MLOAD PUSH2 0x322 SWAP2 SWAP1 PUSH2 0x2C9A JUMP JUMPDEST PUSH1 0x40 MLOAD DUP1 SWAP2 SUB SWAP1 RETURN JUMPDEST CALLVALUE DUP1 ISZERO PUSH2 0x337 JUMPI PUSH1 0x0 DUP1 REVERT JUMPDEST POP PUSH2 0x352 PUSH1 0x4 DUP1 CALLDATASIZE SUB DUP2 ADD SWAP1 PUSH2 0x34D SWAP2 SWAP1 PUSH2 0x2CF2 JUMP JUMPDEST PUSH2 0xC05 JUMP JUMPDEST PUSH1 0x40 MLOAD PUSH2 0x35F SWAP2 SWAP1 PUSH2 0x2D60 JUMP JUMPDEST PUSH1 0x40 MLOAD DUP1 SWAP2 SUB SWAP1 RETURN JUMPDEST PUSH2 0x382 PUSH1 0x4 DUP1 CALLDATASIZE SUB DUP2 ADD SWAP1 PUSH2 0x37D SWAP2 SWAP1 PUSH2 0x2DA7 JUMP JUMPDEST PUSH2 0xC63 JUMP JUMPDEST STOP JUMPDEST CALLVALUE DUP1 ISZERO PUSH2 0x390 JUMPI PUSH1 0x0 DUP1 REVERT JUMPDEST POP PUSH2 0x399 PUSH2 0xC73 JUMP JUMPDEST PUSH1 0x40 MLOAD PUSH2 0x3A6 SWAP2 SWAP1 PUSH2 0x2C9A JUMP JUMPDEST PUSH1 0x40 MLOAD DUP1 SWAP2 SUB SWAP1 RETURN JUMPDEST CALLVALUE DUP1 ISZERO PUSH2 0x3BB JUMPI PUSH1 0x0 DUP1 REVERT JUMPDEST POP PUSH2 0x3C4 PUSH2 0xD01 JUMP JUMPDEST PUSH1 0x40 MLOAD PUSH2 0x3D1 SWAP2 SWAP1 PUSH2 0x2DF6 JUMP JUMPDEST PUSH1 0x40 MLOAD DUP1 SWAP2 SUB SWAP1 RETURN JUMPDEST CALLVALUE DUP1 ISZERO PUSH2 0x3E6 JUMPI PUSH1 0x0 DUP1 REVERT JUMPDEST POP PUSH2 0x401 PUSH1 0x4 DUP1 CALLDATASIZE SUB DUP2 ADD SWAP1 PUSH2 0x3FC SWAP2 SWAP1 PUSH2 0x2F46 JUMP JUMPDEST PUSH2 0xD4E JUMP JUMPDEST STOP JUMPDEST PUSH2 0x41D PUSH1 0x4 DUP1 CALLDATASIZE SUB DUP2 ADD SWAP1 PUSH2 0x418 SWAP2 SWAP1 PUSH2 0x2F8F JUMP JUMPDEST PUSH2 0xDB9 JUMP JUMPDEST STOP JUMPDEST CALLVALUE DUP1 ISZERO PUSH2 0x42B JUMPI PUSH1 0x0 DUP1 REVERT JUMPDEST POP PUSH2 0x446 PUSH1 0x4 DUP1 CALLDATASIZE SUB DUP2 ADD SWAP1 PUSH2 0x441 SWAP2 SWAP1 PUSH2 0x3018 JUMP JUMPDEST PUSH2 0x107A JUMP JUMPDEST PUSH1 0x40 MLOAD PUSH2 0x453 SWAP2 SWAP1 PUSH2 0x3054 JUMP JUMPDEST PUSH1 0x40 MLOAD DUP1 SWAP2 SUB SWAP1 RETURN JUMPDEST CALLVALUE DUP1 ISZERO PUSH2 0x468 JUMPI PUSH1 0x0 DUP1 REVERT JUMPDEST POP PUSH2 0x471 PUSH2 0x109A JUMP JUMPDEST PUSH1 0x40 MLOAD PUSH2 0x47E SWAP2 SWAP1 PUSH2 0x2C9A JUMP JUMPDEST PUSH1 0x40 MLOAD DUP1 SWAP2 SUB SWAP1 RETURN JUMPDEST CALLVALUE DUP1 ISZERO PUSH2 0x493 JUMPI PUSH1 0x0 DUP1 REVERT JUMPDEST POP PUSH2 0x4AE PUSH1 0x4 DUP1 CALLDATASIZE SUB DUP2 ADD SWAP1 PUSH2 0x4A9 SWAP2 SWAP1 PUSH2 0x306F JUMP JUMPDEST PUSH2 0x1128 JUMP JUMPDEST STOP JUMPDEST CALLVALUE DUP1 ISZERO PUSH2 0x4BC JUMPI PUSH1 0x0 DUP1 REVERT JUMPDEST POP PUSH2 0x4C5 PUSH2 0x114A JUMP JUMPDEST PUSH1 0x40 MLOAD PUSH2 0x4D2 SWAP2 SWAP1 PUSH2 0x2C9A JUMP JUMPDEST PUSH1 0x40 MLOAD DUP1 SWAP2 SUB SWAP1 RETURN JUMPDEST CALLVALUE DUP1 ISZERO PUSH2 0x4E7 JUMPI PUSH1 0x0 DUP1 REVERT JUMPDEST POP PUSH2 0x502 PUSH1 0x4 DUP1 CALLDATASIZE SUB DUP2 ADD SWAP1 PUSH2 0x4FD SWAP2 SWAP1 PUSH2 0x2F46 JUMP JUMPDEST PUSH2 0x11D8 JUMP JUMPDEST STOP JUMPDEST CALLVALUE DUP1 ISZERO PUSH2 0x510 JUMPI PUSH1 0x0 DUP1 REVERT JUMPDEST POP PUSH2 0x52B PUSH1 0x4 DUP1 CALLDATASIZE SUB DUP2 ADD SWAP1 PUSH2 0x526 SWAP2 SWAP1 PUSH2 0x306F JUMP JUMPDEST PUSH2 0x1243 JUMP JUMPDEST STOP JUMPDEST CALLVALUE DUP1 ISZERO PUSH2 0x539 JUMPI PUSH1 0x0 DUP1 REVERT JUMPDEST POP PUSH2 0x542 PUSH2 0x12BE JUMP JUMPDEST PUSH1 0x40 MLOAD PUSH2 0x54F SWAP2 SWAP1 PUSH2 0x2C9A JUMP JUMPDEST PUSH1 0x40 MLOAD DUP1 SWAP2 SUB SWAP1 RETURN JUMPDEST PUSH2 0x572 PUSH1 0x4 DUP1 CALLDATASIZE SUB DUP2 ADD SWAP1 PUSH2 0x56D SWAP2 SWAP1 PUSH2 0x2F8F JUMP JUMPDEST PUSH2 0x134C JUMP JUMPDEST STOP JUMPDEST CALLVALUE DUP1 ISZERO PUSH2 0x580 JUMPI PUSH1 0x0 DUP1 REVERT JUMPDEST POP PUSH2 0x59B PUSH1 0x4 DUP1 CALLDATASIZE SUB DUP2 ADD SWAP1 PUSH2 0x596 SWAP2 SWAP1 PUSH2 0x2CF2 JUMP JUMPDEST PUSH2 0x136C JUMP JUMPDEST PUSH1 0x40 MLOAD PUSH2 0x5A8 SWAP2 SWAP1 PUSH2 0x2DF6 JUMP JUMPDEST PUSH1 0x40 MLOAD DUP1 SWAP2 SUB SWAP1 RETURN JUMPDEST CALLVALUE DUP1 ISZERO PUSH2 0x5BD JUMPI PUSH1 0x0 DUP1 REVERT JUMPDEST POP PUSH2 0x5D8 PUSH1 0x4 DUP1 CALLDATASIZE SUB DUP2 ADD SWAP1 PUSH2 0x5D3 SWAP2 SWAP1 PUSH2 0x30AF JUMP JUMPDEST PUSH2 0x1432 JUMP JUMPDEST STOP JUMPDEST CALLVALUE DUP1 ISZERO PUSH2 0x5E6 JUMPI PUSH1 0x0 DUP1 REVERT JUMPDEST POP PUSH2 0x601 PUSH1 0x4 DUP1 CALLDATASIZE SUB DUP2 ADD SWAP1 PUSH2 0x5FC SWAP2 SWAP1 PUSH2 0x2CF2 JUMP JUMPDEST PUSH2 0x1516 JUMP JUMPDEST PUSH1 0x40 MLOAD PUSH2 0x60E SWAP2 SWAP1 PUSH2 0x2D60 JUMP JUMPDEST PUSH1 0x40 MLOAD DUP1 SWAP2 SUB SWAP1 RETURN JUMPDEST CALLVALUE DUP1 ISZERO PUSH2 0x623 JUMPI PUSH1 0x0 DUP1 REVERT JUMPDEST POP PUSH2 0x63E PUSH1 0x4 DUP1 CALLDATASIZE SUB DUP2 ADD SWAP1 PUSH2 0x639 SWAP2 SWAP1 PUSH2 0x30EF JUMP JUMPDEST PUSH2 0x1528 JUMP JUMPDEST PUSH1 0x40 MLOAD PUSH2 0x64B SWAP2 SWAP1 PUSH2 0x2DF6 JUMP JUMPDEST PUSH1 0x40 MLOAD DUP1 SWAP2 SUB SWAP1 RETURN JUMPDEST CALLVALUE DUP1 ISZERO PUSH2 0x660 JUMPI PUSH1 0x0 DUP1 REVERT JUMPDEST POP PUSH2 0x669 PUSH2 0x15BF JUMP JUMPDEST STOP JUMPDEST CALLVALUE DUP1 ISZERO PUSH2 0x677 JUMPI PUSH1 0x0 DUP1 REVERT JUMPDEST POP PUSH2 0x680 PUSH2 0x15D3 JUMP JUMPDEST PUSH1 0x40 MLOAD PUSH2 0x68D SWAP2 SWAP1 PUSH2 0x2DF6 JUMP JUMPDEST PUSH1 0x40 MLOAD DUP1 SWAP2 SUB SWAP1 RETURN JUMPDEST CALLVALUE DUP1 ISZERO PUSH2 0x6A2 JUMPI PUSH1 0x0 DUP1 REVERT JUMPDEST POP PUSH2 0x6AB PUSH2 0x15D9 JUMP JUMPDEST PUSH1 0x40 MLOAD PUSH2 0x6B8 SWAP2 SWAP1 PUSH2 0x2C9A JUMP JUMPDEST PUSH1 0x40 MLOAD DUP1 SWAP2 SUB SWAP1 RETURN JUMPDEST CALLVALUE DUP1 ISZERO PUSH2 0x6CD JUMPI PUSH1 0x0 DUP1 REVERT JUMPDEST POP PUSH2 0x6E8 PUSH1 0x4 DUP1 CALLDATASIZE SUB DUP2 ADD SWAP1 PUSH2 0x6E3 SWAP2 SWAP1 PUSH2 0x2F46 JUMP JUMPDEST PUSH2 0x1667 JUMP JUMPDEST STOP JUMPDEST CALLVALUE DUP1 ISZERO PUSH2 0x6F6 JUMPI PUSH1 0x0 DUP1 REVERT JUMPDEST POP PUSH2 0x6FF PUSH2 0x16D2 JUMP JUMPDEST PUSH1 0x40 MLOAD PUSH2 0x70C SWAP2 SWAP1 PUSH2 0x2D60 JUMP JUMPDEST PUSH1 0x40 MLOAD DUP1 SWAP2 SUB SWAP1 RETURN JUMPDEST CALLVALUE DUP1 ISZERO PUSH2 0x721 JUMPI PUSH1 0x0 DUP1 REVERT JUMPDEST POP PUSH2 0x73C PUSH1 0x4 DUP1 CALLDATASIZE SUB DUP2 ADD SWAP1 PUSH2 0x737 SWAP2 SWAP1 PUSH2 0x2F46 JUMP JUMPDEST PUSH2 0x16FC JUMP JUMPDEST STOP JUMPDEST CALLVALUE DUP1 ISZERO PUSH2 0x74A JUMPI PUSH1 0x0 DUP1 REVERT JUMPDEST POP PUSH2 0x765 PUSH1 0x4 DUP1 CALLDATASIZE SUB DUP2 ADD SWAP1 PUSH2 0x760 SWAP2 SWAP1 PUSH2 0x306F JUMP JUMPDEST PUSH2 0x1767 JUMP JUMPDEST PUSH1 0x40 MLOAD PUSH2 0x772 SWAP2 SWAP1 PUSH2 0x2BEF JUMP JUMPDEST PUSH1 0x40 MLOAD DUP1 SWAP2 SUB SWAP1 RETURN JUMPDEST CALLVALUE DUP1 ISZERO PUSH2 0x787 JUMPI PUSH1 0x0 DUP1 REVERT JUMPDEST POP PUSH2 0x790 PUSH2 0x17D2 JUMP JUMPDEST PUSH1 0x40 MLOAD PUSH2 0x79D SWAP2 SWAP1 PUSH2 0x2C9A JUMP JUMPDEST PUSH1 0x40 MLOAD DUP1 SWAP2 SUB SWAP1 RETURN JUMPDEST PUSH2 0x7C0 PUSH1 0x4 DUP1 CALLDATASIZE SUB DUP2 ADD SWAP1 PUSH2 0x7BB SWAP2 SWAP1 PUSH2 0x2CF2 JUMP JUMPDEST PUSH2 0x1864 JUMP JUMPDEST STOP JUMPDEST CALLVALUE DUP1 ISZERO PUSH2 0x7CE JUMPI PUSH1 0x0 DUP1 REVERT JUMPDEST POP PUSH2 0x7D7 PUSH2 0x197E JUMP JUMPDEST PUSH1 0x40 MLOAD PUSH2 0x7E4 SWAP2 SWAP1 PUSH2 0x2DF6 JUMP JUMPDEST PUSH1 0x40 MLOAD DUP1 SWAP2 SUB SWAP1 RETURN JUMPDEST CALLVALUE DUP1 ISZERO PUSH2 0x7F9 JUMPI PUSH1 0x0 DUP1 REVERT JUMPDEST POP PUSH2 0x802 PUSH2 0x1984 JUMP JUMPDEST PUSH1 0x40 MLOAD PUSH2 0x80F SWAP2 SWAP1 PUSH2 0x3054 JUMP JUMPDEST PUSH1 0x40 MLOAD DUP1 SWAP2 SUB SWAP1 RETURN JUMPDEST CALLVALUE DUP1 ISZERO PUSH2 0x824 JUMPI PUSH1 0x0 DUP1 REVERT JUMPDEST POP PUSH2 0x83F PUSH1 0x4 DUP1 CALLDATASIZE SUB DUP2 ADD SWAP1 PUSH2 0x83A SWAP2 SWAP1 PUSH2 0x3148 JUMP JUMPDEST PUSH2 0x198B JUMP JUMPDEST STOP JUMPDEST CALLVALUE DUP1 ISZERO PUSH2 0x84D JUMPI PUSH1 0x0 DUP1 REVERT JUMPDEST POP PUSH2 0x856 PUSH2 0x1A96 JUMP JUMPDEST PUSH1 0x40 MLOAD PUSH2 0x863 SWAP2 SWAP1 PUSH2 0x2DF6 JUMP JUMPDEST PUSH1 0x40 MLOAD DUP1 SWAP2 SUB SWAP1 RETURN JUMPDEST CALLVALUE DUP1 ISZERO PUSH2 0x878 JUMPI PUSH1 0x0 DUP1 REVERT JUMPDEST POP PUSH2 0x881 PUSH2 0x1A9C JUMP JUMPDEST PUSH1 0x40 MLOAD PUSH2 0x88E SWAP2 SWAP1 PUSH2 0x2C9A JUMP JUMPDEST PUSH1 0x40 MLOAD DUP1 SWAP2 SUB SWAP1 RETURN JUMPDEST PUSH2 0x8B1 PUSH1 0x4 DUP1 CALLDATASIZE SUB DUP2 ADD SWAP1 PUSH2 0x8AC SWAP2 SWAP1 PUSH2 0x3229 JUMP JUMPDEST PUSH2 0x1B2A JUMP JUMPDEST STOP JUMPDEST CALLVALUE DUP1 ISZERO PUSH2 0x8BF JUMPI PUSH1 0x0 DUP1 REVERT JUMPDEST POP PUSH2 0x8DA PUSH1 0x4 DUP1 CALLDATASIZE SUB DUP2 ADD SWAP1 PUSH2 0x8D5 SWAP2 SWAP1 PUSH2 0x2CF2 JUMP JUMPDEST PUSH2 0x1B7C JUMP JUMPDEST PUSH1 0x40 MLOAD PUSH2 0x8E7 SWAP2 SWAP1 PUSH2 0x2C9A JUMP JUMPDEST PUSH1 0x40 MLOAD DUP1 SWAP2 SUB SWAP1 RETURN JUMPDEST CALLVALUE DUP1 ISZERO PUSH2 0x8FC JUMPI PUSH1 0x0 DUP1 REVERT JUMPDEST POP PUSH2 0x905 PUSH2 0x1BF0 JUMP JUMPDEST PUSH1 0x40 MLOAD PUSH2 0x912 SWAP2 SWAP1 PUSH2 0x2BEF JUMP JUMPDEST PUSH1 0x40 MLOAD DUP1 SWAP2 SUB SWAP1 RETURN JUMPDEST CALLVALUE DUP1 ISZERO PUSH2 0x927 JUMPI PUSH1 0x0 DUP1 REVERT JUMPDEST POP PUSH2 0x942 PUSH1 0x4 DUP1 CALLDATASIZE SUB DUP2 ADD SWAP1 PUSH2 0x93D SWAP2 SWAP1 PUSH2 0x32AC JUMP JUMPDEST PUSH2 0x1C03 JUMP JUMPDEST STOP JUMPDEST CALLVALUE DUP1 ISZERO PUSH2 0x950 JUMPI PUSH1 0x0 DUP1 REVERT JUMPDEST POP PUSH2 0x959 PUSH2 0x1CDC JUMP JUMPDEST PUSH1 0x40 MLOAD PUSH2 0x966 SWAP2 SWAP1 PUSH2 0x3054 JUMP JUMPDEST PUSH1 0x40 MLOAD DUP1 SWAP2 SUB SWAP1 RETURN JUMPDEST CALLVALUE DUP1 ISZERO PUSH2 0x97B JUMPI PUSH1 0x0 DUP1 REVERT JUMPDEST POP PUSH2 0x996 PUSH1 0x4 DUP1 CALLDATASIZE SUB DUP2 ADD SWAP1 PUSH2 0x991 SWAP2 SWAP1 PUSH2 0x306F JUMP JUMPDEST PUSH2 0x1D00 JUMP JUMPDEST STOP JUMPDEST CALLVALUE DUP1 ISZERO PUSH2 0x9A4 JUMPI PUSH1 0x0 DUP1 REVERT JUMPDEST POP PUSH2 0x9AD PUSH2 0x1D22 JUMP JUMPDEST PUSH1 0x40 MLOAD PUSH2 0x9BA SWAP2 SWAP1 PUSH2 0x2DF6 JUMP JUMPDEST PUSH1 0x40 MLOAD DUP1 SWAP2 SUB SWAP1 RETURN JUMPDEST CALLVALUE DUP1 ISZERO PUSH2 0x9CF JUMPI PUSH1 0x0 DUP1 REVERT JUMPDEST POP PUSH2 0x9EA PUSH1 0x4 DUP1 CALLDATASIZE SUB DUP2 ADD SWAP1 PUSH2 0x9E5 SWAP2 SWAP1 PUSH2 0x2CF2 JUMP JUMPDEST PUSH2 0x1D28 JUMP JUMPDEST PUSH1 0x40 MLOAD PUSH2 0x9F7 SWAP2 SWAP1 PUSH2 0x2DF6 JUMP JUMPDEST PUSH1 0x40 MLOAD DUP1 SWAP2 SUB SWAP1 RETURN JUMPDEST CALLVALUE DUP1 ISZERO PUSH2 0xA0C JUMPI PUSH1 0x0 DUP1 REVERT JUMPDEST POP PUSH2 0xA27 PUSH1 0x4 DUP1 CALLDATASIZE SUB DUP2 ADD SWAP1 PUSH2 0xA22 SWAP2 SWAP1 PUSH2 0x3412 JUMP JUMPDEST PUSH2 0x1D40 JUMP JUMPDEST PUSH1 0x40 MLOAD PUSH2 0xA34 SWAP2 SWAP1 PUSH2 0x2BEF JUMP JUMPDEST PUSH1 0x40 MLOAD DUP1 SWAP2 SUB SWAP1 RETURN JUMPDEST CALLVALUE DUP1 ISZERO PUSH2 0xA49 JUMPI PUSH1 0x0 DUP1 REVERT JUMPDEST POP PUSH2 0xA52 PUSH2 0x1DD4 JUMP JUMPDEST PUSH1 0x40 MLOAD PUSH2 0xA5F SWAP2 SWAP1 PUSH2 0x2DF6 JUMP JUMPDEST PUSH1 0x40 MLOAD DUP1 SWAP2 SUB SWAP1 RETURN JUMPDEST CALLVALUE DUP1 ISZERO PUSH2 0xA74 JUMPI PUSH1 0x0 DUP1 REVERT JUMPDEST POP PUSH2 0xA8F PUSH1 0x4 DUP1 CALLDATASIZE SUB DUP2 ADD SWAP1 PUSH2 0xA8A SWAP2 SWAP1 PUSH2 0x30EF JUMP JUMPDEST PUSH2 0x1DDA JUMP JUMPDEST STOP JUMPDEST CALLVALUE DUP1 ISZERO PUSH2 0xA9D JUMPI PUSH1 0x0 DUP1 REVERT JUMPDEST POP PUSH2 0xAA6 PUSH2 0x1E60 JUMP JUMPDEST STOP JUMPDEST CALLVALUE DUP1 ISZERO PUSH2 0xAB4 JUMPI PUSH1 0x0 DUP1 REVERT JUMPDEST POP PUSH2 0xABD PUSH2 0x1ED5 JUMP JUMPDEST PUSH1 0x40 MLOAD PUSH2 0xACA SWAP2 SWAP1 PUSH2 0x2C9A JUMP JUMPDEST PUSH1 0x40 MLOAD DUP1 SWAP2 SUB SWAP1 RETURN JUMPDEST PUSH1 0x0 PUSH2 0xADE DUP3 PUSH2 0x1F63 JUMP JUMPDEST SWAP1 POP SWAP2 SWAP1 POP JUMP JUMPDEST PUSH1 0x15 DUP1 SLOAD PUSH2 0xAF2 SWAP1 PUSH2 0x3481 JUMP JUMPDEST DUP1 PUSH1 0x1F ADD PUSH1 0x20 DUP1 SWAP2 DIV MUL PUSH1 0x20 ADD PUSH1 0x40 MLOAD SWAP1 DUP2 ADD PUSH1 0x40 MSTORE DUP1 SWAP3 SWAP2 SWAP1 DUP2 DUP2 MSTORE PUSH1 0x20 ADD DUP3 DUP1 SLOAD PUSH2 0xB1E SWAP1 PUSH2 0x3481 JUMP JUMPDEST DUP1 ISZERO PUSH2 0xB6B JUMPI DUP1 PUSH1 0x1F LT PUSH2 0xB40 JUMPI PUSH2 0x100 DUP1 DUP4 SLOAD DIV MUL DUP4 MSTORE SWAP2 PUSH1 0x20 ADD SWAP2 PUSH2 0xB6B JUMP JUMPDEST DUP3 ADD SWAP2 SWAP1 PUSH1 0x0 MSTORE PUSH1 0x20 PUSH1 0x0 KECCAK256 SWAP1 JUMPDEST DUP2 SLOAD DUP2 MSTORE SWAP1 PUSH1 0x1 ADD SWAP1 PUSH1 0x20 ADD DUP1 DUP4 GT PUSH2 0xB4E JUMPI DUP3 SWAP1 SUB PUSH1 0x1F AND DUP3 ADD SWAP2 JUMPDEST POP POP POP POP POP DUP2 JUMP JUMPDEST PUSH1 0x60 PUSH1 0x2 DUP1 SLOAD PUSH2 0xB82 SWAP1 PUSH2 0x3481 JUMP JUMPDEST DUP1 PUSH1 0x1F ADD PUSH1 0x20 DUP1 SWAP2 DIV MUL PUSH1 0x20 ADD PUSH1 0x40 MLOAD SWAP1 DUP2 ADD PUSH1 0x40 MSTORE DUP1 SWAP3 SWAP2 SWAP1 DUP2 DUP2 MSTORE PUSH1 0x20 ADD DUP3 DUP1 SLOAD PUSH2 0xBAE SWAP1 PUSH2 0x3481 JUMP JUMPDEST DUP1 ISZERO PUSH2 0xBFB JUMPI DUP1 PUSH1 0x1F LT PUSH2 0xBD0 JUMPI PUSH2 0x100 DUP1 DUP4 SLOAD DIV MUL DUP4 MSTORE SWAP2 PUSH1 0x20 ADD SWAP2 PUSH2 0xBFB JUMP JUMPDEST DUP3 ADD SWAP2 SWAP1 PUSH1 0x0 MSTORE PUSH1 0x20 PUSH1 0x0 KECCAK256 SWAP1 JUMPDEST DUP2 SLOAD DUP2 MSTORE SWAP1 PUSH1 0x1 ADD SWAP1 PUSH1 0x20 ADD DUP1 DUP4 GT PUSH2 0xBDE JUMPI DUP3 SWAP1 SUB PUSH1 0x1F AND DUP3 ADD SWAP2 JUMPDEST POP POP POP POP POP SWAP1 POP SWAP1 JUMP JUMPDEST PUSH1 0x0 PUSH2 0xC10 DUP3 PUSH2 0x1FDD JUMP JUMPDEST PUSH2 0xC25 JUMPI PUSH2 0xC24 PUSH4 0xCF4700E4 PUSH1 0xE0 SHL PUSH2 0x2089 JUMP JUMPDEST JUMPDEST PUSH1 0x6 PUSH1 0x0 DUP4 DUP2 MSTORE PUSH1 0x20 ADD SWAP1 DUP2 MSTORE PUSH1 0x20 ADD PUSH1 0x0 KECCAK256 PUSH1 0x0 ADD PUSH1 0x0 SWAP1 SLOAD SWAP1 PUSH2 0x100 EXP SWAP1 DIV PUSH20 0xFFFFFFFFFFFFFFFFFFFFFFFFFFFFFFFFFFFFFFFF AND SWAP1 POP SWAP2 SWAP1 POP JUMP JUMPDEST PUSH2 0xC6F DUP3 DUP3 PUSH1 0x1 PUSH2 0x2093 JUMP JUMPDEST POP POP JUMP JUMPDEST PUSH1 0x12 DUP1 SLOAD PUSH2 0xC80 SWAP1 PUSH2 0x3481 JUMP JUMPDEST DUP1 PUSH1 0x1F ADD PUSH1 0x20 DUP1 SWAP2 DIV MUL PUSH1 0x20 ADD PUSH1 0x40 MLOAD SWAP1 DUP2 ADD PUSH1 0x40 MSTORE DUP1 SWAP3 SWAP2 SWAP1 DUP2 DUP2 MSTORE PUSH1 0x20 ADD DUP3 DUP1 SLOAD PUSH2 0xCAC SWAP1 PUSH2 0x3481 JUMP JUMPDEST DUP1 ISZERO PUSH2 0xCF9 JUMPI DUP1 PUSH1 0x1F LT PUSH2 0xCCE JUMPI PUSH2 0x100 DUP1 DUP4 SLOAD DIV MUL DUP4 MSTORE SWAP2 PUSH1 0x20 ADD SWAP2 PUSH2 0xCF9 JUMP JUMPDEST DUP3 ADD SWAP2 SWAP1 PUSH1 0x0 MSTORE PUSH1 0x20 PUSH1 0x0 KECCAK256 SWAP1 JUMPDEST DUP2 SLOAD DUP2 MSTORE SWAP1 PUSH1 0x1 ADD SWAP1 PUSH1 0x20 ADD DUP1 DUP4 GT PUSH2 0xCDC JUMPI DUP3 SWAP1 SUB PUSH1 0x1F AND DUP3 ADD SWAP2 JUMPDEST POP POP POP POP POP DUP2 JUMP JUMPDEST PUSH1 0x0 PUSH2 0xD0B PUSH2 0x21C2 JUMP JUMPDEST PUSH1 0x1 SLOAD PUSH1 0x0 SLOAD SUB SUB SWAP1 POP PUSH32 0xFFFFFFFFFFFFFFFFFFFFFFFFFFFFFFFFFFFFFFFFFFFFFFFFFFFFFFFFFFFFFFFF PUSH2 0xD3E PUSH2 0x21C7 JUMP JUMPDEST EQ PUSH2 0xD4B JUMPI PUSH1 0x8 SLOAD DUP2 ADD SWAP1 POP JUMPDEST SWAP1 JUMP JUMPDEST PUSH2 0xD56 PUSH2 0x21EF JUMP JUMPDEST PUSH1 0xC PUSH1 0x0 SWAP1 SLOAD SWAP1 PUSH2 0x100 EXP SWAP1 DIV PUSH1 0xFF AND ISZERO PUSH2 0xDA6 JUMPI PUSH1 0x40 MLOAD PUSH32 0x8C379A000000000000000000000000000000000000000000000000000000000 DUP2 MSTORE PUSH1 0x4 ADD PUSH2 0xD9D SWAP1 PUSH2 0x34FE JUMP JUMPDEST PUSH1 0x40 MLOAD DUP1 SWAP2 SUB SWAP1 REVERT JUMPDEST DUP1 PUSH1 0xE SWAP1 DUP2 PUSH2 0xDB5 SWAP2 SWAP1 PUSH2 0x36CA JUMP JUMPDEST POP POP JUMP JUMPDEST PUSH1 0x0 PUSH2 0xDC4 DUP3 PUSH2 0x2276 JUMP JUMPDEST SWAP1 POP PUSH20 0xFFFFFFFFFFFFFFFFFFFFFFFFFFFFFFFFFFFFFFFF DUP5 PUSH20 0xFFFFFFFFFFFFFFFFFFFFFFFFFFFFFFFFFFFFFFFF AND AND SWAP4 POP DUP4 PUSH20 0xFFFFFFFFFFFFFFFFFFFFFFFFFFFFFFFFFFFFFFFF AND DUP2 PUSH20 0xFFFFFFFFFFFFFFFFFFFFFFFFFFFFFFFFFFFFFFFF AND EQ PUSH2 0xE39 JUMPI PUSH2 0xE38 PUSH4 0xA1148100 PUSH1 0xE0 SHL PUSH2 0x2089 JUMP JUMPDEST JUMPDEST PUSH1 0x0 DUP1 PUSH2 0xE45 DUP5 PUSH2 0x238F JUMP JUMPDEST SWAP2 POP SWAP2 POP PUSH2 0xE5B DUP2 DUP8 PUSH2 0xE56 PUSH2 0x23B6 JUMP JUMPDEST PUSH2 0x23BE JUMP JUMPDEST PUSH2 0xE86 JUMPI PUSH2 0xE70 DUP7 PUSH2 0xE6B PUSH2 0x23B6 JUMP JUMPDEST PUSH2 0x1D40 JUMP JUMPDEST PUSH2 0xE85 JUMPI PUSH2 0xE84 PUSH4 0x59C896BE PUSH1 0xE0 SHL PUSH2 0x2089 JUMP JUMPDEST JUMPDEST JUMPDEST PUSH2 0xE93 DUP7 DUP7 DUP7 PUSH1 0x1 PUSH2 0x2402 JUMP JUMPDEST DUP1 ISZERO PUSH2 0xE9E JUMPI PUSH1 0x0 DUP3 SSTORE JUMPDEST PUSH1 0x5 PUSH1 0x0 DUP8 PUSH20 0xFFFFFFFFFFFFFFFFFFFFFFFFFFFFFFFFFFFFFFFF AND PUSH20 0xFFFFFFFFFFFFFFFFFFFFFFFFFFFFFFFFFFFFFFFF AND DUP2 MSTORE PUSH1 0x20 ADD SWAP1 DUP2 MSTORE PUSH1 0x20 ADD PUSH1 0x0 KECCAK256 PUSH1 0x0 DUP2 SLOAD PUSH1 0x1 SWAP1 SUB SWAP2 SWAP1 POP DUP2 SWAP1 SSTORE POP PUSH1 0x5 PUSH1 0x0 DUP7 PUSH20 0xFFFFFFFFFFFFFFFFFFFFFFFFFFFFFFFFFFFFFFFF AND PUSH20 0xFFFFFFFFFFFFFFFFFFFFFFFFFFFFFFFFFFFFFFFF AND DUP2 MSTORE PUSH1 0x20 ADD SWAP1 DUP2 MSTORE PUSH1 0x20 ADD PUSH1 0x0 KECCAK256 PUSH1 0x0 DUP2 SLOAD PUSH1 0x1 ADD SWAP2 SWAP1 POP DUP2 SWAP1 SSTORE POP PUSH2 0xF6C DUP6 PUSH2 0xF48 DUP9 DUP9 DUP8 PUSH2 0x2408 JUMP JUMPDEST PUSH29 0x200000000000000000000000000000000000000000000000000000000 OR PUSH2 0x2430 JUMP JUMPDEST PUSH1 0x4 PUSH1 0x0 DUP7 DUP2 MSTORE PUSH1 0x20 ADD SWAP1 DUP2 MSTORE PUSH1 0x20 ADD PUSH1 0x0 KECCAK256 DUP2 SWAP1 SSTORE POP PUSH1 0x0 PUSH29 0x200000000000000000000000000000000000000000000000000000000 DUP5 AND SUB PUSH2 0xFF2 JUMPI PUSH1 0x0 PUSH1 0x1 DUP6 ADD SWAP1 POP PUSH1 0x0 PUSH1 0x4 PUSH1 0x0 DUP4 DUP2 MSTORE PUSH1 0x20 ADD SWAP1 DUP2 MSTORE PUSH1 0x20 ADD PUSH1 0x0 KECCAK256 SLOAD SUB PUSH2 0xFF0 JUMPI PUSH1 0x0 SLOAD DUP2 EQ PUSH2 0xFEF JUMPI DUP4 PUSH1 0x4 PUSH1 0x0 DUP4 DUP2 MSTORE PUSH1 0x20 ADD SWAP1 DUP2 MSTORE PUSH1 0x20 ADD PUSH1 0x0 KECCAK256 DUP2 SWAP1 SSTORE POP JUMPDEST JUMPDEST POP JUMPDEST PUSH1 0x0 PUSH20 0xFFFFFFFFFFFFFFFFFFFFFFFFFFFFFFFFFFFFFFFF DUP7 PUSH20 0xFFFFFFFFFFFFFFFFFFFFFFFFFFFFFFFFFFFFFFFF AND AND SWAP1 POP DUP5 DUP2 DUP9 PUSH32 0xDDF252AD1BE2C89B69C2B068FC378DAA952BA7F163C4A11628F55A4DF523B3EF PUSH1 0x0 DUP1 LOG4 PUSH1 0x0 DUP2 SUB PUSH2 0x1064 JUMPI PUSH2 0x1063 PUSH4 0xEA553B34 PUSH1 0xE0 SHL PUSH2 0x2089 JUMP JUMPDEST JUMPDEST PUSH2 0x1071 DUP8 DUP8 DUP8 PUSH1 0x1 PUSH2 0x245B JUMP JUMPDEST POP POP POP POP POP POP POP JUMP JUMPDEST PUSH1 0x0 PUSH1 0xA PUSH1 0x0 DUP4 DUP2 MSTORE PUSH1 0x20 ADD SWAP1 DUP2 MSTORE PUSH1 0x20 ADD PUSH1 0x0 KECCAK256 PUSH1 0x1 ADD SLOAD SWAP1 POP SWAP2 SWAP1 POP JUMP JUMPDEST PUSH1 0x11 DUP1 SLOAD PUSH2 0x10A7 SWAP1 PUSH2 0x3481 JUMP JUMPDEST DUP1 PUSH1 0x1F ADD PUSH1 0x20 DUP1 SWAP2 DIV MUL PUSH1 0x20 ADD PUSH1 0x40 MLOAD SWAP1 DUP2 ADD PUSH1 0x40 MSTORE DUP1 SWAP3 SWAP2 SWAP1 DUP2 DUP2 MSTORE PUSH1 0x20 ADD DUP3 DUP1 SLOAD PUSH2 0x10D3 SWAP1 PUSH2 0x3481 JUMP JUMPDEST DUP1 ISZERO PUSH2 0x1120 JUMPI DUP1 PUSH1 0x1F LT PUSH2 0x10F5 JUMPI PUSH2 0x100 DUP1 DUP4 SLOAD DIV MUL DUP4 MSTORE SWAP2 PUSH1 0x20 ADD SWAP2 PUSH2 0x1120 JUMP JUMPDEST DUP3 ADD SWAP2 SWAP1 PUSH1 0x0 MSTORE PUSH1 0x20 PUSH1 0x0 KECCAK256 SWAP1 JUMPDEST DUP2 SLOAD DUP2 MSTORE SWAP1 PUSH1 0x1 ADD SWAP1 PUSH1 0x20 ADD DUP1 DUP4 GT PUSH2 0x1103 JUMPI DUP3 SWAP1 SUB PUSH1 0x1F AND DUP3 ADD SWAP2 JUMPDEST POP POP POP POP POP DUP2 JUMP JUMPDEST PUSH2 0x1131 DUP3 PUSH2 0x107A JUMP JUMPDEST PUSH2 0x113A DUP2 PUSH2 0x2461 JUMP JUMPDEST PUSH2 0x1144 DUP4 DUP4 PUSH2 0x2475 JUMP JUMPDEST POP POP POP POP JUMP JUMPDEST PUSH1 0x14 DUP1 SLOAD PUSH2 0x1157 SWAP1 PUSH2 0x3481 JUMP JUMPDEST DUP1 PUSH1 0x1F ADD PUSH1 0x20 DUP1 SWAP2 DIV MUL PUSH1 0x20 ADD PUSH1 0x40 MLOAD SWAP1 DUP2 ADD PUSH1 0x40 MSTORE DUP1 SWAP3 SWAP2 SWAP1 DUP2 DUP2 MSTORE PUSH1 0x20 ADD DUP3 DUP1 SLOAD PUSH2 0x1183 SWAP1 PUSH2 0x3481 JUMP JUMPDEST DUP1 ISZERO PUSH2 0x11D0 JUMPI DUP1 PUSH1 0x1F LT PUSH2 0x11A5 JUMPI PUSH2 0x100 DUP1 DUP4 SLOAD DIV MUL DUP4 MSTORE SWAP2 PUSH1 0x20 ADD SWAP2 PUSH2 0x11D0 JUMP JUMPDEST DUP3 ADD SWAP2 SWAP1 PUSH1 0x0 MSTORE PUSH1 0x20 PUSH1 0x0 KECCAK256 SWAP1 JUMPDEST DUP2 SLOAD DUP2 MSTORE SWAP1 PUSH1 0x1 ADD SWAP1 PUSH1 0x20 ADD DUP1 DUP4 GT PUSH2 0x11B3 JUMPI DUP3 SWAP1 SUB PUSH1 0x1F AND DUP3 ADD SWAP2 JUMPDEST POP POP POP POP POP DUP2 JUMP JUMPDEST PUSH2 0x11E0 PUSH2 0x21EF JUMP JUMPDEST PUSH1 0xC PUSH1 0x0 SWAP1 SLOAD SWAP1 PUSH2 0x100 EXP SWAP1 DIV PUSH1 0xFF AND ISZERO PUSH2 0x1230 JUMPI PUSH1 0x40 MLOAD PUSH32 0x8C379A000000000000000000000000000000000000000000000000000000000 DUP2 MSTORE PUSH1 0x4 ADD PUSH2 0x1227 SWAP1 PUSH2 0x34FE JUMP JUMPDEST PUSH1 0x40 MLOAD DUP1 SWAP2 SUB SWAP1 REVERT JUMPDEST DUP1 PUSH1 0x11 SWAP1 DUP2 PUSH2 0x123F SWAP2 SWAP1 PUSH2 0x36CA JUMP JUMPDEST POP POP JUMP JUMPDEST PUSH2 0x124B PUSH2 0x2567 JUMP JUMPDEST PUSH20 0xFFFFFFFFFFFFFFFFFFFFFFFFFFFFFFFFFFFFFFFF AND DUP2 PUSH20 0xFFFFFFFFFFFFFFFFFFFFFFFFFFFFFFFFFFFFFFFF AND EQ PUSH2 0x12AF JUMPI PUSH1 0x40 MLOAD PUSH32 0x6697B23200000000000000000000000000000000000000000000000000000000 DUP2 MSTORE PUSH1 0x4 ADD PUSH1 0x40 MLOAD DUP1 SWAP2 SUB SWAP1 REVERT JUMPDEST PUSH2 0x12B9 DUP3 DUP3 PUSH2 0x256F JUMP JUMPDEST POP POP POP JUMP JUMPDEST PUSH1 0xF DUP1 SLOAD PUSH2 0x12CB SWAP1 PUSH2 0x3481 JUMP JUMPDEST DUP1 PUSH1 0x1F ADD PUSH1 0x20 DUP1 SWAP2 DIV MUL PUSH1 0x20 ADD PUSH1 0x40 MLOAD SWAP1 DUP2 ADD PUSH1 0x40 MSTORE DUP1 SWAP3 SWAP2 SWAP1 DUP2 DUP2 MSTORE PUSH1 0x20 ADD DUP3 DUP1 SLOAD PUSH2 0x12F7 SWAP1 PUSH2 0x3481 JUMP JUMPDEST DUP1 ISZERO PUSH2 0x1344 JUMPI DUP1 PUSH1 0x1F LT PUSH2 0x1319 JUMPI PUSH2 0x100 DUP1 DUP4 SLOAD DIV MUL DUP4 MSTORE SWAP2 PUSH1 0x20 ADD SWAP2 PUSH2 0x1344 JUMP JUMPDEST DUP3 ADD SWAP2 SWAP1 PUSH1 0x0 MSTORE PUSH1 0x20 PUSH1 0x0 KECCAK256 SWAP1 JUMPDEST DUP2 SLOAD DUP2 MSTORE SWAP1 PUSH1 0x1 ADD SWAP1 PUSH1 0x20 ADD DUP1 DUP4 GT PUSH2 0x1327 JUMPI DUP3 SWAP1 SUB PUSH1 0x1F AND DUP3 ADD SWAP2 JUMPDEST POP POP POP POP POP DUP2 JUMP JUMPDEST PUSH2 0x1367 DUP4 DUP4 DUP4 PUSH1 0x40 MLOAD DUP1 PUSH1 0x20 ADD PUSH1 0x40 MSTORE DUP1 PUSH1 0x0 DUP2 MSTORE POP PUSH2 0x1B2A JUMP JUMPDEST POP POP POP JUMP JUMPDEST PUSH1 0x0 PUSH2 0x1377 DUP3 PUSH2 0x1FDD JUMP JUMPDEST PUSH2 0x13B6 JUMPI PUSH1 0x40 MLOAD PUSH32 0x8C379A000000000000000000000000000000000000000000000000000000000 DUP2 MSTORE PUSH1 0x4 ADD PUSH2 0x13AD SWAP1 PUSH2 0x37E8 JUMP JUMPDEST PUSH1 0x40 MLOAD DUP1 SWAP2 SUB SWAP1 REVERT JUMPDEST PUSH1 0x17 SLOAD PUSH1 0xB PUSH1 0x0 DUP5 DUP2 MSTORE PUSH1 0x20 ADD SWAP1 DUP2 MSTORE PUSH1 0x20 ADD PUSH1 0x0 KECCAK256 SLOAD LT ISZERO PUSH2 0x13DC JUMPI PUSH1 0x0 SWAP1 POP PUSH2 0x142D JUMP JUMPDEST PUSH1 0x18 SLOAD PUSH1 0xB PUSH1 0x0 DUP5 DUP2 MSTORE PUSH1 0x20 ADD SWAP1 DUP2 MSTORE PUSH1 0x20 ADD PUSH1 0x0 KECCAK256 SLOAD LT ISZERO PUSH2 0x1402 JUMPI PUSH1 0x1 SWAP1 POP PUSH2 0x142D JUMP JUMPDEST PUSH1 0x19 SLOAD PUSH1 0xB PUSH1 0x0 DUP5 DUP2 MSTORE PUSH1 0x20 ADD SWAP1 DUP2 MSTORE PUSH1 0x20 ADD PUSH1 0x0 KECCAK256 SLOAD LT ISZERO PUSH2 0x1428 JUMPI PUSH1 0x2 SWAP1 POP PUSH2 0x142D JUMP JUMPDEST PUSH1 0x3 SWAP1 POP JUMPDEST SWAP2 SWAP1 POP JUMP JUMPDEST PUSH32 0xF99F54BA88613D946BDC79767A2D779E0D744D1B5B02B85576A5B76D8E372355 PUSH2 0x145C DUP2 PUSH2 0x2461 JUMP JUMPDEST DUP2 PUSH1 0xB PUSH1 0x0 DUP6 DUP2 MSTORE PUSH1 0x20 ADD SWAP1 DUP2 MSTORE PUSH1 0x20 ADD PUSH1 0x0 KECCAK256 SLOAD LT PUSH2 0x14B1 JUMPI PUSH1 0x40 MLOAD PUSH32 0x8C379A000000000000000000000000000000000000000000000000000000000 DUP2 MSTORE PUSH1 0x4 ADD PUSH2 0x14A8 SWAP1 PUSH2 0x387A JUMP JUMPDEST PUSH1 0x40 MLOAD DUP1 SWAP2 SUB SWAP1 REVERT JUMPDEST PUSH2 0x14BA DUP4 PUSH2 0x1FDD JUMP JUMPDEST PUSH2 0x14F9 JUMPI PUSH1 0x40 MLOAD PUSH32 0x8C379A000000000000000000000000000000000000000000000000000000000 DUP2 MSTORE PUSH1 0x4 ADD PUSH2 0x14F0 SWAP1 PUSH2 0x38E6 JUMP JUMPDEST PUSH1 0x40 MLOAD DUP1 SWAP2 SUB SWAP1 REVERT JUMPDEST DUP2 PUSH1 0xB PUSH1 0x0 DUP6 DUP2 MSTORE PUSH1 0x20 ADD SWAP1 DUP2 MSTORE PUSH1 0x20 ADD PUSH1 0x0 KECCAK256 DUP2 SWAP1 SSTORE POP POP POP POP JUMP JUMPDEST PUSH1 0x0 PUSH2 0x1521 DUP3 PUSH2 0x2276 JUMP JUMPDEST SWAP1 POP SWAP2 SWAP1 POP JUMP JUMPDEST PUSH1 0x0 DUP1 PUSH20 0xFFFFFFFFFFFFFFFFFFFFFFFFFFFFFFFFFFFFFFFF AND DUP3 PUSH20 0xFFFFFFFFFFFFFFFFFFFFFFFFFFFFFFFFFFFFFFFF AND SUB PUSH2 0x156E JUMPI PUSH2 0x156D PUSH4 0x8F4EB604 PUSH1 0xE0 SHL PUSH2 0x2089 JUMP JUMPDEST JUMPDEST PUSH8 0xFFFFFFFFFFFFFFFF PUSH1 0x5 PUSH1 0x0 DUP5 PUSH20 0xFFFFFFFFFFFFFFFFFFFFFFFFFFFFFFFFFFFFFFFF AND PUSH20 0xFFFFFFFFFFFFFFFFFFFFFFFFFFFFFFFFFFFFFFFF AND DUP2 MSTORE PUSH1 0x20 ADD SWAP1 DUP2 MSTORE PUSH1 0x20 ADD PUSH1 0x0 KECCAK256 SLOAD AND SWAP1 POP SWAP2 SWAP1 POP JUMP JUMPDEST PUSH2 0x15C7 PUSH2 0x21EF JUMP JUMPDEST PUSH2 0x15D1 PUSH1 0x0 PUSH2 0x2662 JUMP JUMPDEST JUMP JUMPDEST PUSH1 0x17 SLOAD DUP2 JUMP JUMPDEST PUSH1 0x13 DUP1 SLOAD PUSH2 0x15E6 SWAP1 PUSH2 0x3481 JUMP JUMPDEST DUP1 PUSH1 0x1F ADD PUSH1 0x20 DUP1 SWAP2 DIV MUL PUSH1 0x20 ADD PUSH1 0x40 MLOAD SWAP1 DUP2 ADD PUSH1 0x40 MSTORE DUP1 SWAP3 SWAP2 SWAP1 DUP2 DUP2 MSTORE PUSH1 0x20 ADD DUP3 DUP1 SLOAD PUSH2 0x1612 SWAP1 PUSH2 0x3481 JUMP JUMPDEST DUP1 ISZERO PUSH2 0x165F JUMPI DUP1 PUSH1 0x1F LT PUSH2 0x1634 JUMPI PUSH2 0x100 DUP1 DUP4 SLOAD DIV MUL DUP4 MSTORE SWAP2 PUSH1 0x20 ADD SWAP2 PUSH2 0x165F JUMP JUMPDEST DUP3 ADD SWAP2 SWAP1 PUSH1 0x0 MSTORE PUSH1 0x20 PUSH1 0x0 KECCAK256 SWAP1 JUMPDEST DUP2 SLOAD DUP2 MSTORE SWAP1 PUSH1 0x1 ADD SWAP1 PUSH1 0x20 ADD DUP1 DUP4 GT PUSH2 0x1642 JUMPI DUP3 SWAP1 SUB PUSH1 0x1F AND DUP3 ADD SWAP2 JUMPDEST POP POP POP POP POP DUP2 JUMP JUMPDEST PUSH2 0x166F PUSH2 0x21EF JUMP JUMPDEST PUSH1 0xC PUSH1 0x0 SWAP1 SLOAD SWAP1 PUSH2 0x100 EXP SWAP1 DIV PUSH1 0xFF AND ISZERO PUSH2 0x16BF JUMPI PUSH1 0x40 MLOAD PUSH32 0x8C379A000000000000000000000000000000000000000000000000000000000 DUP2 MSTORE PUSH1 0x4 ADD PUSH2 0x16B6 SWAP1 PUSH2 0x34FE JUMP JUMPDEST PUSH1 0x40 MLOAD DUP1 SWAP2 SUB SWAP1 REVERT JUMPDEST DUP1 PUSH1 0x10 SWAP1 DUP2 PUSH2 0x16CE SWAP2 SWAP1 PUSH2 0x36CA JUMP JUMPDEST POP POP JUMP JUMPDEST PUSH1 0x0 PUSH1 0x9 PUSH1 0x0 SWAP1 SLOAD SWAP1 PUSH2 0x100 EXP SWAP1 DIV PUSH20 0xFFFFFFFFFFFFFFFFFFFFFFFFFFFFFFFFFFFFFFFF AND SWAP1 POP SWAP1 JUMP JUMPDEST PUSH2 0x1704 PUSH2 0x21EF JUMP JUMPDEST PUSH1 0xC PUSH1 0x0 SWAP1 SLOAD SWAP1 PUSH2 0x100 EXP SWAP1 DIV PUSH1 0xFF AND ISZERO PUSH2 0x1754 JUMPI PUSH1 0x40 MLOAD PUSH32 0x8C379A000000000000000000000000000000000000000000000000000000000 DUP2 MSTORE PUSH1 0x4 ADD PUSH2 0x174B SWAP1 PUSH2 0x34FE JUMP JUMPDEST PUSH1 0x40 MLOAD DUP1 SWAP2 SUB SWAP1 REVERT JUMPDEST DUP1 PUSH1 0xF SWAP1 DUP2 PUSH2 0x1763 SWAP2 SWAP1 PUSH2 0x36CA JUMP JUMPDEST POP POP JUMP JUMPDEST PUSH1 0x0 PUSH1 0xA PUSH1 0x0 DUP5 DUP2 MSTORE PUSH1 0x20 ADD SWAP1 DUP2 MSTORE PUSH1 0x20 ADD PUSH1 0x0 KECCAK256 PUSH1 0x0 ADD PUSH1 0x0 DUP4 PUSH20 0xFFFFFFFFFFFFFFFFFFFFFFFFFFFFFFFFFFFFFFFF AND PUSH20 0xFFFFFFFFFFFFFFFFFFFFFFFFFFFFFFFFFFFFFFFF AND DUP2 MSTORE PUSH1 0x20 ADD SWAP1 DUP2 MSTORE PUSH1 0x20 ADD PUSH1 0x0 KECCAK256 PUSH1 0x0 SWAP1 SLOAD SWAP1 PUSH2 0x100 EXP SWAP1 DIV PUSH1 0xFF AND SWAP1 POP SWAP3 SWAP2 POP POP JUMP JUMPDEST PUSH1 0x60 PUSH1 0x3 DUP1 SLOAD PUSH2 0x17E1 SWAP1 PUSH2 0x3481 JUMP JUMPDEST DUP1 PUSH1 0x1F ADD PUSH1 0x20 DUP1 SWAP2 DIV MUL PUSH1 0x20 ADD PUSH1 0x40 MLOAD SWAP1 DUP2 ADD PUSH1 0x40 MSTORE DUP1 SWAP3 SWAP2 SWAP1 DUP2 DUP2 MSTORE PUSH1 0x20 ADD DUP3 DUP1 SLOAD PUSH2 0x180D SWAP1 PUSH2 0x3481 JUMP JUMPDEST DUP1 ISZERO PUSH2 0x185A JUMPI DUP1 PUSH1 0x1F LT PUSH2 0x182F JUMPI PUSH2 0x100 DUP1 DUP4 SLOAD DIV MUL DUP4 MSTORE SWAP2 PUSH1 0x20 ADD SWAP2 PUSH2 0x185A JUMP JUMPDEST DUP3 ADD SWAP2 SWAP1 PUSH1 0x0 MSTORE PUSH1 0x20 PUSH1 0x0 KECCAK256 SWAP1 JUMPDEST DUP2 SLOAD DUP2 MSTORE SWAP1 PUSH1 0x1 ADD SWAP1 PUSH1 0x20 ADD DUP1 DUP4 GT PUSH2 0x183D JUMPI DUP3 SWAP1 SUB PUSH1 0x1F AND DUP3 ADD SWAP2 JUMPDEST POP POP POP POP POP SWAP1 POP SWAP1 JUMP JUMPDEST PUSH1 0xD SLOAD PUSH2 0x186F PUSH2 0x2728 JUMP JUMPDEST LT DUP1 ISZERO PUSH2 0x187E JUMPI POP PUSH1 0x0 PUSH1 0xD SLOAD GT JUMPDEST PUSH2 0x18BD JUMPI PUSH1 0x40 MLOAD PUSH32 0x8C379A000000000000000000000000000000000000000000000000000000000 DUP2 MSTORE PUSH1 0x4 ADD PUSH2 0x18B4 SWAP1 PUSH2 0x3952 JUMP JUMPDEST PUSH1 0x40 MLOAD DUP1 SWAP2 SUB SWAP1 REVERT JUMPDEST PUSH1 0xD SLOAD DUP2 PUSH2 0x18C9 PUSH2 0x2728 JUMP JUMPDEST PUSH2 0x18D3 SWAP2 SWAP1 PUSH2 0x39A1 JUMP JUMPDEST GT ISZERO DUP1 ISZERO PUSH2 0x18E3 JUMPI POP PUSH1 0x0 PUSH1 0xD SLOAD GT JUMPDEST PUSH2 0x1922 JUMPI PUSH1 0x40 MLOAD PUSH32 0x8C379A000000000000000000000000000000000000000000000000000000000 DUP2 MSTORE PUSH1 0x4 ADD PUSH2 0x1919 SWAP1 PUSH2 0x3A21 JUMP JUMPDEST PUSH1 0x40 MLOAD DUP1 SWAP2 SUB SWAP1 REVERT JUMPDEST DUP1 PUSH1 0x16 SLOAD PUSH2 0x1930 SWAP2 SWAP1 PUSH2 0x3A41 JUMP JUMPDEST CALLVALUE EQ PUSH2 0x1971 JUMPI PUSH1 0x40 MLOAD PUSH32 0x8C379A000000000000000000000000000000000000000000000000000000000 DUP2 MSTORE PUSH1 0x4 ADD PUSH2 0x1968 SWAP1 PUSH2 0x3AF5 JUMP JUMPDEST PUSH1 0x40 MLOAD DUP1 SWAP2 SUB SWAP1 REVERT JUMPDEST PUSH2 0x197B CALLER DUP3 PUSH2 0x2771 JUMP JUMPDEST POP JUMP JUMPDEST PUSH1 0x18 SLOAD DUP2 JUMP JUMPDEST PUSH1 0x0 DUP1 SHL DUP2 JUMP JUMPDEST DUP1 PUSH1 0x7 PUSH1 0x0 PUSH2 0x1998 PUSH2 0x23B6 JUMP JUMPDEST PUSH20 0xFFFFFFFFFFFFFFFFFFFFFFFFFFFFFFFFFFFFFFFF AND PUSH20 0xFFFFFFFFFFFFFFFFFFFFFFFFFFFFFFFFFFFFFFFF AND DUP2 MSTORE PUSH1 0x20 ADD SWAP1 DUP2 MSTORE PUSH1 0x20 ADD PUSH1 0x0 KECCAK256 PUSH1 0x0 DUP5 PUSH20 0xFFFFFFFFFFFFFFFFFFFFFFFFFFFFFFFFFFFFFFFF AND PUSH20 0xFFFFFFFFFFFFFFFFFFFFFFFFFFFFFFFFFFFFFFFF AND DUP2 MSTORE PUSH1 0x20 ADD SWAP1 DUP2 MSTORE PUSH1 0x20 ADD PUSH1 0x0 KECCAK256 PUSH1 0x0 PUSH2 0x100 EXP DUP2 SLOAD DUP2 PUSH1 0xFF MUL NOT AND SWAP1 DUP4 ISZERO ISZERO MUL OR SWAP1 SSTORE POP DUP2 PUSH20 0xFFFFFFFFFFFFFFFFFFFFFFFFFFFFFFFFFFFFFFFF AND PUSH2 0x1A45 PUSH2 0x23B6 JUMP JUMPDEST PUSH20 0xFFFFFFFFFFFFFFFFFFFFFFFFFFFFFFFFFFFFFFFF AND PUSH32 0x17307EAB39AB6107E8899845AD3D59BD9653F200F220920489CA2B5937696C31 DUP4 PUSH1 0x40 MLOAD PUSH2 0x1A8A SWAP2 SWAP1 PUSH2 0x2BEF JUMP JUMPDEST PUSH1 0x40 MLOAD DUP1 SWAP2 SUB SWAP1 LOG3 POP POP JUMP JUMPDEST PUSH1 0x19 SLOAD DUP2 JUMP JUMPDEST PUSH1 0x10 DUP1 SLOAD PUSH2 0x1AA9 SWAP1 PUSH2 0x3481 JUMP JUMPDEST DUP1 PUSH1 0x1F ADD PUSH1 0x20 DUP1 SWAP2 DIV MUL PUSH1 0x20 ADD PUSH1 0x40 MLOAD SWAP1 DUP2 ADD PUSH1 0x40 MSTORE DUP1 SWAP3 SWAP2 SWAP1 DUP2 DUP2 MSTORE PUSH1 0x20 ADD DUP3 DUP1 SLOAD PUSH2 0x1AD5 SWAP1 PUSH2 0x3481 JUMP JUMPDEST DUP1 ISZERO PUSH2 0x1B22 JUMPI DUP1 PUSH1 0x1F LT PUSH2 0x1AF7 JUMPI PUSH2 0x100 DUP1 DUP4 SLOAD DIV MUL DUP4 MSTORE SWAP2 PUSH1 0x20 ADD SWAP2 PUSH2 0x1B22 JUMP JUMPDEST DUP3 ADD SWAP2 SWAP1 PUSH1 0x0 MSTORE PUSH1 0x20 PUSH1 0x0 KECCAK256 SWAP1 JUMPDEST DUP2 SLOAD DUP2 MSTORE SWAP1 PUSH1 0x1 ADD SWAP1 PUSH1 0x20 ADD DUP1 DUP4 GT PUSH2 0x1B05 JUMPI DUP3 SWAP1 SUB PUSH1 0x1F AND DUP3 ADD SWAP2 JUMPDEST POP POP POP POP POP DUP2 JUMP JUMPDEST PUSH2 0x1B35 DUP5 DUP5 DUP5 PUSH2 0xDB9 JUMP JUMPDEST PUSH1 0x0 DUP4 PUSH20 0xFFFFFFFFFFFFFFFFFFFFFFFFFFFFFFFFFFFFFFFF AND EXTCODESIZE EQ PUSH2 0x1B76 JUMPI PUSH2 0x1B60 DUP5 DUP5 DUP5 DUP5 PUSH2 0x28F7 JUMP JUMPDEST PUSH2 0x1B75 JUMPI PUSH2 0x1B74 PUSH4 0xD1A57ED6 PUSH1 0xE0 SHL PUSH2 0x2089 JUMP JUMPDEST JUMPDEST JUMPDEST POP POP POP POP JUMP JUMPDEST PUSH1 0x60 PUSH2 0x1B87 DUP3 PUSH2 0x1FDD JUMP JUMPDEST PUSH2 0x1B9C JUMPI PUSH2 0x1B9B PUSH4 0xA14C4B50 PUSH1 0xE0 SHL PUSH2 0x2089 JUMP JUMPDEST JUMPDEST PUSH1 0x0 PUSH1 0x15 DUP1 SLOAD PUSH2 0x1BAB SWAP1 PUSH2 0x3481 JUMP JUMPDEST SWAP1 POP SUB PUSH2 0x1BC7 JUMPI PUSH1 0x40 MLOAD DUP1 PUSH1 0x20 ADD PUSH1 0x40 MSTORE DUP1 PUSH1 0x0 DUP2 MSTORE POP PUSH2 0x1BE9 JUMP JUMPDEST PUSH1 0x15 PUSH1 0x40 MLOAD PUSH1 0x20 ADD PUSH2 0x1BD9 SWAP2 SWAP1 PUSH2 0x3BA3 JUMP JUMPDEST PUSH1 0x40 MLOAD PUSH1 0x20 DUP2 DUP4 SUB SUB DUP2 MSTORE SWAP1 PUSH1 0x40 MSTORE JUMPDEST SWAP1 POP SWAP2 SWAP1 POP JUMP JUMPDEST PUSH1 0xC PUSH1 0x0 SWAP1 SLOAD SWAP1 PUSH2 0x100 EXP SWAP1 DIV PUSH1 0xFF AND DUP2 JUMP JUMPDEST PUSH2 0x1C0B PUSH2 0x21EF JUMP JUMPDEST PUSH1 0xC PUSH1 0x0 SWAP1 SLOAD SWAP1 PUSH2 0x100 EXP SWAP1 DIV PUSH1 0xFF AND ISZERO PUSH2 0x1C5B JUMPI PUSH1 0x40 MLOAD PUSH32 0x8C379A000000000000000000000000000000000000000000000000000000000 DUP2 MSTORE PUSH1 0x4 ADD PUSH2 0x1C52 SWAP1 PUSH2 0x34FE JUMP JUMPDEST PUSH1 0x40 MLOAD DUP1 SWAP2 SUB SWAP1 REVERT JUMPDEST DUP4 PUSH1 0x11 SWAP1 DUP2 PUSH2 0x1C6A SWAP2 SWAP1 PUSH2 0x36CA JUMP JUMPDEST POP DUP5 PUSH1 0x10 SWAP1 DUP2 PUSH2 0x1C7A SWAP2 SWAP1 PUSH2 0x36CA JUMP JUMPDEST POP DUP6 PUSH1 0xF SWAP1 DUP2 PUSH2 0x1C8A SWAP2 SWAP1 PUSH2 0x36CA JUMP JUMPDEST POP DUP7 PUSH1 0xE SWAP1 DUP2 PUSH2 0x1C9A SWAP2 SWAP1 PUSH2 0x36CA JUMP JUMPDEST POP DUP3 PUSH1 0x13 SWAP1 DUP2 PUSH2 0x1CAA SWAP2 SWAP1 PUSH2 0x36CA JUMP JUMPDEST POP DUP2 PUSH1 0x14 SWAP1 DUP2 PUSH2 0x1CBA SWAP2 SWAP1 PUSH2 0x36CA JUMP JUMPDEST POP DUP1 PUSH1 0x15 SWAP1 DUP2 PUSH2 0x1CCA SWAP2 SWAP1 PUSH2 0x36CA JUMP JUMPDEST POP PUSH2 0x1CD3 PUSH2 0x1E60 JUMP JUMPDEST POP POP POP POP POP POP POP JUMP JUMPDEST PUSH32 0xF99F54BA88613D946BDC79767A2D779E0D744D1B5B02B85576A5B76D8E372355 DUP2 JUMP JUMPDEST PUSH2 0x1D09 DUP3 PUSH2 0x107A JUMP JUMPDEST PUSH2 0x1D12 DUP2 PUSH2 0x2461 JUMP JUMPDEST PUSH2 0x1D1C DUP4 DUP4 PUSH2 0x256F JUMP JUMPDEST POP POP POP POP JUMP JUMPDEST PUSH1 0xD SLOAD DUP2 JUMP JUMPDEST PUSH1 0xB PUSH1 0x20 MSTORE DUP1 PUSH1 0x0 MSTORE PUSH1 0x40 PUSH1 0x0 KECCAK256 PUSH1 0x0 SWAP2 POP SWAP1 POP SLOAD DUP2 JUMP JUMPDEST PUSH1 0x0 PUSH1 0x7 PUSH1 0x0 DUP5 PUSH20 0xFFFFFFFFFFFFFFFFFFFFFFFFFFFFFFFFFFFFFFFF AND PUSH20 0xFFFFFFFFFFFFFFFFFFFFFFFFFFFFFFFFFFFFFFFF AND DUP2 MSTORE PUSH1 0x20 ADD SWAP1 DUP2 MSTORE PUSH1 0x20 ADD PUSH1 0x0 KECCAK256 PUSH1 0x0 DUP4 PUSH20 0xFFFFFFFFFFFFFFFFFFFFFFFFFFFFFFFFFFFFFFFF AND PUSH20 0xFFFFFFFFFFFFFFFFFFFFFFFFFFFFFFFFFFFFFFFF AND DUP2 MSTORE PUSH1 0x20 ADD SWAP1 DUP2 MSTORE PUSH1 0x20 ADD PUSH1 0x0 KECCAK256 PUSH1 0x0 SWAP1 SLOAD SWAP1 PUSH2 0x100 EXP SWAP1 DIV PUSH1 0xFF AND SWAP1 POP SWAP3 SWAP2 POP POP JUMP JUMPDEST PUSH1 0x16 SLOAD DUP2 JUMP JUMPDEST PUSH2 0x1DE2 PUSH2 0x21EF JUMP JUMPDEST PUSH1 0x0 PUSH20 0xFFFFFFFFFFFFFFFFFFFFFFFFFFFFFFFFFFFFFFFF AND DUP2 PUSH20 0xFFFFFFFFFFFFFFFFFFFFFFFFFFFFFFFFFFFFFFFF AND SUB PUSH2 0x1E54 JUMPI PUSH1 0x0 PUSH1 0x40 MLOAD PUSH32 0x1E4FBDF700000000000000000000000000000000000000000000000000000000 DUP2 MSTORE PUSH1 0x4 ADD PUSH2 0x1E4B SWAP2 SWAP1 PUSH2 0x2D60 JUMP JUMPDEST PUSH1 0x40 MLOAD DUP1 SWAP2 SUB SWAP1 REVERT JUMPDEST PUSH2 0x1E5D DUP2 PUSH2 0x2662 JUMP JUMPDEST POP JUMP JUMPDEST PUSH2 0x1E68 PUSH2 0x21EF JUMP JUMPDEST PUSH1 0xC PUSH1 0x0 SWAP1 SLOAD SWAP1 PUSH2 0x100 EXP SWAP1 DIV PUSH1 0xFF AND ISZERO PUSH2 0x1EB8 JUMPI PUSH1 0x40 MLOAD PUSH32 0x8C379A000000000000000000000000000000000000000000000000000000000 DUP2 MSTORE PUSH1 0x4 ADD PUSH2 0x1EAF SWAP1 PUSH2 0x3C06 JUMP JUMPDEST PUSH1 0x40 MLOAD DUP1 SWAP2 SUB SWAP1 REVERT JUMPDEST PUSH1 0x1 PUSH1 0xC PUSH1 0x0 PUSH2 0x100 EXP DUP2 SLOAD DUP2 PUSH1 0xFF MUL NOT AND SWAP1 DUP4 ISZERO ISZERO MUL OR SWAP1 SSTORE POP JUMP JUMPDEST PUSH1 0xE DUP1 SLOAD PUSH2 0x1EE2 SWAP1 PUSH2 0x3481 JUMP JUMPDEST DUP1 PUSH1 0x1F ADD PUSH1 0x20 DUP1 SWAP2 DIV MUL PUSH1 0x20 ADD PUSH1 0x40 MLOAD SWAP1 DUP2 ADD PUSH1 0x40 MSTORE DUP1 SWAP3 SWAP2 SWAP1 DUP2 DUP2 MSTORE PUSH1 0x20 ADD DUP3 DUP1 SLOAD PUSH2 0x1F0E SWAP1 PUSH2 0x3481 JUMP JUMPDEST DUP1 ISZERO PUSH2 0x1F5B JUMPI DUP1 PUSH1 0x1F LT PUSH2 0x1F30 JUMPI PUSH2 0x100 DUP1 DUP4 SLOAD DIV MUL DUP4 MSTORE SWAP2 PUSH1 0x20 ADD SWAP2 PUSH2 0x1F5B JUMP JUMPDEST DUP3 ADD SWAP2 SWAP1 PUSH1 0x0 MSTORE PUSH1 0x20 PUSH1 0x0 KECCAK256 SWAP1 JUMPDEST DUP2 SLOAD DUP2 MSTORE SWAP1 PUSH1 0x1 ADD SWAP1 PUSH1 0x20 ADD DUP1 DUP4 GT PUSH2 0x1F3E JUMPI DUP3 SWAP1 SUB PUSH1 0x1F AND DUP3 ADD SWAP2 JUMPDEST POP POP POP POP POP DUP2 JUMP JUMPDEST PUSH1 0x0 PUSH32 0x7965DB0B00000000000000000000000000000000000000000000000000000000 PUSH28 0xFFFFFFFFFFFFFFFFFFFFFFFFFFFFFFFFFFFFFFFFFFFFFFFFFFFFFFFF NOT AND DUP3 PUSH28 0xFFFFFFFFFFFFFFFFFFFFFFFFFFFFFFFFFFFFFFFFFFFFFFFFFFFFFFFF NOT AND EQ DUP1 PUSH2 0x1FD6 JUMPI POP PUSH2 0x1FD5 DUP3 PUSH2 0x2A26 JUMP JUMPDEST JUMPDEST SWAP1 POP SWAP2 SWAP1 POP JUMP JUMPDEST PUSH1 0x0 DUP2 PUSH2 0x1FE8 PUSH2 0x21C2 JUMP JUMPDEST GT PUSH2 0x2083 JUMPI PUSH2 0x1FF5 PUSH2 0x21C7 JUMP JUMPDEST DUP3 GT ISZERO PUSH2 0x201F JUMPI PUSH2 0x2018 PUSH1 0x4 PUSH1 0x0 DUP5 DUP2 MSTORE PUSH1 0x20 ADD SWAP1 DUP2 MSTORE PUSH1 0x20 ADD PUSH1 0x0 KECCAK256 SLOAD PUSH2 0x2A90 JUMP JUMPDEST SWAP1 POP PUSH2 0x2084 JUMP JUMPDEST PUSH1 0x0 SLOAD DUP3 LT ISZERO PUSH2 0x2082 JUMPI PUSH1 0x0 JUMPDEST PUSH1 0x0 PUSH1 0x4 PUSH1 0x0 DUP6 DUP2 MSTORE PUSH1 0x20 ADD SWAP1 DUP2 MSTORE PUSH1 0x20 ADD PUSH1 0x0 KECCAK256 SLOAD SWAP2 POP DUP2 SUB PUSH2 0x205B JUMPI DUP3 PUSH2 0x2054 SWAP1 PUSH2 0x3C26 JUMP JUMPDEST SWAP3 POP PUSH2 0x202C JUMP JUMPDEST PUSH1 0x0 PUSH29 0x100000000000000000000000000000000000000000000000000000000 DUP3 AND EQ SWAP2 POP POP JUMPDEST JUMPDEST JUMPDEST SWAP2 SWAP1 POP JUMP JUMPDEST DUP1 PUSH1 0x0 MSTORE PUSH1 0x4 PUSH1 0x0 REVERT JUMPDEST PUSH1 0x0 PUSH2 0x209E DUP4 PUSH2 0x1516 JUMP JUMPDEST SWAP1 POP DUP2 DUP1 ISZERO PUSH2 0x20E0 JUMPI POP DUP1 PUSH20 0xFFFFFFFFFFFFFFFFFFFFFFFFFFFFFFFFFFFFFFFF AND PUSH2 0x20C7 PUSH2 0x23B6 JUMP JUMPDEST PUSH20 0xFFFFFFFFFFFFFFFFFFFFFFFFFFFFFFFFFFFFFFFF AND EQ ISZERO JUMPDEST ISZERO PUSH2 0x210C JUMPI PUSH2 0x20F6 DUP2 PUSH2 0x20F1 PUSH2 0x23B6 JUMP JUMPDEST PUSH2 0x1D40 JUMP JUMPDEST PUSH2 0x210B JUMPI PUSH2 0x210A PUSH4 0xCFB3B942 PUSH1 0xE0 SHL PUSH2 0x2089 JUMP JUMPDEST JUMPDEST JUMPDEST DUP4 PUSH1 0x6 PUSH1 0x0 DUP6 DUP2 MSTORE PUSH1 0x20 ADD SWAP1 DUP2 MSTORE PUSH1 0x20 ADD PUSH1 0x0 KECCAK256 PUSH1 0x0 ADD PUSH1 0x0 PUSH2 0x100 EXP DUP2 SLOAD DUP2 PUSH20 0xFFFFFFFFFFFFFFFFFFFFFFFFFFFFFFFFFFFFFFFF MUL NOT AND SWAP1 DUP4 PUSH20 0xFFFFFFFFFFFFFFFFFFFFFFFFFFFFFFFFFFFFFFFF AND MUL OR SWAP1 SSTORE POP DUP3 DUP5 PUSH20 0xFFFFFFFFFFFFFFFFFFFFFFFFFFFFFFFFFFFFFFFF AND DUP3 PUSH20 0xFFFFFFFFFFFFFFFFFFFFFFFFFFFFFFFFFFFFFFFF AND PUSH32 0x8C5BE1E5EBEC7D5BD14F71427D1E84F3DD0314C0F7B2291E5B200AC8C7C3B925 PUSH1 0x40 MLOAD PUSH1 0x40 MLOAD DUP1 SWAP2 SUB SWAP1 LOG4 POP POP POP POP JUMP JUMPDEST PUSH1 0x0 SWAP1 JUMP JUMPDEST PUSH1 0x0 PUSH32 0xFFFFFFFFFFFFFFFFFFFFFFFFFFFFFFFFFFFFFFFFFFFFFFFFFFFFFFFFFFFFFFFF SWAP1 POP SWAP1 JUMP JUMPDEST PUSH2 0x21F7 PUSH2 0x2567 JUMP JUMPDEST PUSH20 0xFFFFFFFFFFFFFFFFFFFFFFFFFFFFFFFFFFFFFFFF AND PUSH2 0x2215 PUSH2 0x16D2 JUMP JUMPDEST PUSH20 0xFFFFFFFFFFFFFFFFFFFFFFFFFFFFFFFFFFFFFFFF AND EQ PUSH2 0x2274 JUMPI PUSH2 0x2238 PUSH2 0x2567 JUMP JUMPDEST PUSH1 0x40 MLOAD PUSH32 0x118CDAA700000000000000000000000000000000000000000000000000000000 DUP2 MSTORE PUSH1 0x4 ADD PUSH2 0x226B SWAP2 SWAP1 PUSH2 0x2D60 JUMP JUMPDEST PUSH1 0x40 MLOAD DUP1 SWAP2 SUB SWAP1 REVERT JUMPDEST JUMP JUMPDEST PUSH1 0x0 DUP2 PUSH2 0x2281 PUSH2 0x21C2 JUMP JUMPDEST GT PUSH2 0x2379 JUMPI PUSH1 0x4 PUSH1 0x0 DUP4 DUP2 MSTORE PUSH1 0x20 ADD SWAP1 DUP2 MSTORE PUSH1 0x20 ADD PUSH1 0x0 KECCAK256 SLOAD SWAP1 POP PUSH2 0x22A4 PUSH2 0x21C7 JUMP JUMPDEST DUP3 GT ISZERO PUSH2 0x22C9 JUMPI PUSH2 0x22B4 DUP2 PUSH2 0x2A90 JUMP JUMPDEST PUSH2 0x238A JUMPI PUSH2 0x22C8 PUSH4 0xDF2D9B42 PUSH1 0xE0 SHL PUSH2 0x2089 JUMP JUMPDEST JUMPDEST PUSH1 0x0 DUP2 SUB PUSH2 0x2350 JUMPI PUSH1 0x0 SLOAD DUP3 LT PUSH2 0x22EB JUMPI PUSH2 0x22EA PUSH4 0xDF2D9B42 PUSH1 0xE0 SHL PUSH2 0x2089 JUMP JUMPDEST JUMPDEST JUMPDEST PUSH1 0x4 PUSH1 0x0 DUP4 PUSH1 0x1 SWAP1 SUB SWAP4 POP DUP4 DUP2 MSTORE PUSH1 0x20 ADD SWAP1 DUP2 MSTORE PUSH1 0x20 ADD PUSH1 0x0 KECCAK256 SLOAD SWAP1 POP PUSH1 0x0 DUP2 SUB ISZERO PUSH2 0x234B JUMPI PUSH1 0x0 PUSH29 0x100000000000000000000000000000000000000000000000000000000 DUP3 AND SUB ISZERO PUSH2 0x238A JUMPI PUSH2 0x234A PUSH4 0xDF2D9B42 PUSH1 0xE0 SHL PUSH2 0x2089 JUMP JUMPDEST JUMPDEST PUSH2 0x22EC JUMP JUMPDEST PUSH1 0x0 PUSH29 0x100000000000000000000000000000000000000000000000000000000 DUP3 AND SUB ISZERO PUSH2 0x238A JUMPI JUMPDEST PUSH2 0x2389 PUSH4 0xDF2D9B42 PUSH1 0xE0 SHL PUSH2 0x2089 JUMP JUMPDEST JUMPDEST SWAP2 SWAP1 POP JUMP JUMPDEST PUSH1 0x0 DUP1 PUSH1 0x0 PUSH1 0x6 PUSH1 0x0 DUP6 DUP2 MSTORE PUSH1 0x20 ADD SWAP1 DUP2 MSTORE PUSH1 0x20 ADD PUSH1 0x0 KECCAK256 SWAP1 POP DUP1 SWAP3 POP DUP3 SLOAD SWAP2 POP POP SWAP2 POP SWAP2 JUMP JUMPDEST PUSH1 0x0 CALLER SWAP1 POP SWAP1 JUMP JUMPDEST PUSH1 0x0 PUSH20 0xFFFFFFFFFFFFFFFFFFFFFFFFFFFFFFFFFFFFFFFF DUP4 AND SWAP3 POP PUSH20 0xFFFFFFFFFFFFFFFFFFFFFFFFFFFFFFFFFFFFFFFF DUP3 AND SWAP2 POP DUP4 DUP3 EQ DUP4 DUP4 EQ OR SWAP1 POP SWAP4 SWAP3 POP POP POP JUMP JUMPDEST POP POP POP POP JUMP JUMPDEST PUSH1 0x0 DUP1 PUSH1 0xE8 DUP4 SWAP1 SHR SWAP1 POP PUSH1 0xE8 PUSH2 0x241F DUP7 DUP7 DUP5 PUSH2 0x2AD1 JUMP JUMPDEST PUSH3 0xFFFFFF AND SWAP1 SHL SWAP2 POP POP SWAP4 SWAP3 POP POP POP JUMP JUMPDEST PUSH1 0x0 PUSH20 0xFFFFFFFFFFFFFFFFFFFFFFFFFFFFFFFFFFFFFFFF DUP4 AND SWAP3 POP DUP2 TIMESTAMP PUSH1 0xA0 SHL OR DUP4 OR SWAP1 POP SWAP3 SWAP2 POP POP JUMP JUMPDEST POP POP POP POP JUMP JUMPDEST PUSH2 0x2472 DUP2 PUSH2 0x246D PUSH2 0x2567 JUMP JUMPDEST PUSH2 0x2ADA JUMP JUMPDEST POP JUMP JUMPDEST PUSH1 0x0 PUSH2 0x2481 DUP4 DUP4 PUSH2 0x1767 JUMP JUMPDEST PUSH2 0x255C JUMPI PUSH1 0x1 PUSH1 0xA PUSH1 0x0 DUP6 DUP2 MSTORE PUSH1 0x20 ADD SWAP1 DUP2 MSTORE PUSH1 0x20 ADD PUSH1 0x0 KECCAK256 PUSH1 0x0 ADD PUSH1 0x0 DUP5 PUSH20 0xFFFFFFFFFFFFFFFFFFFFFFFFFFFFFFFFFFFFFFFF AND PUSH20 0xFFFFFFFFFFFFFFFFFFFFFFFFFFFFFFFFFFFFFFFF AND DUP2 MSTORE PUSH1 0x20 ADD SWAP1 DUP2 MSTORE PUSH1 0x20 ADD PUSH1 0x0 KECCAK256 PUSH1 0x0 PUSH2 0x100 EXP DUP2 SLOAD DUP2 PUSH1 0xFF MUL NOT AND SWAP1 DUP4 ISZERO ISZERO MUL OR SWAP1 SSTORE POP PUSH2 0x24F9 PUSH2 0x2567 JUMP JUMPDEST PUSH20 0xFFFFFFFFFFFFFFFFFFFFFFFFFFFFFFFFFFFFFFFF AND DUP3 PUSH20 0xFFFFFFFFFFFFFFFFFFFFFFFFFFFFFFFFFFFFFFFF AND DUP5 PUSH32 0x2F8788117E7EFF1D82E926EC794901D17C78024A50270940304540A733656F0D PUSH1 0x40 MLOAD PUSH1 0x40 MLOAD DUP1 SWAP2 SUB SWAP1 LOG4 PUSH1 0x1 SWAP1 POP PUSH2 0x2561 JUMP JUMPDEST PUSH1 0x0 SWAP1 POP JUMPDEST SWAP3 SWAP2 POP POP JUMP JUMPDEST PUSH1 0x0 CALLER SWAP1 POP SWAP1 JUMP JUMPDEST PUSH1 0x0 PUSH2 0x257B DUP4 DUP4 PUSH2 0x1767 JUMP JUMPDEST ISZERO PUSH2 0x2657 JUMPI PUSH1 0x0 PUSH1 0xA PUSH1 0x0 DUP6 DUP2 MSTORE PUSH1 0x20 ADD SWAP1 DUP2 MSTORE PUSH1 0x20 ADD PUSH1 0x0 KECCAK256 PUSH1 0x0 ADD PUSH1 0x0 DUP5 PUSH20 0xFFFFFFFFFFFFFFFFFFFFFFFFFFFFFFFFFFFFFFFF AND PUSH20 0xFFFFFFFFFFFFFFFFFFFFFFFFFFFFFFFFFFFFFFFF AND DUP2 MSTORE PUSH1 0x20 ADD SWAP1 DUP2 MSTORE PUSH1 0x20 ADD PUSH1 0x0 KECCAK256 PUSH1 0x0 PUSH2 0x100 EXP DUP2 SLOAD DUP2 PUSH1 0xFF MUL NOT AND SWAP1 DUP4 ISZERO ISZERO MUL OR SWAP1 SSTORE POP PUSH2 0x25F4 PUSH2 0x2567 JUMP JUMPDEST PUSH20 0xFFFFFFFFFFFFFFFFFFFFFFFFFFFFFFFFFFFFFFFF AND DUP3 PUSH20 0xFFFFFFFFFFFFFFFFFFFFFFFFFFFFFFFFFFFFFFFF AND DUP5 PUSH32 0xF6391F5C32D9C69D2A47EA670B442974B53935D1EDC7FD64EB21E047A839171B PUSH1 0x40 MLOAD PUSH1 0x40 MLOAD DUP1 SWAP2 SUB SWAP1 LOG4 PUSH1 0x1 SWAP1 POP PUSH2 0x265C JUMP JUMPDEST PUSH1 0x0 SWAP1 POP JUMPDEST SWAP3 SWAP2 POP POP JUMP JUMPDEST PUSH1 0x0 PUSH1 0x9 PUSH1 0x0 SWAP1 SLOAD SWAP1 PUSH2 0x100 EXP SWAP1 DIV PUSH20 0xFFFFFFFFFFFFFFFFFFFFFFFFFFFFFFFFFFFFFFFF AND SWAP1 POP DUP2 PUSH1 0x9 PUSH1 0x0 PUSH2 0x100 EXP DUP2 SLOAD DUP2 PUSH20 0xFFFFFFFFFFFFFFFFFFFFFFFFFFFFFFFFFFFFFFFF MUL NOT AND SWAP1 DUP4 PUSH20 0xFFFFFFFFFFFFFFFFFFFFFFFFFFFFFFFFFFFFFFFF AND MUL OR SWAP1 SSTORE POP DUP2 PUSH20 0xFFFFFFFFFFFFFFFFFFFFFFFFFFFFFFFFFFFFFFFF AND DUP2 PUSH20 0xFFFFFFFFFFFFFFFFFFFFFFFFFFFFFFFFFFFFFFFF AND PUSH32 0x8BE0079C531659141344CD1FD0A4F28419497F9722A3DAAFE3B4186F6B6457E0 PUSH1 0x40 MLOAD PUSH1 0x40 MLOAD DUP1 SWAP2 SUB SWAP1 LOG3 POP POP JUMP JUMPDEST PUSH1 0x0 PUSH2 0x2732 PUSH2 0x21C2 JUMP JUMPDEST PUSH1 0x0 SLOAD SUB SWAP1 POP PUSH32 0xFFFFFFFFFFFFFFFFFFFFFFFFFFFFFFFFFFFFFFFFFFFFFFFFFFFFFFFFFFFFFFFF PUSH2 0x2761 PUSH2 0x21C7 JUMP JUMPDEST EQ PUSH2 0x276E JUMPI PUSH1 0x8 SLOAD DUP2 ADD SWAP1 POP JUMPDEST SWAP1 JUMP JUMPDEST PUSH1 0x0 DUP1 SLOAD SWAP1 POP PUSH1 0x0 DUP3 SUB PUSH2 0x2790 JUMPI PUSH2 0x278F PUSH4 0xB562E8DD PUSH1 0xE0 SHL PUSH2 0x2089 JUMP JUMPDEST JUMPDEST PUSH2 0x279D PUSH1 0x0 DUP5 DUP4 DUP6 PUSH2 0x2402 JUMP JUMPDEST PUSH2 0x27BD DUP4 PUSH2 0x27AE PUSH1 0x0 DUP7 PUSH1 0x0 PUSH2 0x2408 JUMP JUMPDEST PUSH2 0x27B7 DUP6 PUSH2 0x2B2B JUMP JUMPDEST OR PUSH2 0x2430 JUMP JUMPDEST PUSH1 0x4 PUSH1 0x0 DUP4 DUP2 MSTORE PUSH1 0x20 ADD SWAP1 DUP2 MSTORE PUSH1 0x20 ADD PUSH1 0x0 KECCAK256 DUP2 SWAP1 SSTORE POP PUSH1 0x1 PUSH1 0x40 PUSH1 0x1 SWAP1 SHL OR DUP3 MUL PUSH1 0x5 PUSH1 0x0 DUP6 PUSH20 0xFFFFFFFFFFFFFFFFFFFFFFFFFFFFFFFFFFFFFFFF AND PUSH20 0xFFFFFFFFFFFFFFFFFFFFFFFFFFFFFFFFFFFFFFFF AND DUP2 MSTORE PUSH1 0x20 ADD SWAP1 DUP2 MSTORE PUSH1 0x20 ADD PUSH1 0x0 KECCAK256 PUSH1 0x0 DUP3 DUP3 SLOAD ADD SWAP3 POP POP DUP2 SWAP1 SSTORE POP PUSH1 0x0 PUSH20 0xFFFFFFFFFFFFFFFFFFFFFFFFFFFFFFFFFFFFFFFF DUP5 PUSH20 0xFFFFFFFFFFFFFFFFFFFFFFFFFFFFFFFFFFFFFFFF AND AND SWAP1 POP PUSH1 0x0 DUP2 SUB PUSH2 0x2875 JUMPI PUSH2 0x2874 PUSH4 0x2E076300 PUSH1 0xE0 SHL PUSH2 0x2089 JUMP JUMPDEST JUMPDEST PUSH1 0x0 DUP4 DUP4 ADD SWAP1 POP PUSH1 0x0 DUP4 SWAP1 POP PUSH2 0x2889 PUSH2 0x21C7 JUMP JUMPDEST PUSH1 0x1 DUP4 SUB GT ISZERO PUSH2 0x28A4 JUMPI PUSH2 0x28A3 PUSH4 0x81647E3A PUSH1 0xE0 SHL PUSH2 0x2089 JUMP JUMPDEST JUMPDEST JUMPDEST DUP1 DUP4 PUSH1 0x0 PUSH32 0xDDF252AD1BE2C89B69C2B068FC378DAA952BA7F163C4A11628F55A4DF523B3EF PUSH1 0x0 DUP1 LOG4 DUP2 DUP2 PUSH1 0x1 ADD SWAP2 POP DUP2 SUB PUSH2 0x28A5 JUMPI DUP2 PUSH1 0x0 DUP2 SWAP1 SSTORE POP POP POP POP PUSH2 0x28F2 PUSH1 0x0 DUP5 DUP4 DUP6 PUSH2 0x245B JUMP JUMPDEST POP POP POP JUMP JUMPDEST PUSH1 0x0 DUP4 PUSH20 0xFFFFFFFFFFFFFFFFFFFFFFFFFFFFFFFFFFFFFFFF AND PUSH4 0x150B7A02 PUSH2 0x291D PUSH2 0x23B6 JUMP JUMPDEST DUP8 DUP7 DUP7 PUSH1 0x40 MLOAD DUP6 PUSH4 0xFFFFFFFF AND PUSH1 0xE0 SHL DUP2 MSTORE PUSH1 0x4 ADD PUSH2 0x293F SWAP5 SWAP4 SWAP3 SWAP2 SWAP1 PUSH2 0x3CA4 JUMP JUMPDEST PUSH1 0x20 PUSH1 0x40 MLOAD DUP1 DUP4 SUB DUP2 PUSH1 0x0 DUP8 GAS CALL SWAP3 POP POP POP DUP1 ISZERO PUSH2 0x297B JUMPI POP PUSH1 0x40 MLOAD RETURNDATASIZE PUSH1 0x1F NOT PUSH1 0x1F DUP3 ADD AND DUP3 ADD DUP1 PUSH1 0x40 MSTORE POP DUP2 ADD SWAP1 PUSH2 0x2978 SWAP2 SWAP1 PUSH2 0x3D05 JUMP JUMPDEST PUSH1 0x1 JUMPDEST PUSH2 0x29D3 JUMPI RETURNDATASIZE DUP1 PUSH1 0x0 DUP2 EQ PUSH2 0x29AB JUMPI PUSH1 0x40 MLOAD SWAP2 POP PUSH1 0x1F NOT PUSH1 0x3F RETURNDATASIZE ADD AND DUP3 ADD PUSH1 0x40 MSTORE RETURNDATASIZE DUP3 MSTORE RETURNDATASIZE PUSH1 0x0 PUSH1 0x20 DUP5 ADD RETURNDATACOPY PUSH2 0x29B0 JUMP JUMPDEST PUSH1 0x60 SWAP2 POP JUMPDEST POP PUSH1 0x0 DUP2 MLOAD SUB PUSH2 0x29CB JUMPI PUSH2 0x29CA PUSH4 0xD1A57ED6 PUSH1 0xE0 SHL PUSH2 0x2089 JUMP JUMPDEST JUMPDEST DUP1 MLOAD DUP2 PUSH1 0x20 ADD REVERT JUMPDEST PUSH4 0x150B7A02 PUSH1 0xE0 SHL PUSH28 0xFFFFFFFFFFFFFFFFFFFFFFFFFFFFFFFFFFFFFFFFFFFFFFFFFFFFFFFF NOT AND DUP2 PUSH28 0xFFFFFFFFFFFFFFFFFFFFFFFFFFFFFFFFFFFFFFFFFFFFFFFFFFFFFFFF NOT AND EQ SWAP2 POP POP SWAP5 SWAP4 POP POP POP POP JUMP JUMPDEST PUSH1 0x0 PUSH32 0x1FFC9A700000000000000000000000000000000000000000000000000000000 PUSH28 0xFFFFFFFFFFFFFFFFFFFFFFFFFFFFFFFFFFFFFFFFFFFFFFFFFFFFFFFF NOT AND DUP3 PUSH28 0xFFFFFFFFFFFFFFFFFFFFFFFFFFFFFFFFFFFFFFFFFFFFFFFFFFFFFFFF NOT AND EQ SWAP1 POP SWAP2 SWAP1 POP JUMP JUMPDEST PUSH1 0x0 PUSH29 0x100000000000000000000000000000000000000000000000000000000 DUP3 AND PUSH20 0xFFFFFFFFFFFFFFFFFFFFFFFFFFFFFFFFFFFFFFFF DUP4 AND GT SWAP1 POP SWAP2 SWAP1 POP JUMP JUMPDEST PUSH1 0x0 SWAP4 SWAP3 POP POP POP JUMP JUMPDEST PUSH2 0x2AE4 DUP3 DUP3 PUSH2 0x1767 JUMP JUMPDEST PUSH2 0x2B27 JUMPI DUP1 DUP3 PUSH1 0x40 MLOAD PUSH32 0xE2517D3F00000000000000000000000000000000000000000000000000000000 DUP2 MSTORE PUSH1 0x4 ADD PUSH2 0x2B1E SWAP3 SWAP2 SWAP1 PUSH2 0x3D32 JUMP JUMPDEST PUSH1 0x40 MLOAD DUP1 SWAP2 SUB SWAP1 REVERT JUMPDEST POP POP JUMP JUMPDEST PUSH1 0x0 PUSH1 0x1 DUP3 EQ PUSH1 0xE1 SHL SWAP1 POP SWAP2 SWAP1 POP JUMP JUMPDEST PUSH1 0x0 PUSH1 0x40 MLOAD SWAP1 POP SWAP1 JUMP JUMPDEST PUSH1 0x0 DUP1 REVERT JUMPDEST PUSH1 0x0 DUP1 REVERT JUMPDEST PUSH1 0x0 PUSH32 0xFFFFFFFF00000000000000000000000000000000000000000000000000000000 DUP3 AND SWAP1 POP SWAP2 SWAP1 POP JUMP JUMPDEST PUSH2 0x2B84 DUP2 PUSH2 0x2B4F JUMP JUMPDEST DUP2 EQ PUSH2 0x2B8F JUMPI PUSH1 0x0 DUP1 REVERT JUMPDEST POP JUMP JUMPDEST PUSH1 0x0 DUP2 CALLDATALOAD SWAP1 POP PUSH2 0x2BA1 DUP2 PUSH2 0x2B7B JUMP JUMPDEST SWAP3 SWAP2 POP POP JUMP JUMPDEST PUSH1 0x0 PUSH1 0x20 DUP3 DUP5 SUB SLT ISZERO PUSH2 0x2BBD JUMPI PUSH2 0x2BBC PUSH2 0x2B45 JUMP JUMPDEST JUMPDEST PUSH1 0x0 PUSH2 0x2BCB DUP5 DUP3 DUP6 ADD PUSH2 0x2B92 JUMP JUMPDEST SWAP2 POP POP SWAP3 SWAP2 POP POP JUMP JUMPDEST PUSH1 0x0 DUP2 ISZERO ISZERO SWAP1 POP SWAP2 SWAP1 POP JUMP JUMPDEST PUSH2 0x2BE9 DUP2 PUSH2 0x2BD4 JUMP JUMPDEST DUP3 MSTORE POP POP JUMP JUMPDEST PUSH1 0x0 PUSH1 0x20 DUP3 ADD SWAP1 POP PUSH2 0x2C04 PUSH1 0x0 DUP4 ADD DUP5 PUSH2 0x2BE0 JUMP JUMPDEST SWAP3 SWAP2 POP POP JUMP JUMPDEST PUSH1 0x0 DUP2 MLOAD SWAP1 POP SWAP2 SWAP1 POP JUMP JUMPDEST PUSH1 0x0 DUP3 DUP3 MSTORE PUSH1 0x20 DUP3 ADD SWAP1 POP SWAP3 SWAP2 POP POP JUMP JUMPDEST PUSH1 0x0 JUMPDEST DUP4 DUP2 LT ISZERO PUSH2 0x2C44 JUMPI DUP1 DUP3 ADD MLOAD DUP2 DUP5 ADD MSTORE PUSH1 0x20 DUP2 ADD SWAP1 POP PUSH2 0x2C29 JUMP JUMPDEST PUSH1 0x0 DUP5 DUP5 ADD MSTORE POP POP POP POP JUMP JUMPDEST PUSH1 0x0 PUSH1 0x1F NOT PUSH1 0x1F DUP4 ADD AND SWAP1 POP SWAP2 SWAP1 POP JUMP JUMPDEST PUSH1 0x0 PUSH2 0x2C6C DUP3 PUSH2 0x2C0A JUMP JUMPDEST PUSH2 0x2C76 DUP2 DUP6 PUSH2 0x2C15 JUMP JUMPDEST SWAP4 POP PUSH2 0x2C86 DUP2 DUP6 PUSH1 0x20 DUP7 ADD PUSH2 0x2C26 JUMP JUMPDEST PUSH2 0x2C8F DUP2 PUSH2 0x2C50 JUMP JUMPDEST DUP5 ADD SWAP2 POP POP SWAP3 SWAP2 POP POP JUMP JUMPDEST PUSH1 0x0 PUSH1 0x20 DUP3 ADD SWAP1 POP DUP2 DUP2 SUB PUSH1 0x0 DUP4 ADD MSTORE PUSH2 0x2CB4 DUP2 DUP5 PUSH2 0x2C61 JUMP JUMPDEST SWAP1 POP SWAP3 SWAP2 POP POP JUMP JUMPDEST PUSH1 0x0 DUP2 SWAP1 POP SWAP2 SWAP1 POP JUMP JUMPDEST PUSH2 0x2CCF DUP2 PUSH2 0x2CBC JUMP JUMPDEST DUP2 EQ PUSH2 0x2CDA JUMPI PUSH1 0x0 DUP1 REVERT JUMPDEST POP JUMP JUMPDEST PUSH1 0x0 DUP2 CALLDATALOAD SWAP1 POP PUSH2 0x2CEC DUP2 PUSH2 0x2CC6 JUMP JUMPDEST SWAP3 SWAP2 POP POP JUMP JUMPDEST PUSH1 0x0 PUSH1 0x20 DUP3 DUP5 SUB SLT ISZERO PUSH2 0x2D08 JUMPI PUSH2 0x2D07 PUSH2 0x2B45 JUMP JUMPDEST JUMPDEST PUSH1 0x0 PUSH2 0x2D16 DUP5 DUP3 DUP6 ADD PUSH2 0x2CDD JUMP JUMPDEST SWAP2 POP POP SWAP3 SWAP2 POP POP JUMP JUMPDEST PUSH1 0x0 PUSH20 0xFFFFFFFFFFFFFFFFFFFFFFFFFFFFFFFFFFFFFFFF DUP3 AND SWAP1 POP SWAP2 SWAP1 POP JUMP JUMPDEST PUSH1 0x0 PUSH2 0x2D4A DUP3 PUSH2 0x2D1F JUMP JUMPDEST SWAP1 POP SWAP2 SWAP1 POP JUMP JUMPDEST PUSH2 0x2D5A DUP2 PUSH2 0x2D3F JUMP JUMPDEST DUP3 MSTORE POP POP JUMP JUMPDEST PUSH1 0x0 PUSH1 0x20 DUP3 ADD SWAP1 POP PUSH2 0x2D75 PUSH1 0x0 DUP4 ADD DUP5 PUSH2 0x2D51 JUMP JUMPDEST SWAP3 SWAP2 POP POP JUMP JUMPDEST PUSH2 0x2D84 DUP2 PUSH2 0x2D3F JUMP JUMPDEST DUP2 EQ PUSH2 0x2D8F JUMPI PUSH1 0x0 DUP1 REVERT JUMPDEST POP JUMP JUMPDEST PUSH1 0x0 DUP2 CALLDATALOAD SWAP1 POP PUSH2 0x2DA1 DUP2 PUSH2 0x2D7B JUMP JUMPDEST SWAP3 SWAP2 POP POP JUMP JUMPDEST PUSH1 0x0 DUP1 PUSH1 0x40 DUP4 DUP6 SUB SLT ISZERO PUSH2 0x2DBE JUMPI PUSH2 0x2DBD PUSH2 0x2B45 JUMP JUMPDEST JUMPDEST PUSH1 0x0 PUSH2 0x2DCC DUP6 DUP3 DUP7 ADD PUSH2 0x2D92 JUMP JUMPDEST SWAP3 POP POP PUSH1 0x20 PUSH2 0x2DDD DUP6 DUP3 DUP7 ADD PUSH2 0x2CDD JUMP JUMPDEST SWAP2 POP POP SWAP3 POP SWAP3 SWAP1 POP JUMP JUMPDEST PUSH2 0x2DF0 DUP2 PUSH2 0x2CBC JUMP JUMPDEST DUP3 MSTORE POP POP JUMP JUMPDEST PUSH1 0x0 PUSH1 0x20 DUP3 ADD SWAP1 POP PUSH2 0x2E0B PUSH1 0x0 DUP4 ADD DUP5 PUSH2 0x2DE7 JUMP JUMPDEST SWAP3 SWAP2 POP POP JUMP JUMPDEST PUSH1 0x0 DUP1 REVERT JUMPDEST PUSH1 0x0 DUP1 REVERT JUMPDEST PUSH32 0x4E487B7100000000000000000000000000000000000000000000000000000000 PUSH1 0x0 MSTORE PUSH1 0x41 PUSH1 0x4 MSTORE PUSH1 0x24 PUSH1 0x0 REVERT JUMPDEST PUSH2 0x2E53 DUP3 PUSH2 0x2C50 JUMP JUMPDEST DUP2 ADD DUP2 DUP2 LT PUSH8 0xFFFFFFFFFFFFFFFF DUP3 GT OR ISZERO PUSH2 0x2E72 JUMPI PUSH2 0x2E71 PUSH2 0x2E1B JUMP JUMPDEST JUMPDEST DUP1 PUSH1 0x40 MSTORE POP POP POP JUMP JUMPDEST PUSH1 0x0 PUSH2 0x2E85 PUSH2 0x2B3B JUMP JUMPDEST SWAP1 POP PUSH2 0x2E91 DUP3 DUP3 PUSH2 0x2E4A JUMP JUMPDEST SWAP2 SWAP1 POP JUMP JUMPDEST PUSH1 0x0 PUSH8 0xFFFFFFFFFFFFFFFF DUP3 GT ISZERO PUSH2 0x2EB1 JUMPI PUSH2 0x2EB0 PUSH2 0x2E1B JUMP JUMPDEST JUMPDEST PUSH2 0x2EBA DUP3 PUSH2 0x2C50 JUMP JUMPDEST SWAP1 POP PUSH1 0x20 DUP2 ADD SWAP1 POP SWAP2 SWAP1 POP JUMP JUMPDEST DUP3 DUP2 DUP4 CALLDATACOPY PUSH1 0x0 DUP4 DUP4 ADD MSTORE POP POP POP JUMP JUMPDEST PUSH1 0x0 PUSH2 0x2EE9 PUSH2 0x2EE4 DUP5 PUSH2 0x2E96 JUMP JUMPDEST PUSH2 0x2E7B JUMP JUMPDEST SWAP1 POP DUP3 DUP2 MSTORE PUSH1 0x20 DUP2 ADD DUP5 DUP5 DUP5 ADD GT ISZERO PUSH2 0x2F05 JUMPI PUSH2 0x2F04 PUSH2 0x2E16 JUMP JUMPDEST JUMPDEST PUSH2 0x2F10 DUP5 DUP3 DUP6 PUSH2 0x2EC7 JUMP JUMPDEST POP SWAP4 SWAP3 POP POP POP JUMP JUMPDEST PUSH1 0x0 DUP3 PUSH1 0x1F DUP4 ADD SLT PUSH2 0x2F2D JUMPI PUSH2 0x2F2C PUSH2 0x2E11 JUMP JUMPDEST JUMPDEST DUP2 CALLDATALOAD PUSH2 0x2F3D DUP5 DUP3 PUSH1 0x20 DUP7 ADD PUSH2 0x2ED6 JUMP JUMPDEST SWAP2 POP POP SWAP3 SWAP2 POP POP JUMP JUMPDEST PUSH1 0x0 PUSH1 0x20 DUP3 DUP5 SUB SLT ISZERO PUSH2 0x2F5C JUMPI PUSH2 0x2F5B PUSH2 0x2B45 JUMP JUMPDEST JUMPDEST PUSH1 0x0 DUP3 ADD CALLDATALOAD PUSH8 0xFFFFFFFFFFFFFFFF DUP2 GT ISZERO PUSH2 0x2F7A JUMPI PUSH2 0x2F79 PUSH2 0x2B4A JUMP JUMPDEST JUMPDEST PUSH2 0x2F86 DUP5 DUP3 DUP6 ADD PUSH2 0x2F18 JUMP JUMPDEST SWAP2 POP POP SWAP3 SWAP2 POP POP JUMP JUMPDEST PUSH1 0x0 DUP1 PUSH1 0x0 PUSH1 0x60 DUP5 DUP7 SUB SLT ISZERO PUSH2 0x2FA8 JUMPI PUSH2 0x2FA7 PUSH2 0x2B45 JUMP JUMPDEST JUMPDEST PUSH1 0x0 PUSH2 0x2FB6 DUP7 DUP3 DUP8 ADD PUSH2 0x2D92 JUMP JUMPDEST SWAP4 POP POP PUSH1 0x20 PUSH2 0x2FC7 DUP7 DUP3 DUP8 ADD PUSH2 0x2D92 JUMP JUMPDEST SWAP3 POP POP PUSH1 0x40 PUSH2 0x2FD8 DUP7 DUP3 DUP8 ADD PUSH2 0x2CDD JUMP JUMPDEST SWAP2 POP POP SWAP3 POP SWAP3 POP SWAP3 JUMP JUMPDEST PUSH1 0x0 DUP2 SWAP1 POP SWAP2 SWAP1 POP JUMP JUMPDEST PUSH2 0x2FF5 DUP2 PUSH2 0x2FE2 JUMP JUMPDEST DUP2 EQ PUSH2 0x3000 JUMPI PUSH1 0x0 DUP1 REVERT JUMPDEST POP JUMP JUMPDEST PUSH1 0x0 DUP2 CALLDATALOAD SWAP1 POP PUSH2 0x3012 DUP2 PUSH2 0x2FEC JUMP JUMPDEST SWAP3 SWAP2 POP POP JUMP JUMPDEST PUSH1 0x0 PUSH1 0x20 DUP3 DUP5 SUB SLT ISZERO PUSH2 0x302E JUMPI PUSH2 0x302D PUSH2 0x2B45 JUMP JUMPDEST JUMPDEST PUSH1 0x0 PUSH2 0x303C DUP5 DUP3 DUP6 ADD PUSH2 0x3003 JUMP JUMPDEST SWAP2 POP POP SWAP3 SWAP2 POP POP JUMP JUMPDEST PUSH2 0x304E DUP2 PUSH2 0x2FE2 JUMP JUMPDEST DUP3 MSTORE POP POP JUMP JUMPDEST PUSH1 0x0 PUSH1 0x20 DUP3 ADD SWAP1 POP PUSH2 0x3069 PUSH1 0x0 DUP4 ADD DUP5 PUSH2 0x3045 JUMP JUMPDEST SWAP3 SWAP2 POP POP JUMP JUMPDEST PUSH1 0x0 DUP1 PUSH1 0x40 DUP4 DUP6 SUB SLT ISZERO PUSH2 0x3086 JUMPI PUSH2 0x3085 PUSH2 0x2B45 JUMP JUMPDEST JUMPDEST PUSH1 0x0 PUSH2 0x3094 DUP6 DUP3 DUP7 ADD PUSH2 0x3003 JUMP JUMPDEST SWAP3 POP POP PUSH1 0x20 PUSH2 0x30A5 DUP6 DUP3 DUP7 ADD PUSH2 0x2D92 JUMP JUMPDEST SWAP2 POP POP SWAP3 POP SWAP3 SWAP1 POP JUMP JUMPDEST PUSH1 0x0 DUP1 PUSH1 0x40 DUP4 DUP6 SUB SLT ISZERO PUSH2 0x30C6 JUMPI PUSH2 0x30C5 PUSH2 0x2B45 JUMP JUMPDEST JUMPDEST PUSH1 0x0 PUSH2 0x30D4 DUP6 DUP3 DUP7 ADD PUSH2 0x2CDD JUMP JUMPDEST SWAP3 POP POP PUSH1 0x20 PUSH2 0x30E5 DUP6 DUP3 DUP7 ADD PUSH2 0x2CDD JUMP JUMPDEST SWAP2 POP POP SWAP3 POP SWAP3 SWAP1 POP JUMP JUMPDEST PUSH1 0x0 PUSH1 0x20 DUP3 DUP5 SUB SLT ISZERO PUSH2 0x3105 JUMPI PUSH2 0x3104 PUSH2 0x2B45 JUMP JUMPDEST JUMPDEST PUSH1 0x0 PUSH2 0x3113 DUP5 DUP3 DUP6 ADD PUSH2 0x2D92 JUMP JUMPDEST SWAP2 POP POP SWAP3 SWAP2 POP POP JUMP JUMPDEST PUSH2 0x3125 DUP2 PUSH2 0x2BD4 JUMP JUMPDEST DUP2 EQ PUSH2 0x3130 JUMPI PUSH1 0x0 DUP1 REVERT JUMPDEST POP JUMP JUMPDEST PUSH1 0x0 DUP2 CALLDATALOAD SWAP1 POP PUSH2 0x3142 DUP2 PUSH2 0x311C JUMP JUMPDEST SWAP3 SWAP2 POP POP JUMP JUMPDEST PUSH1 0x0 DUP1 PUSH1 0x40 DUP4 DUP6 SUB SLT ISZERO PUSH2 0x315F JUMPI PUSH2 0x315E PUSH2 0x2B45 JUMP JUMPDEST JUMPDEST PUSH1 0x0 PUSH2 0x316D DUP6 DUP3 DUP7 ADD PUSH2 0x2D92 JUMP JUMPDEST SWAP3 POP POP PUSH1 0x20 PUSH2 0x317E DUP6 DUP3 DUP7 ADD PUSH2 0x3133 JUMP JUMPDEST SWAP2 POP POP SWAP3 POP SWAP3 SWAP1 POP JUMP JUMPDEST PUSH1 0x0 PUSH8 0xFFFFFFFFFFFFFFFF DUP3 GT ISZERO PUSH2 0x31A3 JUMPI PUSH2 0x31A2 PUSH2 0x2E1B JUMP JUMPDEST JUMPDEST PUSH2 0x31AC DUP3 PUSH2 0x2C50 JUMP JUMPDEST SWAP1 POP PUSH1 0x20 DUP2 ADD SWAP1 POP SWAP2 SWAP1 POP JUMP JUMPDEST PUSH1 0x0 PUSH2 0x31CC PUSH2 0x31C7 DUP5 PUSH2 0x3188 JUMP JUMPDEST PUSH2 0x2E7B JUMP JUMPDEST SWAP1 POP DUP3 DUP2 MSTORE PUSH1 0x20 DUP2 ADD DUP5 DUP5 DUP5 ADD GT ISZERO PUSH2 0x31E8 JUMPI PUSH2 0x31E7 PUSH2 0x2E16 JUMP JUMPDEST JUMPDEST PUSH2 0x31F3 DUP5 DUP3 DUP6 PUSH2 0x2EC7 JUMP JUMPDEST POP SWAP4 SWAP3 POP POP POP JUMP JUMPDEST PUSH1 0x0 DUP3 PUSH1 0x1F DUP4 ADD SLT PUSH2 0x3210 JUMPI PUSH2 0x320F PUSH2 0x2E11 JUMP JUMPDEST JUMPDEST DUP2 CALLDATALOAD PUSH2 0x3220 DUP5 DUP3 PUSH1 0x20 DUP7 ADD PUSH2 0x31B9 JUMP JUMPDEST SWAP2 POP POP SWAP3 SWAP2 POP POP JUMP JUMPDEST PUSH1 0x0 DUP1 PUSH1 0x0 DUP1 PUSH1 0x80 DUP6 DUP8 SUB SLT ISZERO PUSH2 0x3243 JUMPI PUSH2 0x3242 PUSH2 0x2B45 JUMP JUMPDEST JUMPDEST PUSH1 0x0 PUSH2 0x3251 DUP8 DUP3 DUP9 ADD PUSH2 0x2D92 JUMP JUMPDEST SWAP5 POP POP PUSH1 0x20 PUSH2 0x3262 DUP8 DUP3 DUP9 ADD PUSH2 0x2D92 JUMP JUMPDEST SWAP4 POP POP PUSH1 0x40 PUSH2 0x3273 DUP8 DUP3 DUP9 ADD PUSH2 0x2CDD JUMP JUMPDEST SWAP3 POP POP PUSH1 0x60 DUP6 ADD CALLDATALOAD PUSH8 0xFFFFFFFFFFFFFFFF DUP2 GT ISZERO PUSH2 0x3294 JUMPI PUSH2 0x3293 PUSH2 0x2B4A JUMP JUMPDEST JUMPDEST PUSH2 0x32A0 DUP8 DUP3 DUP9 ADD PUSH2 0x31FB JUMP JUMPDEST SWAP2 POP POP SWAP3 SWAP6 SWAP2 SWAP5 POP SWAP3 POP JUMP JUMPDEST PUSH1 0x0 DUP1 PUSH1 0x0 DUP1 PUSH1 0x0 DUP1 PUSH1 0x0 PUSH1 0xE0 DUP9 DUP11 SUB SLT ISZERO PUSH2 0x32CB JUMPI PUSH2 0x32CA PUSH2 0x2B45 JUMP JUMPDEST JUMPDEST PUSH1 0x0 DUP9 ADD CALLDATALOAD PUSH8 0xFFFFFFFFFFFFFFFF DUP2 GT ISZERO PUSH2 0x32E9 JUMPI PUSH2 0x32E8 PUSH2 0x2B4A JUMP JUMPDEST JUMPDEST PUSH2 0x32F5 DUP11 DUP3 DUP12 ADD PUSH2 0x2F18 JUMP JUMPDEST SWAP8 POP POP PUSH1 0x20 DUP9 ADD CALLDATALOAD PUSH8 0xFFFFFFFFFFFFFFFF DUP2 GT ISZERO PUSH2 0x3316 JUMPI PUSH2 0x3315 PUSH2 0x2B4A JUMP JUMPDEST JUMPDEST PUSH2 0x3322 DUP11 DUP3 DUP12 ADD PUSH2 0x2F18 JUMP JUMPDEST SWAP7 POP POP PUSH1 0x40 DUP9 ADD CALLDATALOAD PUSH8 0xFFFFFFFFFFFFFFFF DUP2 GT ISZERO PUSH2 0x3343 JUMPI PUSH2 0x3342 PUSH2 0x2B4A JUMP JUMPDEST JUMPDEST PUSH2 0x334F DUP11 DUP3 DUP12 ADD PUSH2 0x2F18 JUMP JUMPDEST SWAP6 POP POP PUSH1 0x60 DUP9 ADD CALLDATALOAD PUSH8 0xFFFFFFFFFFFFFFFF DUP2 GT ISZERO PUSH2 0x3370 JUMPI PUSH2 0x336F PUSH2 0x2B4A JUMP JUMPDEST JUMPDEST PUSH2 0x337C DUP11 DUP3 DUP12 ADD PUSH2 0x2F18 JUMP JUMPDEST SWAP5 POP POP PUSH1 0x80 DUP9 ADD CALLDATALOAD PUSH8 0xFFFFFFFFFFFFFFFF DUP2 GT ISZERO PUSH2 0x339D JUMPI PUSH2 0x339C PUSH2 0x2B4A JUMP JUMPDEST JUMPDEST PUSH2 0x33A9 DUP11 DUP3 DUP12 ADD PUSH2 0x2F18 JUMP JUMPDEST SWAP4 POP POP PUSH1 0xA0 DUP9 ADD CALLDATALOAD PUSH8 0xFFFFFFFFFFFFFFFF DUP2 GT ISZERO PUSH2 0x33CA JUMPI PUSH2 0x33C9 PUSH2 0x2B4A JUMP JUMPDEST JUMPDEST PUSH2 0x33D6 DUP11 DUP3 DUP12 ADD PUSH2 0x2F18 JUMP JUMPDEST SWAP3 POP POP PUSH1 0xC0 DUP9 ADD CALLDATALOAD PUSH8 0xFFFFFFFFFFFFFFFF DUP2 GT ISZERO PUSH2 0x33F7 JUMPI PUSH2 0x33F6 PUSH2 0x2B4A JUMP JUMPDEST JUMPDEST PUSH2 0x3403 DUP11 DUP3 DUP12 ADD PUSH2 0x2F18 JUMP JUMPDEST SWAP2 POP POP SWAP3 SWAP6 SWAP9 SWAP2 SWAP5 SWAP8 POP SWAP3 SWAP6 POP JUMP JUMPDEST PUSH1 0x0 DUP1 PUSH1 0x40 DUP4 DUP6 SUB SLT ISZERO PUSH2 0x3429 JUMPI PUSH2 0x3428 PUSH2 0x2B45 JUMP JUMPDEST JUMPDEST PUSH1 0x0 PUSH2 0x3437 DUP6 DUP3 DUP7 ADD PUSH2 0x2D92 JUMP JUMPDEST SWAP3 POP POP PUSH1 0x20 PUSH2 0x3448 DUP6 DUP3 DUP7 ADD PUSH2 0x2D92 JUMP JUMPDEST SWAP2 POP POP SWAP3 POP SWAP3 SWAP1 POP JUMP JUMPDEST PUSH32 0x4E487B7100000000000000000000000000000000000000000000000000000000 PUSH1 0x0 MSTORE PUSH1 0x22 PUSH1 0x4 MSTORE PUSH1 0x24 PUSH1 0x0 REVERT JUMPDEST PUSH1 0x0 PUSH1 0x2 DUP3 DIV SWAP1 POP PUSH1 0x1 DUP3 AND DUP1 PUSH2 0x3499 JUMPI PUSH1 0x7F DUP3 AND SWAP2 POP JUMPDEST PUSH1 0x20 DUP3 LT DUP2 SUB PUSH2 0x34AC JUMPI PUSH2 0x34AB PUSH2 0x3452 JUMP JUMPDEST JUMPDEST POP SWAP2 SWAP1 POP JUMP JUMPDEST PUSH32 0x6E667420616C7265616479206C6F636B65640000000000000000000000000000 PUSH1 0x0 DUP3 ADD MSTORE POP JUMP JUMPDEST PUSH1 0x0 PUSH2 0x34E8 PUSH1 0x12 DUP4 PUSH2 0x2C15 JUMP JUMPDEST SWAP2 POP PUSH2 0x34F3 DUP3 PUSH2 0x34B2 JUMP JUMPDEST PUSH1 0x20 DUP3 ADD SWAP1 POP SWAP2 SWAP1 POP JUMP JUMPDEST PUSH1 0x0 PUSH1 0x20 DUP3 ADD SWAP1 POP DUP2 DUP2 SUB PUSH1 0x0 DUP4 ADD MSTORE PUSH2 0x3517 DUP2 PUSH2 0x34DB JUMP JUMPDEST SWAP1 POP SWAP2 SWAP1 POP JUMP JUMPDEST PUSH1 0x0 DUP2 SWAP1 POP DUP2 PUSH1 0x0 MSTORE PUSH1 0x20 PUSH1 0x0 KECCAK256 SWAP1 POP SWAP2 SWAP1 POP JUMP JUMPDEST PUSH1 0x0 PUSH1 0x20 PUSH1 0x1F DUP4 ADD DIV SWAP1 POP SWAP2 SWAP1 POP JUMP JUMPDEST PUSH1 0x0 DUP3 DUP3 SHL SWAP1 POP SWAP3 SWAP2 POP POP JUMP JUMPDEST PUSH1 0x0 PUSH1 0x8 DUP4 MUL PUSH2 0x3580 PUSH32 0xFFFFFFFFFFFFFFFFFFFFFFFFFFFFFFFFFFFFFFFFFFFFFFFFFFFFFFFFFFFFFFFF DUP3 PUSH2 0x3543 JUMP JUMPDEST PUSH2 0x358A DUP7 DUP4 PUSH2 0x3543 JUMP JUMPDEST SWAP6 POP DUP1 NOT DUP5 AND SWAP4 POP DUP1 DUP7 AND DUP5 OR SWAP3 POP POP POP SWAP4 SWAP3 POP POP POP JUMP JUMPDEST PUSH1 0x0 DUP2 SWAP1 POP SWAP2 SWAP1 POP JUMP JUMPDEST PUSH1 0x0 PUSH2 0x35C7 PUSH2 0x35C2 PUSH2 0x35BD DUP5 PUSH2 0x2CBC JUMP JUMPDEST PUSH2 0x35A2 JUMP JUMPDEST PUSH2 0x2CBC JUMP JUMPDEST SWAP1 POP SWAP2 SWAP1 POP JUMP JUMPDEST PUSH1 0x0 DUP2 SWAP1 POP SWAP2 SWAP1 POP JUMP JUMPDEST PUSH2 0x35E1 DUP4 PUSH2 0x35AC JUMP JUMPDEST PUSH2 0x35F5 PUSH2 0x35ED DUP3 PUSH2 0x35CE JUMP JUMPDEST DUP5 DUP5 SLOAD PUSH2 0x3550 JUMP JUMPDEST DUP3 SSTORE POP POP POP POP JUMP JUMPDEST PUSH1 0x0 SWAP1 JUMP JUMPDEST PUSH2 0x360A PUSH2 0x35FD JUMP JUMPDEST PUSH2 0x3615 DUP2 DUP5 DUP5 PUSH2 0x35D8 JUMP JUMPDEST POP POP POP JUMP JUMPDEST JUMPDEST DUP2 DUP2 LT ISZERO PUSH2 0x3639 JUMPI PUSH2 0x362E PUSH1 0x0 DUP3 PUSH2 0x3602 JUMP JUMPDEST PUSH1 0x1 DUP2 ADD SWAP1 POP PUSH2 0x361B JUMP JUMPDEST POP POP JUMP JUMPDEST PUSH1 0x1F DUP3 GT ISZERO PUSH2 0x367E JUMPI PUSH2 0x364F DUP2 PUSH2 0x351E JUMP JUMPDEST PUSH2 0x3658 DUP5 PUSH2 0x3533 JUMP JUMPDEST DUP2 ADD PUSH1 0x20 DUP6 LT ISZERO PUSH2 0x3667 JUMPI DUP2 SWAP1 POP JUMPDEST PUSH2 0x367B PUSH2 0x3673 DUP6 PUSH2 0x3533 JUMP JUMPDEST DUP4 ADD DUP3 PUSH2 0x361A JUMP JUMPDEST POP POP JUMPDEST POP POP POP JUMP JUMPDEST PUSH1 0x0 DUP3 DUP3 SHR SWAP1 POP SWAP3 SWAP2 POP POP JUMP JUMPDEST PUSH1 0x0 PUSH2 0x36A1 PUSH1 0x0 NOT DUP5 PUSH1 0x8 MUL PUSH2 0x3683 JUMP JUMPDEST NOT DUP1 DUP4 AND SWAP2 POP POP SWAP3 SWAP2 POP POP JUMP JUMPDEST PUSH1 0x0 PUSH2 0x36BA DUP4 DUP4 PUSH2 0x3690 JUMP JUMPDEST SWAP2 POP DUP3 PUSH1 0x2 MUL DUP3 OR SWAP1 POP SWAP3 SWAP2 POP POP JUMP JUMPDEST PUSH2 0x36D3 DUP3 PUSH2 0x2C0A JUMP JUMPDEST PUSH8 0xFFFFFFFFFFFFFFFF DUP2 GT ISZERO PUSH2 0x36EC JUMPI PUSH2 0x36EB PUSH2 0x2E1B JUMP JUMPDEST JUMPDEST PUSH2 0x36F6 DUP3 SLOAD PUSH2 0x3481 JUMP JUMPDEST PUSH2 0x3701 DUP3 DUP3 DUP6 PUSH2 0x363D JUMP JUMPDEST PUSH1 0x0 PUSH1 0x20 SWAP1 POP PUSH1 0x1F DUP4 GT PUSH1 0x1 DUP2 EQ PUSH2 0x3734 JUMPI PUSH1 0x0 DUP5 ISZERO PUSH2 0x3722 JUMPI DUP3 DUP8 ADD MLOAD SWAP1 POP JUMPDEST PUSH2 0x372C DUP6 DUP3 PUSH2 0x36AE JUMP JUMPDEST DUP7 SSTORE POP PUSH2 0x3794 JUMP JUMPDEST PUSH1 0x1F NOT DUP5 AND PUSH2 0x3742 DUP7 PUSH2 0x351E JUMP JUMPDEST PUSH1 0x0 JUMPDEST DUP3 DUP2 LT ISZERO PUSH2 0x376A JUMPI DUP5 DUP10 ADD MLOAD DUP3 SSTORE PUSH1 0x1 DUP3 ADD SWAP2 POP PUSH1 0x20 DUP6 ADD SWAP5 POP PUSH1 0x20 DUP2 ADD SWAP1 POP PUSH2 0x3745 JUMP JUMPDEST DUP7 DUP4 LT ISZERO PUSH2 0x3787 JUMPI DUP5 DUP10 ADD MLOAD PUSH2 0x3783 PUSH1 0x1F DUP10 AND DUP3 PUSH2 0x3690 JUMP JUMPDEST DUP4 SSTORE POP JUMPDEST PUSH1 0x1 PUSH1 0x2 DUP9 MUL ADD DUP9 SSTORE POP POP POP JUMPDEST POP POP POP POP POP POP JUMP JUMPDEST PUSH32 0x746F6B656E20646F6573206E6F74206578697374000000000000000000000000 PUSH1 0x0 DUP3 ADD MSTORE POP JUMP JUMPDEST PUSH1 0x0 PUSH2 0x37D2 PUSH1 0x14 DUP4 PUSH2 0x2C15 JUMP JUMPDEST SWAP2 POP PUSH2 0x37DD DUP3 PUSH2 0x379C JUMP JUMPDEST PUSH1 0x20 DUP3 ADD SWAP1 POP SWAP2 SWAP1 POP JUMP JUMPDEST PUSH1 0x0 PUSH1 0x20 DUP3 ADD SWAP1 POP DUP2 DUP2 SUB PUSH1 0x0 DUP4 ADD MSTORE PUSH2 0x3801 DUP2 PUSH2 0x37C5 JUMP JUMPDEST SWAP1 POP SWAP2 SWAP1 POP JUMP JUMPDEST PUSH32 0x63616E6E6F7420726564756365207468652073636F7265626F617264206D7573 PUSH1 0x0 DUP3 ADD MSTORE PUSH32 0x742062652062696767657220746F74616C000000000000000000000000000000 PUSH1 0x20 DUP3 ADD MSTORE POP JUMP JUMPDEST PUSH1 0x0 PUSH2 0x3864 PUSH1 0x31 DUP4 PUSH2 0x2C15 JUMP JUMPDEST SWAP2 POP PUSH2 0x386F DUP3 PUSH2 0x3808 JUMP JUMPDEST PUSH1 0x40 DUP3 ADD SWAP1 POP SWAP2 SWAP1 POP JUMP JUMPDEST PUSH1 0x0 PUSH1 0x20 DUP3 ADD SWAP1 POP DUP2 DUP2 SUB PUSH1 0x0 DUP4 ADD MSTORE PUSH2 0x3893 DUP2 PUSH2 0x3857 JUMP JUMPDEST SWAP1 POP SWAP2 SWAP1 POP JUMP JUMPDEST PUSH32 0x6E6674206E6F7420657869737473000000000000000000000000000000000000 PUSH1 0x0 DUP3 ADD MSTORE POP JUMP JUMPDEST PUSH1 0x0 PUSH2 0x38D0 PUSH1 0xE DUP4 PUSH2 0x2C15 JUMP JUMPDEST SWAP2 POP PUSH2 0x38DB DUP3 PUSH2 0x389A JUMP JUMPDEST PUSH1 0x20 DUP3 ADD SWAP1 POP SWAP2 SWAP1 POP JUMP JUMPDEST PUSH1 0x0 PUSH1 0x20 DUP3 ADD SWAP1 POP DUP2 DUP2 SUB PUSH1 0x0 DUP4 ADD MSTORE PUSH2 0x38FF DUP2 PUSH2 0x38C3 JUMP JUMPDEST SWAP1 POP SWAP2 SWAP1 POP JUMP JUMPDEST PUSH32 0x6E6F206D6F726520746F6B656E7320746F206D696E7400000000000000000000 PUSH1 0x0 DUP3 ADD MSTORE POP JUMP JUMPDEST PUSH1 0x0 PUSH2 0x393C PUSH1 0x16 DUP4 PUSH2 0x2C15 JUMP JUMPDEST SWAP2 POP PUSH2 0x3947 DUP3 PUSH2 0x3906 JUMP JUMPDEST PUSH1 0x20 DUP3 ADD SWAP1 POP SWAP2 SWAP1 POP JUMP JUMPDEST PUSH1 0x0 PUSH1 0x20 DUP3 ADD SWAP1 POP DUP2 DUP2 SUB PUSH1 0x0 DUP4 ADD MSTORE PUSH2 0x396B DUP2 PUSH2 0x392F JUMP JUMPDEST SWAP1 POP SWAP2 SWAP1 POP JUMP JUMPDEST PUSH32 0x4E487B7100000000000000000000000000000000000000000000000000000000 PUSH1 0x0 MSTORE PUSH1 0x11 PUSH1 0x4 MSTORE PUSH1 0x24 PUSH1 0x0 REVERT JUMPDEST PUSH1 0x0 PUSH2 0x39AC DUP3 PUSH2 0x2CBC JUMP JUMPDEST SWAP2 POP PUSH2 0x39B7 DUP4 PUSH2 0x2CBC JUMP JUMPDEST SWAP3 POP DUP3 DUP3 ADD SWAP1 POP DUP1 DUP3 GT ISZERO PUSH2 0x39CF JUMPI PUSH2 0x39CE PUSH2 0x3972 JUMP JUMPDEST JUMPDEST SWAP3 SWAP2 POP POP JUMP JUMPDEST PUSH32 0x63616E6E6F74206D696E74206D6F7265207468616E206D617820737570706C79 PUSH1 0x0 DUP3 ADD MSTORE POP JUMP JUMPDEST PUSH1 0x0 PUSH2 0x3A0B PUSH1 0x20 DUP4 PUSH2 0x2C15 JUMP JUMPDEST SWAP2 POP PUSH2 0x3A16 DUP3 PUSH2 0x39D5 JUMP JUMPDEST PUSH1 0x20 DUP3 ADD SWAP1 POP SWAP2 SWAP1 POP JUMP JUMPDEST PUSH1 0x0 PUSH1 0x20 DUP3 ADD SWAP1 POP DUP2 DUP2 SUB PUSH1 0x0 DUP4 ADD MSTORE PUSH2 0x3A3A DUP2 PUSH2 0x39FE JUMP JUMPDEST SWAP1 POP SWAP2 SWAP1 POP JUMP JUMPDEST PUSH1 0x0 PUSH2 0x3A4C DUP3 PUSH2 0x2CBC JUMP JUMPDEST SWAP2 POP PUSH2 0x3A57 DUP4 PUSH2 0x2CBC JUMP JUMPDEST SWAP3 POP DUP3 DUP3 MUL PUSH2 0x3A65 DUP2 PUSH2 0x2CBC JUMP JUMPDEST SWAP2 POP DUP3 DUP3 DIV DUP5 EQ DUP4 ISZERO OR PUSH2 0x3A7C JUMPI PUSH2 0x3A7B PUSH2 0x3972 JUMP JUMPDEST JUMPDEST POP SWAP3 SWAP2 POP POP JUMP JUMPDEST PUSH32 0x706C656173652070617920726571756972656420616D6F756E7420746F206D69 PUSH1 0x0 DUP3 ADD MSTORE PUSH32 0x6E74000000000000000000000000000000000000000000000000000000000000 PUSH1 0x20 DUP3 ADD MSTORE POP JUMP JUMPDEST PUSH1 0x0 PUSH2 0x3ADF PUSH1 0x22 DUP4 PUSH2 0x2C15 JUMP JUMPDEST SWAP2 POP PUSH2 0x3AEA DUP3 PUSH2 0x3A83 JUMP JUMPDEST PUSH1 0x40 DUP3 ADD SWAP1 POP SWAP2 SWAP1 POP JUMP JUMPDEST PUSH1 0x0 PUSH1 0x20 DUP3 ADD SWAP1 POP DUP2 DUP2 SUB PUSH1 0x0 DUP4 ADD MSTORE PUSH2 0x3B0E DUP2 PUSH2 0x3AD2 JUMP JUMPDEST SWAP1 POP SWAP2 SWAP1 POP JUMP JUMPDEST PUSH1 0x0 DUP2 SWAP1 POP SWAP3 SWAP2 POP POP JUMP JUMPDEST PUSH1 0x0 DUP2 SLOAD PUSH2 0x3B2D DUP2 PUSH2 0x3481 JUMP JUMPDEST PUSH2 0x3B37 DUP2 DUP7 PUSH2 0x3B15 JUMP JUMPDEST SWAP5 POP PUSH1 0x1 DUP3 AND PUSH1 0x0 DUP2 EQ PUSH2 0x3B52 JUMPI PUSH1 0x1 DUP2 EQ PUSH2 0x3B67 JUMPI PUSH2 0x3B9A JUMP JUMPDEST PUSH1 0xFF NOT DUP4 AND DUP7 MSTORE DUP2 ISZERO ISZERO DUP3 MUL DUP7 ADD SWAP4 POP PUSH2 0x3B9A JUMP JUMPDEST PUSH2 0x3B70 DUP6 PUSH2 0x351E JUMP JUMPDEST PUSH1 0x0 JUMPDEST DUP4 DUP2 LT ISZERO PUSH2 0x3B92 JUMPI DUP2 SLOAD DUP2 DUP10 ADD MSTORE PUSH1 0x1 DUP3 ADD SWAP2 POP PUSH1 0x20 DUP2 ADD SWAP1 POP PUSH2 0x3B73 JUMP JUMPDEST DUP4 DUP9 ADD SWAP6 POP POP POP JUMPDEST POP POP POP SWAP3 SWAP2 POP POP JUMP JUMPDEST PUSH1 0x0 PUSH2 0x3BAF DUP3 DUP5 PUSH2 0x3B20 JUMP JUMPDEST SWAP2 POP DUP2 SWAP1 POP SWAP3 SWAP2 POP POP JUMP JUMPDEST PUSH32 0x616C7265616479206C6F636B6564000000000000000000000000000000000000 PUSH1 0x0 DUP3 ADD MSTORE POP JUMP JUMPDEST PUSH1 0x0 PUSH2 0x3BF0 PUSH1 0xE DUP4 PUSH2 0x2C15 JUMP JUMPDEST SWAP2 POP PUSH2 0x3BFB DUP3 PUSH2 0x3BBA JUMP JUMPDEST PUSH1 0x20 DUP3 ADD SWAP1 POP SWAP2 SWAP1 POP JUMP JUMPDEST PUSH1 0x0 PUSH1 0x20 DUP3 ADD SWAP1 POP DUP2 DUP2 SUB PUSH1 0x0 DUP4 ADD MSTORE PUSH2 0x3C1F DUP2 PUSH2 0x3BE3 JUMP JUMPDEST SWAP1 POP SWAP2 SWAP1 POP JUMP JUMPDEST PUSH1 0x0 PUSH2 0x3C31 DUP3 PUSH2 0x2CBC JUMP JUMPDEST SWAP2 POP PUSH1 0x0 DUP3 SUB PUSH2 0x3C44 JUMPI PUSH2 0x3C43 PUSH2 0x3972 JUMP JUMPDEST JUMPDEST PUSH1 0x1 DUP3 SUB SWAP1 POP SWAP2 SWAP1 POP JUMP JUMPDEST PUSH1 0x0 DUP2 MLOAD SWAP1 POP SWAP2 SWAP1 POP JUMP JUMPDEST PUSH1 0x0 DUP3 DUP3 MSTORE PUSH1 0x20 DUP3 ADD SWAP1 POP SWAP3 SWAP2 POP POP JUMP JUMPDEST PUSH1 0x0 PUSH2 0x3C76 DUP3 PUSH2 0x3C4F JUMP JUMPDEST PUSH2 0x3C80 DUP2 DUP6 PUSH2 0x3C5A JUMP JUMPDEST SWAP4 POP PUSH2 0x3C90 DUP2 DUP6 PUSH1 0x20 DUP7 ADD PUSH2 0x2C26 JUMP JUMPDEST PUSH2 0x3C99 DUP2 PUSH2 0x2C50 JUMP JUMPDEST DUP5 ADD SWAP2 POP POP SWAP3 SWAP2 POP POP JUMP JUMPDEST PUSH1 0x0 PUSH1 0x80 DUP3 ADD SWAP1 POP PUSH2 0x3CB9 PUSH1 0x0 DUP4 ADD DUP8 PUSH2 0x2D51 JUMP JUMPDEST PUSH2 0x3CC6 PUSH1 0x20 DUP4 ADD DUP7 PUSH2 0x2D51 JUMP JUMPDEST PUSH2 0x3CD3 PUSH1 0x40 DUP4 ADD DUP6 PUSH2 0x2DE7 JUMP JUMPDEST DUP2 DUP2 SUB PUSH1 0x60 DUP4 ADD MSTORE PUSH2 0x3CE5 DUP2 DUP5 PUSH2 0x3C6B JUMP JUMPDEST SWAP1 POP SWAP6 SWAP5 POP POP POP POP POP JUMP JUMPDEST PUSH1 0x0 DUP2 MLOAD SWAP1 POP PUSH2 0x3CFF DUP2 PUSH2 0x2B7B JUMP JUMPDEST SWAP3 SWAP2 POP POP JUMP JUMPDEST PUSH1 0x0 PUSH1 0x20 DUP3 DUP5 SUB SLT ISZERO PUSH2 0x3D1B JUMPI PUSH2 0x3D1A PUSH2 0x2B45 JUMP JUMPDEST JUMPDEST PUSH1 0x0 PUSH2 0x3D29 DUP5 DUP3 DUP6 ADD PUSH2 0x3CF0 JUMP JUMPDEST SWAP2 POP POP SWAP3 SWAP2 POP POP JUMP JUMPDEST PUSH1 0x0 PUSH1 0x40 DUP3 ADD SWAP1 POP PUSH2 0x3D47 PUSH1 0x0 DUP4 ADD DUP6 PUSH2 0x2D51 JUMP JUMPDEST PUSH2 0x3D54 PUSH1 0x20 DUP4 ADD DUP5 PUSH2 0x3045 JUMP JUMPDEST SWAP4 SWAP3 POP POP POP JUMP INVALID LOG2 PUSH5 0x6970667358 0x22 SLT KECCAK256 0xB4 EXP 0xE9 CALLER PUSH13 0xF379A4C55860E200FADF0D6BA7 0xDF SWAP5 TLOAD PUSH20 0x8A8E2E10EA998C5A0A8F64736F6C634300081800 CALLER "},"methodIdentifiers":{"DEFAULT_ADMIN_ROLE()":"a217fddf","MINTER_ROLE()":"d5391393","approve(address,uint256)":"095ea7b3","balanceOf(address)":"70a08231","bronzeTierUnlock()":"7dfce4ba","getApproved(uint256)":"081812fc","getDanceMove(uint256)":"48441365","getRoleAdmin(bytes32)":"248a9ca3","goldTierUnlock()":"a8ab7e57","grantRole(bytes32,address)":"2f2ff15d","hasRole(bytes32,address)":"91d14854","isApprovedForAll(address,address)":"e985e9c5","lock()":"f83d08ba","locked()":"cf309012","lockedBackgroundURI()":"286c1d30","lockedGlbURI()":"add4c1d9","maxSupply()":"d5abeb01","metadataURI()":"03ee438c","mint(uint256)":"a0712d68","name()":"06fdde03","owner()":"8da5cb5b","ownerOf(uint256)":"6352211e","pricePerTokenMint()":"f2ba4fe3","privateKnowledgeLink()":"34b72f22","publicKnowledgeLink()":"8c17bb9f","renounceOwnership()":"715018a6","renounceRole(bytes32,address)":"36568abe","revokeRole(bytes32,address)":"d547741f","safeTransferFrom(address,address,uint256)":"42842e0e","safeTransferFrom(address,address,uint256,bytes)":"b88d4fde","scoreboard(uint256)":"d75ffdcf","setApprovalForAll(address,bool)":"a22cb465","silverTierUnlock()":"a0e301ea","supportsInterface(bytes4)":"01ffc9a7","symbol()":"95d89b41","tokenURI(uint256)":"c87b56dd","tokenURILink()":"12b0e455","totalSupply()":"18160ddd","transferFrom(address,address,uint256)":"23b872dd","transferOwnership(address)":"f2fde38b","unlockedBackgroundURI()":"3d2a9b86","unlockedGlbURI()":"fcccc0b6","updateLockedBackground(string)":"35213f4f","updateLockedGlb(string)":"8d9480aa","updateMetadata(string,string,string,string,string,string,string)":"d186f26f","updateScoreboard(uint256,uint256)":"4ecfcebb","updateUnlockedBackground(string)":"8e63aa0c","updateUnlockedGlb(string)":"1971f69b"}}}}}